:100000000C94D7010C94FF010C94FF010C94FF0198
:100010000C94FF010C94FF010C94FF010C94FF0160
:100020000C94FF010C94FF010C94FF010C943A070F
:100030000C94FF010C94FF010C94FF010C94FF0140
:100040000C94F0060C94FF010C94BE060C949806D8
:100050000C94FF010C94FB070C94FF010C94FF011E
:100060000C94FF010C94FF01636D64203E20002D71
:100070002D2D003D007372765F696E695F636C724F
:10008000003D006C6F675F6673725F6576656E74C6
:10009000003D006C6F675F6673725F7374617473A9
:1000A000003D006673725F696E76003D0066737294
:1000B0005F6869003D006673725F6C6F003D0066AB
:1000C00073725F736C6F77003D006673725F666179
:1000D0007374003D00666F726D00726F6D20232097
:1000E0007265706F72742073657474696E677300E3
:1000F0006C6F6720667372206F66662023206469C8
:100100007361626C6520616C6C206673722072652D
:10011000706F727473206F6620617667006C6F6712
:1001200020667372207374617473202320656E617E
:10013000626C6520706572696F64696320726570B6
:100140006F7274206F6620617667006C6F6720663F
:100150007372206576656E74202320656E61626C13
:1001600065206F6E2D64656D616E64207265706FC1
:100170007274206F66206176670073727620636CFC
:1001800072204E4E202320726F7461746520636C60
:1001900065616E657220736572766F20746F204E94
:1001A0004E20646567726565730066737220696EC0
:1001B0007620422023206368616E6765206F757426
:1001C00070757420696E76657274206D6F64652039
:1001D000746F2030206F722031006673722068695E
:1001E000204E4E202320736574206176672065764B
:1001F000656E7420757070657220747269676765CA
:100200007220746F204E4E00667372206C6F204E09
:100210004E20232073657420617667206576656EB5
:1002200074206C6F776572207472696767657220DD
:10023000746F204E4E0066737220736C6F77204E81
:100240004E2023207365742061766720736C6F776E
:10025000207261746520746F204E4E0066737220A8
:1002600066617374204E4E2023207365742061767E
:10027000672066617374207261746520746F204E0C
:100280004E002D2D2D68656C702D2D2D006F66662E
:10029000006576656E7400737461747300667372C2
:1002A00000696E76006869006C6F00736C6F770090
:1002B0006661737400636C7200696E6900636C72CE
:1002C0000000000008000201000003040700000015
:1002D00000000000006D616B653A204175672020C9
:1002E0003120323031372031353A30383A33370027
:1002F00043256920463D2534692F252D3269205339
:100300003D2534692F252D326920443D252B336945
:1003100020007C20004240252D386C75207C200078
:10032000503D252D346C75207C20004540252D380E
:100330006C75207C200043256920533D2534692FAE
:10034000252D3269007C20004C3D252D346C752014
:100350007C20005440252D386C75207C2000636D76
:1003600064202320747970653A2068656C70000001
:10037000000000250028002B0000000000240027BA
:10038000002A000404040404040404020202020219
:100390000203030303030301020408102040800149
:1003A000020408102001020408102000780F112414
:1003B0001FBECFEFD4E0DEBFCDBF11E0A0E0B1E0C3
:1003C000E6E2FCE202C005900D92A634B107D9F72F
:1003D00022E0A6E4B1E001C01D92AB3BB207E1F719
:1003E00011E0C7EDD1E004C02197FE010E94C914BD
:1003F000C63DD107C9F70E9481090C9411160C94CF
:100400000000CF92DF92EF92FF920F931F93CF9352
:10041000DF936C017A018B01C0E0D0E0CE15DF05DF
:1004200089F0D8016D918D01D601ED91FC9101907B
:10043000F081E02DC6010995892B11F47E0102C0DF
:100440002196ECCFC701DF91CF911F910F91FF90C3
:10045000EF90DF90CF900895089580E090E00895A8
:10046000FC01538D448D252F30E0842F90E0821BBA
:10047000930B541710F0CF96089501970895FC013F
:10048000918D828D981761F0828DDF01A80FB11DCB
:100490005D968C91928D9F5F9F73928F90E00895EF
:1004A0008FEF9FEF0895FC01918D828D981731F0A9
:1004B000828DE80FF11D858D90E008958FEF9FEFFD
:1004C0000895FC01918D228D892F90E0805C9F4FD3
:1004D000821B91098F73992708958AEE91E00E94FB
:1004E000610221E0892B09F420E0822F0895FC01AC
:1004F000848DDF01A80FB11DA35ABF4F2C91848DAD
:1005000090E001968F739927848FA689B7892C93E1
:10051000A089B1898C9180648C93938D848D98137C
:1005200006C00288F389E02D80818F7D8083089545
:10053000EF92FF920F931F93CF93DF93EC0181E033
:10054000888F9B8D8C8D981305C0E889F9898081EF
:1005500085FD24C0F62E0B8D10E00F5F1F4F0F732B
:100560001127E02E8C8DE8120CC00FB607FCFACFD5
:10057000E889F989808185FFF5CFCE010E94770255
:10058000F1CF8B8DFE01E80FF11DE35AFF4FF08292
:100590000B8FEA89FB898081806207C0EE89FF8921
:1005A0006083E889F98980818064808381E090E0BC
:1005B000DF91CF911F910F91FF90EF900895CF930E
:1005C000DF93EC01888D8823C9F0EA89FB8980815B
:1005D00085FD05C0A889B9898C9186FD0FC00FB62D
:1005E00007FCF5CF808185FFF2CFA889B9898C916E
:1005F00085FFEDCFCE010E947702E7CFDF91CF914B
:10060000089580E090E0892B29F00E946D0281110D
:100610000C940000089590E0FC01EF53FD4F3491DD
:10062000FC01E956FC4F2491FC01ED57FC4FE4918D
:10063000EE2309F43BC0332339F1333091F038F421
:100640003130A9F0323001F584B58F7D12C03730DA
:1006500091F03830A1F03430B9F4809180008F7D72
:1006600003C0809180008F77809380000DC084B597
:100670008F7784BD09C08091B0008F7703C08091CF
:10068000B0008F7D8093B000F0E0EE0FFF1FE159C6
:10069000FC4FA591B4918FB7F894EC91611103C010
:1006A00020952E2301C02E2B2C938FBF08952FB79A
:1006B000F89460914D0170914E0180914F0190919D
:1006C00050012FBF0895CF93C091AC016C2F8DE0E6
:1006D0000E940B0380910001882311F081E0C8275C
:1006E0006C2F8CE0CF910C940B03CF93DF9300D051
:1006F000CDB7DEB742E050E062E070E0CE01019697
:100700000E94EB1389819A819093120180931101C9
:1007100042E050E064E070E0CE0101960E94EB13ED
:10072000209111013091120189819A81820F931FCA
:100730009093B2028093B10242E050E068E070E032
:100740008BE091E00E94EB1342E050E066E070E045
:1007500089E091E00E94EB1341E050E06AE070E034
:1007600080E091E00E94EB1341E050E06CE070E02B
:1007700087EA91E00E94EB1341E050E06BE070E00B
:1007800083EC91E00E94EB130F900F90DF91CF91DB
:10079000089582E892E00E9450088CE592E00E9461
:1007A000500886E392E00E94500888E092E00E94A0
:1007B00050088AED91E00E9450088AEA91E00E9478
:1007C00050088AE791E00E9450088BE491E00E9473
:1007D00050088DE191E00E94500880EF90E00E9467
:1007E00050088AED90E00C9450080F931F93CF931C
:1007F000DF931F92CDB7DEB78B0103971CF40E94E5
:10080000C9033DC06DE972E0F801828193810E94C5
:100810000B11892BA1F7F8010481158167E972E0BA
:10082000C8010E940B11892B39F481E0898341E0D2
:1008300050E06BE070E01FC061E972E0C8010E9407
:100840000B11892B19F481E0898311C06DE872E0E6
:10085000C8010E940B11892B91F4198241E050E0EC
:100860006BE070E0CE0101960E94FB13198241E01B
:1008700050E06CE070E0CE0101960E94FB130F90F7
:10088000DF91CF911F910F9108950C94C9030E949D
:10089000FC15CF92DF92EF92FF920F931F93CF93AD
:1008A000DF9300D0CDB7DEB78B0103971CF40E9415
:1008B000C90365C04AE050E060E070E0F80184815F
:1008C00095810E94F10F6B017C01F8010281138177
:1008D00060EB72E0C8010E940B11892B59F4C6012C
:1008E0000297079738F4DA82C98242E050E062E06A
:1008F00070E041C06BEA72E0C8010E940B11892BC5
:1009000059F4C6010397079738F4DA82C98242E0A6
:1009100050E064E070E02FC068EA72E0C8010E9415
:100920000B11892B39F4DA82C98242E050E066E08B
:1009300070E021C065EA72E0C8010E940B11892BAA
:1009400039F4DA82C98242E050E068E070E013C016
:1009500061EA72E0C8010E940B11892B09F0A7CF50
:10096000F2E0CF16D10408F0A2CFDA82C98241E0CA
:1009700050E06AE070E0CE0101960E94FB130F90F8
:100980000F90DF91CF911F910F91FF90EF90DF902B
:10099000CF9008958F929F92AF92BF92EF92FF9265
:1009A0000F931F93CF93DF9300D0CDB7DEB78B01AA
:1009B00003971CF40E94C90343C04AE050E060E082
:1009C00070E0F801848195810E94F10F4B015C0178
:1009D000F801E280F3806DEB72E0C7010E940B1119
:1009E000892B41F4F5EB8F16910420F4C4010E9489
:1009F000DE0826C069EB72E0C7010E940B11892B4B
:100A0000C9F665EB72E0F801848195810E940B11B3
:100A1000892B81F64AE050E060E070E0F8018681C1
:100A200097810E94F10F653B710520F67A836983F7
:100A300042E050E06DE070E0CE0101960E94FB13B1
:100A40000F900F90DF91CF911F910F91FF90EF903A
:100A5000BF90AF909F908F900895CF93DF93CDB7C5
:100A6000DEB72F970FB6F894DEBF0FBECDBF42E0C2
:100A700050E060E070E0CE010B960E94EB1385ED34
:100A800090E00E942F0883ED90E00E942F088B8554
:100A90009C850E945E0842E050E062E070E0CE017A
:100AA00009960E94EB138AEC90E00E942F0888ECD4
:100AB00090E00E942F0889859A850E945E0842E096
:100AC00050E064E070E0CE0107960E94EB138FEBDC
:100AD00090E00E942F088DEB90E00E942F088F81FC
:100AE00098850E945E0842E050E066E070E0CE012A
:100AF00005960E94EB1386EB90E00E942F0884EB92
:100B000090E00E942F088D819E810E945E0842E045
:100B100050E068E070E0CE0103960E94EB138DEA8E
:100B200090E00E942F088BEA90E00E942F088B81B2
:100B30009C810E945E0841E050E06AE070E0CE01D6
:100B40000F960E94EB1383EA90E00E942F0881EA3F
:100B500090E00E942F088F8590E00E945E0841E09F
:100B600050E06BE070E0CE010E960E94EB1383E93B
:100B700090E00E942F0881E990E00E942F088E8566
:100B800090E00E945E0841E050E06CE070E0CE0131
:100B90000D960E94EB1383E890E00E942F0881E8F5
:100BA00090E00E942F088D8590E00E945E0842E050
:100BB00050E06DE070E0CE0101960E94EB1385E7F6
:100BC00090E00E942F0883E790E00E942F0889811F
:100BD0009A810E945E082F960FB6F894DEBF0FBE72
:100BE000CDBFDF91CF9108950C942D05CF92DF9268
:100BF000EF92FF920F931F93CF93DF938C017B01B2
:100C000086E090E00E94CF14EC019093C70180939E
:100C1000C601F80101900020E9F7CF01801B910B7C
:100C20000E94CF146C01B8010E940A16F8010190CD
:100C30000020E9F73197E01BF10BEC0DFD1D108250
:100C4000D982C882FB82EA8280915101909152013F
:100C50009D838C83D0935201C0935101DF91CF913A
:100C60001F910F91FF90EF90DF90CF900895DC01DE
:100C7000ED91FC910190F081E02D099461157105D1
:100C800079F0FB0101900020E9F73197AF01461B95
:100C9000570BDC01ED91FC910280F381E02D09946A
:100CA00080E090E008956BE271E00C943E060C94B5
:100CB0003E060F931F93CF93DF93CDB7DEB7E29736
:100CC0000FB6F894DEBF0FBECDBF8091E8019091C2
:100CD000E9010E9453066FE670E0CE0101960E9482
:100CE00014110091E8011091E901BE016F5F7F4F7F
:100CF000C8010E943E06C8010E94530668E670E0E3
:100D0000CE0101960E941411BE016F5F7F4F80914A
:100D1000E8019091E9010E945706E2960FB6F89417
:100D2000DEBF0FBECDBFDF91CF911F910F91089510
:100D30001F920F920FB60F9211242F933F934F9350
:100D40005F936F937F938F939F93AF93BF93EF9333
:100D5000FF938AEE91E00E947702FF91EF91BF919D
:100D6000AF919F918F917F916F915F914F913F9143
:100D70002F910F900FBE0F901F9018951F920F92FA
:100D80000FB60F9211242F938F939F93EF93FF939E
:100D9000E091FA01F091FB018081E0910002F09175
:100DA000010282FD12C09081809103028F5F8F73D8
:100DB00020910402821751F0E0910302F0E0E65125
:100DC000FE4F958F8093030201C08081FF91EF91C8
:100DD0009F918F912F910F900FBE0F901F9018959C
:100DE0001F920F920FB60F9211242F933F938F9360
:100DF0009F93AF93BF9380914D0190914E01A0912D
:100E00004F01B091500130914C0123E0230F2D3759
:100E100020F40196A11DB11D05C026E8230F0296FE
:100E2000A11DB11D20934C0180934D0190934E0163
:100E3000A0934F01B09350018091480190914901D6
:100E4000A0914A01B0914B010196A11DB11D809363
:100E5000480190934901A0934A01B0934B01BF917F
:100E6000AF919F918F913F912F910F900FBE0F9057
:100E70001F9018951F920F920FB60F9211242F9367
:100E80003F934F935F936F937F938F939F93AF9312
:100E9000BF93EF93FF938091470187FF05C01092A6
:100EA0008500109284001BC020914701022E000C87
:100EB000330B8091AB0290E02817390784F48091BE
:100EC0004701082E000C990BFC01EE0FFF1F8E0F3F
:100ED0009F1FFC01E957FD4F808186FD15C0809161
:100EE00047018F5F8093470120914701022E000C3C
:100EF000330B8091AB0290E028173907C4F480913E
:100F000047018C3064F113C080914701082E000C1A
:100F1000990BFC01EE0FFF1F8E0F9F1FFC01E9577D
:100F2000FD4F808160E08F730E940B03D8CF8091CA
:100F3000840090918500049680349C4918F480E4E4
:100F40009CE905C08091840090918500049690935F
:100F50008900809388008FEF809347013BC02091E8
:100F600084003091850080914701082E000C990B78
:100F7000FC01EE0FFF1F8E0F9F1FFC01E957FD4F75
:100F800081819281820F931F9093890080938800C2
:100F900080914701082E000C990BFC01EE0FFF1FFA
:100FA0008E0F9F1FFC01E957FD4F808186FF12C005
:100FB00080914701082E000C990BFC01EE0FFF1FDA
:100FC0008E0F9F1FFC01E957FD4F808161E08F73F9
:100FD0000E940B03FF91EF91BF91AF919F918F9171
:100FE0007F916F915F914F913F912F910F900FBE25
:100FF0000F901F9018951F920F920FB60F92112409
:101000002F933F938F93EF93FF938091460120910D
:10101000780030917900E82FF0E0EE0FFF1FEF5FCE
:10102000FE4F318320838F5F843018F48093460114
:1010300002C01092460180914601806480937C003A
:1010400080917A00806480937A00FF91EF918F9174
:101050003F912F910F900FBE0F901F9018950F93F7
:101060001F93CF93DF938C01C0E0D0E0F801EC0F29
:10107000FD1F6491662371F0E091EA01F091EB01AC
:101080000190F081E02D8AEE91E00995892B11F015
:101090002196ECCFCE01DF91CF911F910F91089552
:1010A000CF93DF930E942F08EC018AEE91E00E941B
:1010B00053068C0F9D1FDF91CF9108958F929F92C1
:1010C000AF92BF92CF92DF92EF92FF920F931F9356
:1010D000CF93DF93CDB7DEB7A1970FB6F894DEBFFD
:1010E0000FBECDBF6C01990FEE08FF08F7FE2DC0B3
:1010F0006DE28AEE91E00E9437068C0122273327A9
:10110000A9012C193D094E095F0919A2CE0181964A
:101110007C019AE0892E912CA12CB12CCA01B90135
:10112000A50194010E942314605DF70162937F0181
:10113000211531054105510589F7BF018AEE91E07E
:101140000E943E06080F191F20C0A701960119A290
:101150008E010F5D1F4F8AE0C82ED12CE12CF12C9F
:10116000CA01B901A70196010E942314605DF8012C
:1011700062938F01211531054105510589F7BF01A2
:101180008AEE91E00E943E068C018AEE91E00E9478
:101190005306800F911FA1960FB6F894DEBF0FBEC5
:1011A000CDBFDF91CF911F910F91FF90EF90DF9016
:1011B000CF90BF90AF909F908F900895CF92DF9285
:1011C000EF92FF92DC01A03282E0B8070CF03EC043
:1011D000B7FD06C0A53BB1052CF0A4EBB0E002C002
:1011E000A0E0B0E08091AF0228E830E06901C81AC1
:1011F000D10887FDD394CC0CDD1CCC0CDD1C0D2C50
:10120000000CEE08FF088091B00228E532E0281BB0
:10121000310987FD3395220F331F220F331FA90198
:10122000330F660B770B9A01AB012C193D094E0960
:101230005F090E946F1424EB30E040E050E00E9410
:101240004514C20ED31EE41EF51ED6019091AE02C7
:101250009C3098F58091AF0248E850E0481B510956
:1012600087FD5395440F551F440F551FA417B5070D
:101270008CF08091B00228E532E0281B310987FD0F
:101280003395220F331F220F331FAD012A173B075F
:101290000CF4A90142505109440F551F2FB7F8947F
:1012A000892F90E0FC01EE0FFF1F8E0F9F1FFC01A6
:1012B000E957FD4F528341832FBFFF90EF90DF909E
:1012C000CF90089590E0FC01E956FC4F2491FC0179
:1012D000ED57FC4F8491882399F090E0880F991F77
:1012E000FC01E758FC4FA591B491FC01E159FC4F7A
:1012F000859194918FB7F894EC91E22BEC938FBF8A
:101300000895CF93DF93CDB7DEB7C758D1090FB695
:10131000F894DEBF0FBECDBF789484B5826084BDE3
:1013200084B5816084BD85B5826085BD85B58160E9
:1013300085BD80916E00816080936E001092810067
:101340008091810082608093810080918100816022
:1013500080938100809180008160809380008091E3
:10136000B10084608093B1008091B000816080936F
:10137000B00080917A00846080937A0080917A0036
:10138000826080937A0080917A00816080937A00F5
:1013900080917A00806880937A001092C100E09179
:1013A000FA01F091FB0182E08083E091F601F09177
:1013B000F7011082E091F801F091F90180E180835A
:1013C00010920202E091FE01F091FF0186E080831D
:1013D000E091FC01F091FD01808180618083E091CA
:1013E000FC01F091FD01808188608083E091FC0127
:1013F000F091FD01808180688083E091FC01F09193
:10140000FD0180818F7D80838AEE91E00E945306EA
:1014100085ED92E00E94500842E050E060E070E00C
:10142000CE01CD960E94EB138DAD9EAD099709F4C8
:1014300060C084E090E09A83898342E050E062E0FB
:1014400070E0CE0101960E94FB1307E010E01A83C2
:10145000098342E050E064E070E0CE0101960E9412
:10146000FB131A83098342E050E066E070E0CE018E
:1014700001960E94FB138EE090E09A83898342E0FC
:1014800050E068E070E0CE0101960E94FB1381E01D
:10149000898341E050E06AE070E0CE0101960E944D
:1014A000FB13198241E050E06BE070E0CE01019641
:1014B0000E94FB13198241E050E06CE070E0CE0125
:1014C00001960E94FB131A82198242E050E06DE0FF
:1014D00070E0CE0101960E94FB1389E090E09A83B0
:1014E000898342E050E060E070E0CE0101960E9406
:1014F000FB130E942D050E9475038AEE91E09093E4
:10150000E9018093E80188EC91E09093E7018093F2
:10151000E601109252011092510165EF73E08EE2E4
:1015200091E00E94F60569E474E082E391E00E9494
:10153000F6056AEC74E086E391E00E94F60564EF3C
:1015400075E08AE391E00E94F60565E474E08EE3BD
:1015500091E00E94F6050E94590610927C0080914D
:101560007C00806480937C0010927A0080917A00E5
:10157000806880937A0080917A00886080937A00F6
:1015800080917A00856080937A0010927B00809130
:101590007B0080937B0010927E00789480917A008B
:1015A000806480937A000E9463038DE00E94620948
:1015B0008CE00E9462098091AE028C3008F050C02D
:1015C0008BE00E9462098091AE02E82FF0E09F015B
:1015D000220F331FE20FF31FE957FD4F9081907CDC
:1015E0009B6090831092AF021092B0026CE00E9458
:1015F000BD142CE0829FB001112440E050E09A011C
:10160000260F371FF901EE0FFF1F2E0F3F1FF901A5
:10161000E957FD4F908196FD16C04F5F5F4F4C30EC
:10162000510569F781110FC01092800082E080930C
:1016300081001092850010928400B19A80916F0011
:10164000826080936F00E091AE02F0E0CF01880FDE
:10165000991FE80FF91FE957FD4F8081806480834F
:1016600042E050E06DE070E0CE0101960E94EB1385
:1016700089819A810E94DE088E01035C1F4FE1E0A0
:10168000F1E04BE951E0C158DF4F59834883CF5710
:10169000D04083E691E0E9969FAF8EAFE99723E9CA
:1016A00031E0E1963FAF2EAFE19743E551E0ED9693
:1016B0005FAF4EAFED978BEB91E0E3969FAF8EAFB0
:1016C000E39753E8E52E51E0F52EA3EBB1E0E79662
:1016D000BFAFAEAFE79723E731E0CE57DF4F398397
:1016E0002883C258D040EF96BFAFAEAFEF976C01E2
:1016F00083E991E0EB969FAF8EAFEB97ABE9B1E05A
:10170000E596BFAFAEAFE597F894808191818F3FAA
:10171000BFEF9B0739F022242A94322C3182208299
:1017200021E001C020E07894222309F4E3C0E99687
:10173000AEADBFADE9974D915D916D917C914C013E
:10174000092E000CAA08BB08480D591D6A1D7B1DF7
:10175000E596AEADBFADE5972D913C91119729016E
:10176000330F6608770844195509660977097090A0
:1017700011011A012B01072C04C05594479437948A
:1017800027940A94D2F72D923C92E996AEADBFAD64
:10179000E9974D935D936D937C931397ED96AEAD62
:1017A000BFADED974D915D916D917C919C0122199A
:1017B000330937FF03C03195219531091901330FE2
:1017C00044085508420D531D641D751DEB96AEADC2
:1017D000BFADEB972D913C9111971901330F440840
:1017E000550842195309640975091A012B0104C0EF
:1017F00055944794379427947A94D2F7CC57DF4F77
:10180000288239824A825B82C458D0402D923C9211
:10181000ED96AEADBFADED974D935D936D937C931B
:101820001397D7014D915D916D917C91840E951E1A
:10183000A61EB71ED6012D913C911197A901330F19
:10184000660B770B841A950AA60AB70A2091B10293
:1018500024013501022E04C075946794579447946F
:101860000A94D2F74D925C92D7018D929D92AD92DF
:10187000BC921397CE57DF4FA881B981C258D04090
:101880004D915D916D917C918419950997FF03C0ED
:101890009195819591094C01990FAA08BB08840E76
:1018A000951EA61EB71EEF96AEADBFADEF976D911C
:1018B0007C911197AB01770F660B770B1401250113
:1018C000241A350A460A570A5201410104C0B59448
:1018D000A794979487942A95D2F78D929C92CE578D
:1018E000DF4FA881B981C258D0402D923D924D92D0
:1018F0005C9213973296E5962EAD3FADE5972E5F3D
:101900003F4FE5963FAF2EAFE597E9964EAD5FAD01
:10191000E9974C5F5F4FE9965FAF4EAFE997EB9663
:101920008EAD9FADEB970296EB969FAF8EAFEB9788
:10193000ED96AEADBFADED971496ED96BFAFAEAFE1
:10194000ED97B2E0CB0ED11C24E0E20EF11CEF9635
:101950004EAD5FADEF974E5F5F4FEF965FAF4EAF0F
:10196000EF97CE57DF4F88819981C258D0400496B7
:10197000CE57DF4F99838883C258D04091E0E93039
:10198000F90709F0C1CE33EBA32E31E0B32E6BEB98
:1019900071E0EBE9F1E040E050E080E090E021917F
:1019A0003191DB01CD90DD90BD01D501ED90FD9031
:1019B0005D012C193D0937FF03C03195219531098F
:1019C000820F931F4E0D5F1DB1E0E33AFB0739F71D
:1019D000841B950B2091090130910A0140910B0164
:1019E00050910C01841795070CF490C04091AC0104
:1019F000411179C281E08093AC010E9463030E948F
:101A000057036093A3017093A4018093A501909361
:101A1000A6018091A701882309F4D5C00E9457032D
:101A20009F938F937F936F9385E193E09F938F9321
:101A30001F930F930E944711B8018AEE91E00E9414
:101A400057060FB6F894DEBF0FBECDBF93EBC92E7D
:101A500091E0D92E2BEBA22E21E0B22EE12CF12C1D
:101A6000C158DF4FA881B981CF57D0408D919D914A
:101A7000C158DF4FB983A883CF57D040E196EEAD70
:101A8000FFADE197608171813296E196FFAFEEAFD5
:101A9000E197D5012D913D915D01D601EC91119613
:101AA000FC91B2E0CB0ED11CAC01421B530B5F93F7
:101AB0004F93FF93EF933F932F937F936F939F9356
:101AC0008F93FF92EF92A0EFB2E0BF93AF931F937B
:101AD0000F930E944711B8018AEE91E00E945706C9
:101AE00082E193E00E942F08FFEFEF1AFF0A0FB682
:101AF000F894DEBF0FBECDBF34E0E316F10409F069
:101B0000AFCF8AEE91E00E9453065DC028173907D7
:101B10000CF459C08091AC01882309F454C0109290
:101B2000AC010E9463030E9457036093A801709365
:101B3000A9018093AA019093AB018091A70188230A
:101B400009F441C00E9457039F938F937F936F9333
:101B50008BE293E09F938F931F930F930E94471103
:101B6000B8018AEE91E00E9457068091A8019091F9
:101B7000A901A091AA01B091AB014091A30150919C
:101B8000A4016091A5017091A601841B950BA60B81
:101B9000B70BBF93AF939F938F9380E293E09F9394
:101BA0008F931F930F930E944711B8018AEE91E023
:101BB0000E9457068AEE91E00E9453060FB6F894F1
:101BC000DEBF0FBECDBF8091B1019091B2010196F1
:101BD000883E53E095072CF49093B2018093B101B5
:101BE00026C01092B2011092B1010E9475030E94AA
:101BF0005703C090AD01D090AE01E090AF01F090DE
:101C0000B0011B012C012C183D084E085F082092E2
:101C10000D0130920E0140920F015092100160931D
:101C2000AD017093AE018093AF019093B0018091AC
:101C3000C4019091C50101969093C5018093C401A0
:101C40002091AC023091AD02821793070CF49CC036
:101C50001092C5011092C40120910D0130910E0126
:101C600040910F015091100160E472E48FE090E028
:101C70000E9445143093AD022093AC028091C301C1
:101C8000882309F481C00E9457039F938F937F9309
:101C90006F9383E593E09F938F931F930F930E941D
:101CA0004711B8018AEE91E00E9457068091100119
:101CB0008F9380910F018F9380910E018F9380916C
:101CC0000D018F9388E493E09F938F931F930F935D
:101CD0000E944711B8018AEE91E00E9457060FB6A4
:101CE000F894DEBF0FBECDBFE12CF12CE396AEAD74
:101CF000BFADE3978C9111969C9111971296E39644
:101D0000BFAFAEAFE397E796EEADFFADE7972081AB
:101D100031813296E796FFAFEEAFE7973F932F936F
:101D20009F938F93FF92EF92A6E3B3E0BF93AF939D
:101D30001F930F930E944711B8018AEE91E00E9411
:101D4000570685E493E00E942F08FFEFEF1AFF0A81
:101D50000FB6F894DEBF0FBECDBF34E0E316F1043A
:101D600029F68AEE91E00E9453060EC08091E801A8
:101D70009091E901DC01ED91FC910284F385E02D65
:101D80000995282F8A3071F48091E8019091E9013A
:101D9000DC01ED91FC910084F185E02D0995892B02
:101DA00029F79EC08091E8019091E9012B3024F43D
:101DB000283009F469C07BC02D3019F02E3209F0AB
:101DC00076C0E091E601F091E70110826BE271E0EC
:101DD0000E94570663E471E088EC91E00E941B11B9
:101DE0009A838983FE0133966F01EE24E394F12CEC
:101DF000BE2CAF2C63E471E080E090E00E941B11E8
:101E0000D6018D939D936D01BEE1EB16F10439F47B
:101E1000E090C601F090C701C980DA8009C0EFEFF9
:101E2000EE1AFE0A892B21F7F3CFF701E480F58043
:101E3000E114F104A1F0D7016D917C91C6010E94DB
:101E40000116892B91F7D7011296ED91FC9113970A
:101E5000BE016F5F7F4F8B2D9A2D099510C06EE5E7
:101E600073E0C8010E941411E090E801F090E901CC
:101E7000B801C7010E943E06C7010E9453060E9496
:101E8000590688EC91E00EC068E00E943706809108
:101E9000E6019091E701F1E0883C9F0709F008F422
:101EA00073CF01979093E7018093E6016DCF622F86
:101EB000CF57DF4F2883C158D0400E943706E091AA
:101EC000E601F091E701CF0101969093E70180933D
:101ED000E601CF57DF4F2881C158D040208354CF2F
:101EE0000E940103CCCB281739070CF018CE6BCE1B
:101EF0001092ED011092EC0188EE93E0A0E0B0E0CA
:101F00008093EE019093EF01A093F001B093F10163
:101F10008DE191E09093EB018093EA0185EC90E0F4
:101F20009093F7018093F60184EC90E09093F9018F
:101F30008093F80180EC90E09093FB018093FA018C
:101F400081EC90E09093FD018093FC0182EC90E0A5
:101F50009093FF018093FE0186EC90E09093010244
:101F60008093000210920302109204021092050264
:101F7000109206028091AB028C30A0F491E0980F91
:101F80009093AB028093AE0290E0FC01EE0FFF1F36
:101F90008E0F9F1FFC01E957FD4F88EB9BE092835A
:101FA000818303C08FEF8093AE0220910D013091A9
:101FB0000E0140910F015091100160E472E48FE036
:101FC00090E00E9445143093AD022093AC028091C2
:101FD00011019091120107969093B2028093B10281
:101FE0000895A0E0B0E0E7EFFFE00C9477145C0107
:101FF0006B017A016115710519F0FB0191838083F2
:10200000E114F10429F0C7010297839708F0F1C0A9
:10201000E5012196F5011081812F90E00E940211C7
:10202000892B11F05E01F4CF1D3229F42196F501C0
:10203000118101E007C01B3221F4E5012296F50170
:10204000118100E0E114F10459F1F0E1EF16F1041F
:1020500061F41033E1F488818F7D883569F5198149
:102060002296026070E1E72EF12C88E0E816F10478
:1020700039F12CF4F2E0EF16F104C9F12AC08AE03C
:10208000E816F10479F0E0E1EE16F10411F550E103
:10209000E52EF12C812C912CA12C68E0B62E2CC0C1
:1020A0001033C9F23AE0E32EF12C4CEC842E982C3C
:1020B000A82C4CE0B42E20C010E3E114F104A9F6E2
:1020C00098E0E92EF12C812C912CA12C20E1B22E4C
:1020D00013C060E070E080E090E897010F2C000CE6
:1020E000440B550B0E94231449015A0105C0812C51
:1020F000912CA12C80E4B82E60E020E030E0A90112
:1021000027010F2C000C660877081E01E0EDE10F97
:10211000EA3060F08FEB810F8A3110F4E9EC05C0F2
:102120008FE9810F8A3128F5E9EAE10F8E2F90E0DF
:102130008E159F05F4F467FD18C082169306A40659
:10214000B50690F0C301B2010E9413149B01AC01CB
:102150002E0F311D411D511D213031054105F0E883
:102160005F0710F461E001C06FEF2196F10110816B
:10217000CCCF802F8170C114D10471F0662329F077
:102180002197F601D183C08307C001FF19C02297B0
:10219000F601D183C08314C067FF12C0811105C04E
:1021A0002FEF3FEF4FEF5FE704C020E030E040E06B
:1021B00050E882E290E09093B6028093B50216C098
:1021C000882341F050954095309521953F4F4F4FD2
:1021D0005F4F0CC057FF0AC082E290E09093B602B6
:1021E0008093B5022FEF3FEF4FEF5FE7B901CA01D0
:1021F00004C060E070E080E090E0CDB7DEB7E2E1DF
:102200000C94931491110C943C13803219F0895062
:102210008550C8F70895FB01DC018D910590801968
:102220000110D9F3990B0895FB01DC0105900D9283
:102230000020E1F7089543EB52E00E942011089539
:10224000FA01A191B081009719F41097E1F0CD0146
:10225000DC01CD010D90002011F4C00113C0FB0181
:102260002191222319F02015D9F7F3CFFB012191F9
:10227000201519F41E92119606C02223C1F70D9065
:102280000020A1F7D001FA01A193B0830895AEE038
:10229000B0E0EDE4F1E10C9485140D891E898EE027
:1022A0008C831A8309838FEF9FE79E838D83AE0112
:1022B000475E5F4F6F89788DCE0101960E946A114B
:1022C0002F813885F801E20FF31F10822E96E4E08B
:1022D0000C94A114ACE0B0E0E0E7F1E10C947714C9
:1022E0007C016B018A01FC0117821682838181FFC8
:1022F000BDC1CE0101964C01F7019381F60193FD1A
:10230000859193FF81916F01882309F4ABC18532D8
:1023100039F493FD859193FF81916F01853229F402
:10232000B70190E00E945513E7CF512C312C20E0EB
:102330002032A0F48B3269F030F4803259F08332CD
:1023400069F420612CC08D3239F0803339F421607A
:1023500026C02260246023C0286021C027FD27C03A
:1023600030ED380F3A3078F426FF06C0FAE05F9E71
:10237000300D1124532E13C08AE0389E300D1124E5
:10238000332E20620CC08E3221F426FD6BC12064F6
:1023900006C08C3611F4206802C0883641F4F6017C
:1023A00093FD859193FF81916F018111C1CF982F8A
:1023B0009F7D9554933028F40C5F1F4FFFE3F98302
:1023C0000DC0833631F0833771F0833509F05BC07F
:1023D00022C0F801808189830E5F1F4F44244394FB
:1023E000512C540115C03801F2E06F0E711CF80138
:1023F000A080B18026FF03C0652D70E002C06FEFA2
:102400007FEFC5012C870E944A132C0183012C8584
:102410002F77222E17C03801F2E06F0E711CF801E1
:10242000A080B18026FF03C0652D70E002C06FEF71
:102430007FEFC5012C870E943F132C012C8520685B
:10244000222E830123FC1BC0832D90E048165906E1
:10245000B0F4B70180E290E00E9455133A94F4CFB3
:10246000F50127FC859127FE81915F01B70190E07E
:102470000E94551331103A94F1E04F1A510841145B
:10248000510471F7E5C0843611F0893639F5F80149
:1024900027FF07C060817181828193810C5F1F4F8C
:1024A00008C060817181072E000C880B990B0E5FAC
:1024B0001F4F2F76722E97FF09C0909580957095CB
:1024C00061957F4F8F4F9F4F2068722E2AE030E03A
:1024D000A4010E948D13A82EA81844C0853729F4A2
:1024E0002F7EB22E2AE030E025C0F22FF97FBF2EDA
:1024F0008F36C1F018F4883579F0B4C0803719F000
:10250000883721F0AFC02F2F2061B22EB4FE0DC04E
:102510008B2D8460B82E09C024FF0AC09F2F9660BF
:10252000B92E06C028E030E005C020E130E002C04E
:1025300020E132E0F801B7FE07C06081718182813D
:1025400093810C5F1F4F06C06081718180E090E035
:102550000E5F1F4FA4010E948D13A82EA818FB2DFB
:10256000FF777F2E76FE0BC0372D3E7FA51450F4EB
:1025700074FE0AC072FC08C0372D3E7E05C0BA2C1E
:10258000372D03C0BA2C01C0B52C34FF0DC0FE019D
:10259000EA0DF11D8081803311F4397E09C032FFCC
:1025A00006C0B394B39404C0832F867809F0B39423
:1025B00033FD13C030FF06C05A2CB31418F4530C6B
:1025C0005B18B32CB31468F4B70180E290E03C8749
:1025D0000E945513B3943C85F5CFB31410F43B1807
:1025E00001C0312C34FF12C0B70180E390E03C877A
:1025F0000E9455133C8532FF17C031FD03C088E7A8
:1026000090E002C088E590E0B7010CC0832F867887
:1026100059F031FF02C08BE201C080E237FD8DE24C
:10262000B70190E00E945513A51438F4B70180E378
:1026300090E00E9455135A94F7CFAA94F401EA0D42
:10264000F11D8081B70190E00E945513A110F5CFD4
:10265000332009F451CEB70180E290E00E94551377
:102660003A94F6CFF7018681978102C08FEF9FEFF2
:102670002C96E2E10C949314992788270895FC0185
:102680000590615070400110D8F7809590958E0F9D
:102690009F1F0895FC016150704001900110D8F710
:1026A000809590958E0F9F1F08950F931F93CF9342
:1026B000DF93FB01238121FD03C08FEF9FEF28C033
:1026C00022FF16C046815781248135814217530766
:1026D00044F4A081B1819D012F5F3F4F318320835E
:1026E0008C93268137812F5F3F4F3783268310C01D
:1026F000EB01092F182F0084F185E02D0995892B16
:10270000E1F68E819F8101969F838E83812F902F8A
:10271000DF91CF911F910F910895FA01AA272830D8
:1027200051F1203181F1E8946F936E7F6E5F7F4F9E
:102730008F4F9F4FAF4FB1E03ED0B4E03CD0670F1A
:10274000781F891F9A1FA11D680F791F8A1F911D6D
:10275000A11D6A0F711D811D911DA11D20D009F4BD
:1027600068943F912AE0269F11243019305D3193FF
:10277000DEF6CF010895462F4770405D4193B3E0E8
:102780000FD0C9F7F6CF462F4F70405D4A3318F08F
:10279000495D31FD4052419302D0A9F7EACFB4E040
:1027A000A6959795879577956795BA95C9F70097F8
:1027B0006105710508959B01AC010A2E0694579599
:1027C000479537952795BA95C9F7620F731F841FF0
:1027D000951FA01D0895DC01CB01FC01F999FECFE6
:1027E00006C0F2BDE1BDF89A319600B40D92415099
:1027F0005040B8F70895DC01CB0103C02D910E9431
:10280000061441505040D0F70895262FF999FECF75
:102810001FBA92BD81BD20BD0FB6F894FA9AF99AFD
:102820000FBE01960895DB018F939F930E9464145D
:10283000BF91AF91A29F800D911DA39F900DB29F5C
:10284000900D11240895A1E21A2EAA1BBB1BFD01B5
:102850000DC0AA1FBB1FEE1FFF1FA217B307E4077F
:10286000F50720F0A21BB30BE40BF50B661F771FD7
:10287000881F991F1A9469F76095709580959095B7
:102880009B01AC01BD01CF010895052E97FB1EF4FD
:1028900000940E945C1457FD07D00E94231407FC8B
:1028A00003D04EF40C945C145095409530952195CE
:1028B0003F4F4F4F5F4F089590958095709561956C
:1028C0007F4F8F4F9F4F08950E94AE14A59F900D8C
:1028D000B49F900DA49F800D911D11240895B7FF02
:1028E0000C9464140E946414821B930B08952F921D
:1028F0003F924F925F926F927F928F929F92AF9290
:10290000BF92CF92DF92EF92FF920F931F93CF93DC
:10291000DF93CDB7DEB7CA1BDB0B0FB6F894DEBF73
:102920000FBECDBF09942A88398848885F846E8499
:102930007D848C849B84AA84B984C884DF80EE80E3
:10294000FD800C811B81AA81B981CE0FD11D0FB6EC
:10295000F894DEBF0FBECDBFED010895A29FB00178
:10296000B39FC001A39F700D811D1124911DB29FC3
:10297000700D811D1124911D0895991B79E004C0EB
:10298000991F961708F0961B881F7A95C9F78095AE
:102990000895EE0FFF1F0590F491E02D0994CF9359
:1029A000DF938230910510F482E090E0E091B9026B
:1029B000F091BA0220E030E0C0E0D0E0309711F1B1
:1029C0004081518148175907C0F04817590761F4F1
:1029D00082819381209719F09B838A832BC09093E7
:1029E000BA028093B90226C02115310519F04217A9
:1029F000530718F49A01BE01DF01EF010280F38151
:102A0000E02DDCCF2115310509F1281B390B2430CD
:102A1000310590F412968D919C9113976115710573
:102A200021F0FB019383828304C09093BA028093C8
:102A3000B902FD01329644C0FD01E20FF31F8193FC
:102A40009193225031092D933C933AC02091B702C3
:102A50003091B802232B41F42091150130911601D9
:102A60003093B8022093B7022091130130911401E2
:102A70002115310541F42DB73EB740911701509112
:102A80001801241B350BE091B702F091B802E21750
:102A9000F307A0F42E1B3F0B2817390778F0AC0181
:102AA0004E5F5F4F2417350748F04E0F5F1F50935E
:102AB000B8024093B7028193919302C0E0E0F0E046
:102AC000CF01DF91CF9108950F931F93CF93DF93A1
:102AD000009709F48CC0FC01329713821282009196
:102AE000B9021091BA020115110581F420813181DA
:102AF000820F931F2091B7023091B802281739072F
:102B000079F5F093B802E093B70271C0D80140E0C4
:102B100050E0AE17BF0750F412962D913C911397D9
:102B2000AD012115310509F1D901F3CF9D01DA017C
:102B30003383228360817181860F971F82179307E9
:102B400069F4EC0128813981260F371F2E5F3F4F32
:102B5000318320838A819B8193838283452B29F44F
:102B6000F093BA02E093B90242C01396FC93EE933D
:102B70001297ED01499159919E01240F351FE217DB
:102B8000F30771F480819181840F951F029611964D
:102B90009C938E938281938113969C938E9312972C
:102BA000E0E0F0E0D80112968D919C911397009788
:102BB00019F0F8018C01F6CF8D919C9198012E5F50
:102BC0003F4F820F931F2091B7023091B802281710
:102BD000390769F4309729F41092BA021092B902B9
:102BE00002C0138212821093B8020093B702DF91E1
:102BF000CF911F910F91089581E090E0F8940C948B
:102C00001116FB01DC018D91019080190110D9F39F
:102C1000990B0895FB01DC0101900D920020E1F772
:062C20000895F894FFCFB7
:102C260001FFFFFFFFFFFFFFFF07000E00C80000C8
:102C36000004000000BB02800000000000980201B2
:102C4600023002DF0261023F0253020D0A006C6F7E
:102C560067006673720073727600726F6D00686546
:062C66006C70002000006C
:103800000C94341C0C94511C0C94511C0C94511CA1
:103810000C94511C0C94511C0C94511C0C94511C74
:103820000C94511C0C94511C0C94511C0C94511C64
:103830000C94511C0C94511C0C94511C0C94511C54
:103840000C94511C0C94511C0C94511C0C94511C44
:103850000C94511C0C94511C0C94511C0C94511C34
:103860000C94511C0C94511C11241FBECFEFD4E0BA
:10387000DEBFCDBF11E0A0E0B1E0E4EAFFE302C0AB
:1038800005900D92A230B107D9F712E0A2E0B1E0A5
:1038900001C01D92AD30B107E1F70E94361D0C94B6
:1038A000D01F0C94001C982F9595959595959595FE
:1038B000905D8F708A307CF0282F295A8091C0004B
:1038C00085FFFCCF9093C6008091C00085FFFCCFA0
:1038D0002093C6000895282F205DF0CF982F809167
:1038E000C00085FFFCCF9093C6000895EF92FF9231
:1038F0000F931F93EE24FF2487018091C00087FD62
:1039000017C00894E11CF11C011D111D81E4E8168B
:1039100082E4F8068FE0080780E0180770F3E09172
:103920000401F091050109958091C00087FFE9CF5E
:103930008091C6001F910F91FF90EF9008950E9413
:10394000761C982F8091C00085FFFCCF9093C60015
:1039500091362CF490330CF09053892F089597559D
:10396000892F08951F930E949F1C182F0E949F1C4F
:103970001295107F810F1F910895882351F0982F81
:1039800091508091C00087FFFCCF8091C6009923A1
:10399000B9F708951F93182F0E94761C803249F0C2
:1039A000809103018F5F809303018530C1F01F91E7
:1039B00008958091C00085FFFCCF84E18093C6000C
:1039C0008091C00085FFFCCF1093C6008091C0009D
:1039D00085FFFCCF80E18093C6001F910895E091A0
:1039E0000401F091050109951F9108950E94761C2C
:1039F000803241F0809103018F5F80930301853015
:103A000081F008958091C00085FFFCCF84E1809310
:103A1000C6008091C00085FFFCCF80E18093C60086
:103A20000895E0910401F09105010995089510921F
:103A30000A028823D1F090E040E951E02D9A28EE67
:103A400033E0FA013197F1F721503040D1F72D984A
:103A500028EE33E0FA013197F1F721503040D1F7E9
:103A60009F5F981758F380930A0208953F924F92F0
:103A70005F926F927F928F929F92AF92BF92CF92FE
:103A8000DF92EF92FF920F931F93CF93DF9300008B
:103A900083E38093C4001092C50088E18093C10045
:103AA00086E08093C2005098589A259A81E00E943F
:103AB000171D44E1F42E3EE1E32E24E9D22E96E0D8
:103AC000C92E80E1B82EAA24A39401E4902E16E515
:103AD000812EB2E57B2EA0E26A2EF9E45F2EE3E5AB
:103AE0004E2E70E5372E0E94761C8033B1F1813363
:103AF00009F441C0803409F479C0813409F48CC0E0
:103B0000823471F1853409F47BC0803531F182351E
:103B100021F1813511F1853509F48DC0863509F41F
:103B20009DC0843609F4AEC0843709F41BC18537C3
:103B300009F485C1863709F47AC0809103018F5F4B
:103B400080930301853079F6E0910401F09105013D
:103B500009950E94761C803351F60E94F61CC3CF53
:103B600093E18091C00087FFFCCF8091C60099232C
:103B7000A1F39150F6CF0E94761C8032F1F680912D
:103B8000C00085FFFCCFF092C6008091C00085FF89
:103B9000FCCF9092C6008091C00085FFFCCF809240
:103BA000C6008091C00085FFFCCF7092C600809156
:103BB000C00085FFFCCF6092C6008091C00085FFE9
:103BC000FCCF5092C6008091C00085FFFCCF409290
:103BD000C6008091C00085FFFCCF3092C600809166
:103BE000C00085FFFCCFB092C6007DCF0E94761C3E
:103BF000863808F4B2CF0E94761C0E94F61C73CF60
:103C000094E08091C00087FFFCCF8091C60099238B
:103C100009F4A3CF9150F5CF0E94761C8038D1F0E3
:103C2000813861F1823809F499C0883979F080E0EF
:103C30000E94CA1C58CF0E94761C809306010E94E5
:103C4000761C809307010E94F61C4DCF83E00E94F2
:103C5000CA1C49CF82E00E94CA1C45CF0E94761C34
:103C6000803309F486C192E08091C00087FFFCCFC9
:103C70008091C6009923D9F29150F6CF81E00E943D
:103C8000CA1C31CF0E94761C809309020E94761CC8
:103C90008093080280910C028E7F80930C020E9418
:103CA000761C853429F480910C02816080930C028B
:103CB0008091080290910902892B89F000E010E0C0
:103CC0000E94761CF801E85FFE4F80830F5F1F4F54
:103CD00080910802909109020817190788F30E9441
:103CE000761C803209F029CF80910C0280FFD1C070
:103CF0004091060150910701440F551F5093070151
:103D000040930601A0910802B09109021097C9F0F2
:103D1000E8E0F1E09A01BD016E0F7F1FF999FECF37
:103D200032BD21BD819180BDFA9AF99A2F5F3F4F34
:103D3000E617F70799F74A0F5B1F50930701409367
:103D400006018091C00085FFFCCFF092C6008091F3
:103D5000C00085FFFCCFB092C600C5CE80E10E94B6
:103D6000CA1CC1CE0E94761C809309020E94761C58
:103D7000809308028091060190910701880F991F96
:103D800090930701809306010E94761C853409F404
:103D90007AC080910C028E7F80930C020E94761C68
:103DA000803209F0A0CE8091C00085FFFCCFF09258
:103DB000C600A0910802B09109021097B9F1809154
:103DC0000C02182F1170082F0270E0910601F0917B
:103DD00007019F012F5F3F4FB90140E050E01123E1
:103DE000B1F4002339F494918091C00085FFFCCF99
:103DF0009093C6004F5F5F4FCB010196F9014A17C0
:103E00005B0780F4BC012F5F3F4F112351F3F999F9
:103E1000FECFF2BDE1BDF89A90B58091C00085FF5C
:103E2000FCCFE6CF70930701609306018091C0003C
:103E300085FDD9CE8091C00085FFF8CFD4CE0E94F9
:103E4000761C803209F079CE8091C00085FFFCCFCE
:103E5000F092C6008091C00085FFFCCFE092C600C2
:103E60008091C00085FFFCCFD092C6008091C00039
:103E700085FFFCCFC092C6008091C00085FFFCCFBB
:103E8000B092C60030CE80910C02816080930C020B
:103E900085CF809107018823880F880B8A21809322
:103EA0000B028091060190910701880F991F909352
:103EB0000701809306018091080280FF09C080916C
:103EC00008029091090201969093090280930802DA
:103ED000F894F999FECF1127E0910601F0910701BE
:103EE000C8E0D1E08091080290910902103091F46D
:103EF0000091570001700130D9F303E0009357009F
:103F0000E8950091570001700130D9F301E1009369
:103F10005700E89509901990009157000170013001
:103F2000D9F301E000935700E8951395103498F009
:103F300011270091570001700130D9F305E000937B
:103F40005700E8950091570001700130D9F301E165
:103F500000935700E8953296029709F0C7CF1030CA
:103F600011F00296E5CF11248091C00085FFE9CEC3
:103F7000ECCE0E94761C0E94761C182F0E94761CA4
:103F8000112351F0113021F086E00E94CA1CABCD04
:103F900084E90E94CA1CA7CD8EE10E94CA1CA3CD51
:043FA000F894FFCFC3
:023FA40080009B
:0400000300003800C1
:00000001FF
