:1000000068C2000097C2000095C2000093C20000C1
:1000100091C200008FC200008DC200008BC20000A0
:1000200089C2000087C2000085C2000083C20000B0
:1000300081C200007FC200007DC200007BC20000C0
:1000400079C200000C94490975C2000073C2000017
:1000500071C200006FC200006DC200000C947808ED
:1000600069C200000C944208E4C7000063C20000AB
:1000700061C200000C9476095DC200005BC2000002
:100080000C941C0957C2000055C2000053C2000066
:1000900051C200004FC200004DC200004BC2000020
:1000A00049C2000047C200000C94EF0843C20000A0
:1000B00041C200003FC200003DC200000C94C208D3
:1000C00039C2000037C2000035C2000033C2000050
:1000D00031C200002FC200002DC200002BC2000060
:1000E00029C20000FF030204F103F503F9033904F8
:1000F00006040A041004140418041E04220426042E
:1001000039042C0430043404636D64203E20002D37
:100110002D2D003D007372765F696E695F636C72AE
:10012000003D006C6F675F6673725F6576656E7425
:10013000003D006C6F675F6673725F737461747308
:10014000003D006673725F696E76003D00667372F3
:100150005F6869003D006673725F6C6F003D00660A
:1001600073725F736C6F77003D006673725F6661D8
:100170007374003D00666F726D00726F6D202F2FDB
:10018000207265706F72742073657474696E677322
:10019000006C6F6720667372206F6666202F2F20B9
:1001A00064697361626C6520616C6C206673722097
:1001B0007265706F727473206F6620617667006C71
:1001C0006F6720667372207374617473202F2F2001
:1001D000656E61626C6520706572696F6469632029
:1001E0007265706F7274206F6620617667006C6F45
:1001F0006720667372206576656E74202F2F2065E8
:100200006E61626C65206F6E2D64656D616E642039
:100210007265706F7274206F66206176670073720A
:100220007620636C72204E4E202F2F20726F7461E7
:10023000746520636C65616E657220736572766F9C
:1002400020746F204E4E206465677265657300668A
:100250007372206869204E4E202F2F207365742002
:10026000617667206576656E7420757070657220A2
:100270007472696767657220746F204E4E006673F2
:1002800072206C6F204E4E202F2F207365742061DA
:100290007667206576656E74206C6F776572207462
:1002A00072696767657220746F204E4E00667372C4
:1002B00020736C6F77204E4E202F2F207365742093
:1002C00061766720736C6F77207261746520746F3C
:1002D000204E4E006673722066617374204E4E206D
:1002E0002F2F2073657420617667206661737420F8
:1002F0007261746520746F204E4E002D2D2D68653F
:100300006C702D2D2D006F6666006576656E74002D
:1003100073746174730066737200696E7600686945
:10032000006C6F00736C6F77006661737400636CB0
:100330007200696E6900636C720000000A0B0209AA
:100340000C0D0E080703040100000000000000006F
:10035000000000000000000000000000000000009D
:10036000000000000000121110000000000000005A
:10037000000000000000000000000000000000007D
:100380006D616B653A204175672020312032303134
:10039000372031333A33393A323300432569204626
:1003A0003D2534692F252D326920533D2534692F91
:1003B000252D326920443D252D336920007C200005
:1003C0004240252D386C75207C2000503D252D3471
:1003D0006C75207C20004540252D386C75207C20D4
:1003E0000043256920533D2534692F252D326900AE
:1003F0007C20004C3D252D346C75207C2000544021
:10040000252D386C75207C2000636D643A203F00F8
:1004100000002200250028002B002E0031003400AF
:1004200002010000050108010B0100002100240069
:1004300027002A002D0030003300010100000401D4
:1004400007010A0105050505070508080808020255
:1004500002020A0A0808040404040101010101015E
:1004600001010303030303030303040707070C0C41
:100470000C0C0C0C0C0C0202020206060606060608
:1004800006060B0B0B0B0B0B0B0B010210202008AD
:1004900008102040102040800201020108040201DF
:1004A000010204081020408080402010080402014E
:1004B00080040201804020100804020108040201A7
:1004C000010204081020408001020408102040802E
:1004D000221111241FBECFEFD1E2DEBFCDBF00E05D
:1004E0000CBF12E0A0E0B2E0E4E7FFE200E00BBFE7
:1004F00002C007900D92A034B107D9F724E0A0E420
:10050000B2E001C01D92A432B207E1F712E0C9E6E1
:10051000D2E000E006C021970109802FFE010E9471
:100520006F16C836D10780E00807A9F70E94FA0ABB
:100530000C94B81765CDCF92DF92EF92FF920F9394
:100540001F93CF93DF936C017A018B01C0E0D0E061
:10055000CE15DF0589F0D8016D918D01D601ED91A1
:10056000FC910190F081E02DC6011995892B11F4C1
:100570007E0102C02196ECCFC701DF91CF911F9180
:100580000F91FF90EF90DF90CF900895089580E055
:1005900090E00895FC01538D448D252F30E0842F89
:1005A00090E0821B930B541710F0CF96089501979B
:1005B0000895FC01918D828D981761F0828DDF0185
:1005C000A80FB11D5D968C91928D9F5F9F73928F46
:1005D00090E008958FEF9FEF0895FC01918D828D3B
:1005E000981731F0828DE80FF11D858D90E0089508
:1005F0008FEF9FEF0895FC01918D228D892F90E060
:10060000805C9F4F821B91098F739927089587EE15
:1006100092E0F1DF21E0892B09F420E0822F089598
:10062000FC01848DDF01A80FB11DA35ABF4F2C918F
:10063000848D90E001968F739927848FA689B7895E
:100640002C93A089B1898C9180648C93938D848D37
:10065000981306C00288F389E02D80818F7D808306
:100660000895EF92FF920F931F93CF93DF93EC01C6
:1006700081E0888F9B8D8C8D981305C0E889F9895E
:10068000808185FD23C0F62E0B8D10E00F5F1F4F7C
:100690000F731127E02E8C8DE8120BC00FB607FCEC
:1006A000FACFE889F989808185FFF5CFCE01B8DFDF
:1006B000F2CF8B8DFE01E80FF11DE35AFF4FF08260
:1006C0000B8FEA89FB898081806207C0EE89FF89F0
:1006D0006083E889F98980818064808381E090E08B
:1006E000DF91CF911F910F91FF90EF900895CF93DD
:1006F000DF93EC01888D8823C1F0EA89FB89808132
:1007000085FD05C0A889B9898C9186FD0EC00FB6FC
:1007100007FCF5CF808185FFF2CFA889B9898C913C
:1007200085FFEDCFCE017CDFE8CFDF91CF9108953B
:1007300080E090E0892B19F06ADF811125C080E00C
:1007400090E0892B41F080E090E0892B21F00E941D
:10075000000081111CC080E090E0892B41F080E016
:1007600090E0892B21F00E940000811113C080E0ED
:1007700090E0892BA1F080E090E0892B81F00E942D
:10078000000081110AC008950E940000D8CF0E9485
:100790000000E1CF0E940000EACF0C940000089511
:1007A000362F90E0FC01E65CFC4F4491FC01E657DB
:1007B000FB4F2491FC01EC5BFB4F9491992309F4CE
:1007C0006BC0442309F455C050E0FA013197E2317F
:1007D000F10508F04EC08827EE58FF4F8F4F0C945C
:1007E0006F16809180008F7707C0809180008F7D89
:1007F00003C080918000877F809380003AC084B5D9
:100800008F7702C084B58F7D84BD33C08091B000E6
:100810008F7703C08091B0008F7D8093B00029C096
:10082000809190008F7707C0809190008F7D03C0EA
:1008300080919000877F809390001BC08091A000E2
:100840008F7707C08091A0008F7D03C08091A000AA
:10085000877F8093A0000DC0809120018F7707C013
:10086000809120018F7D03C080912001877F80933C
:100870002001E92FF0E0EE0FFF1FE05FFB4FA59195
:10088000B4918FB7F894EC91311103C020952E23C9
:1008900001C02E2B2C938FBF08952FB7F894609131
:1008A0004A0270914B0280914C0290914D022FBFF1
:1008B0000895CF92DF92EF92FF920F931F93CF9301
:1008C000DF936C018B017A01EC01CF5BDD4F8881F6
:1008D00087FF04C0FB011182108224C08CE08C9D34
:1008E00090018D9D300D11248881A901480F511D63
:1008F00087FD5A958091140490E04817590794F4A5
:100900008881A901480F511D87FD5A95CA01FA0136
:10091000EE0FFF1F8E0F9F1FFC01EC57FC4F8081D5
:1009200086FD19C088818F5F88838CE08C9D900143
:100930008D9D300D11248881A901480F511D87FD1F
:100940005A958091140490E048175907B4F48881AF
:100950008C303CF112C08881280F311D87FD3A95FB
:10096000F901EE0FFF1F2E0F3F1FF901EC57FC4F4F
:10097000808160E08F7314DFD5CFF8018081918191
:10098000049680349C4918F480E49CE904C0F80182
:10099000808191810496F701918380838FEF888312
:1009A00044C0F801408151818881B901680F711DEF
:1009B00087FD7A95CB01FB01EE0FFF1F8E0F9F1F66
:1009C000FC01EC57FC4F81819281840F951FF70148
:1009D000918380838881A901480F511D87FD5A9515
:1009E000CA01FA01EE0FFF1F8E0F9F1FFC01EC578B
:1009F000FC4F808186FF19C08881280F311D87FD3B
:100A00003A95F901EE0FFF1F2E0F3F1FF901EC572A
:100A1000FC4F808161E08F73DF91CF911F910F9127
:100A2000FF90EF90DF90CF90BBCEDF91CF911F91E1
:100A30000F91FF90EF90DF90CF900895CF93C091EA
:100A4000A9026C2F8DE0ACDE80910002882311F0AA
:100A500081E0C8276C2F8CE0CF91A2CECF93DF939B
:100A60001F921F92CDB7DEB742E050E062E070E027
:100A7000CE0101960E94D01589819A81909312022D
:100A80008093110242E050E064E070E0CE010196F4
:100A90000E94D015209111023091120289819A8111
:100AA000820F931F90931B0480931A0442E050E03E
:100AB00068E070E08BE092E00E94D01542E050E0E8
:100AC00066E070E089E092E00E94D01541E050E0DD
:100AD0006AE070E080E092E00E94D01541E050E0D2
:100AE0006CE070E084EA92E00E94D01541E050E0B2
:100AF0006BE070E080EC92E00E94D0150F900F90B8
:100B0000DF91CF9108958BEF92E049D484ED92E08C
:100B100046D48DEA92E043D48EE792E040D48FE44D
:100B200092E03DD48EE192E03AD48EEE91E037D45B
:100B30008FEB91E034D481E991E031D48AE791E000
:100B40002EC40F931F93CF93DF931F92CDB7DEB7C1
:100B50008B01039714F4D7DF3DC066E173E0F80121
:100B6000828193810E94CA12892BA9F7F80104811E
:100B7000158160E173E0C8010E94CA12892B39F423
:100B800081E0898341E050E06BE070E01FC06AE0E3
:100B900073E0C8010E94CA12892B19F481E089838D
:100BA00011C066E073E0C8010E94CA12892B91F45B
:100BB000198241E050E06BE070E0CE0101960E94A6
:100BC000E015198241E050E06CE070E0CE01019642
:100BD0000E94E0150F90DF91CF911F910F91089522
:100BE0000E94A417CF92DF92EF92FF920F931F9370
:100BF000CF93DF931F921F92CDB7DEB78B01039780
:100C000014F481DF60C04AE050E060E070E0F80179
:100C1000848195810E949A116B017C01F801028107
:100C2000138169E273E0C8010E94CA12892B59F44A
:100C3000C6010297079738F4DA82C98242E050E091
:100C400062E070E03CC064E273E0C8010E94CA1236
:100C5000892B59F4C6010397079738F4DA82C982C1
:100C600042E050E064E070E02AC061E273E0C80155
:100C70000E94CA12892B39F4DA82C98242E050E01C
:100C800066E070E01CC06EE173E0C8010E94CA1209
:100C9000892B39F4DA82C98242E050E068E070E0E2
:100CA0000EC06AE173E0C8010E94CA12892B09F0E4
:100CB000A8CFDA82C98241E050E06AE070E0CE015C
:100CC00001960E94E0150F900F90DF91CF911F9138
:100CD0000F91FF90EF90DF90CF9008958F929F92A9
:100CE000AF92BF92EF92FF920F931F93CF93DF9338
:100CF0001F921F92CDB7DEB78B01039714F403DF69
:100D000042C04AE050E060E070E0F80184819581E3
:100D10000E949A114B015C01F801E280F38066E3C6
:100D200073E0C7010E94CA12892B39F4F5EB8F16C4
:100D3000910418F4C401BBD326C062E373E0C70179
:100D40000E94CA12892BD9F66EE273E0F801848101
:100D500095810E94CA12892B91F64AE050E060E02A
:100D600070E0F801868197810E949A11653B7105B8
:100D700030F67A83698342E050E06DE070E0CE01A6
:100D800001960E94E0150F900F90DF91CF911F9177
:100D90000F91FF90EF90BF90AF909F908F9008952C
:100DA000CF93DF93CDB7DEB72F970FB6F894DEBFA2
:100DB0000FBECDBF42E050E060E070E0CE010B9688
:100DC0000E94D01585E791E0C9D283E791E0C6D2B1
:100DD0008B859C85F0D242E050E062E070E0CE016D
:100DE00009960E94D0158AE691E0B8D288E691E093
:100DF000B5D289859A85DFD242E050E064E070E0A8
:100E0000CE0107960E94D0158FE591E0A7D28DE51F
:100E100091E0A4D28F819885CED242E050E066E086
:100E200070E0CE0105960E94D01586E591E096D23D
:100E300084E591E093D28D819E81BDD242E050E065
:100E400068E070E0CE0103960E94D0158DE491E039
:100E500085D28BE491E082D28B819C81ACD241E03F
:100E600050E06AE070E0CE010F960E94D01583E456
:100E700091E074D281E491E071D28F8590E09BD2B1
:100E800041E050E06BE070E0CE010E960E94D0157C
:100E900083E391E063D281E391E060D28E8590E0BC
:100EA0008AD241E050E06CE070E0CE010D960E94E5
:100EB000D01583E291E052D281E291E04FD28D854C
:100EC00090E079D242E050E06DE070E0CE01019612
:100ED0000E94D01585E191E041D283E191E03ED2BC
:100EE00089819A8168D22F960FB6F894DEBF0FBE23
:100EF000CDBFDF91CF91089553CFCF92DF92EF9284
:100F0000FF920F931F93CF93DF938C017B0186E0B9
:100F100090E00E947716EC019093C4028093C30284
:100F2000F80101900020E9F7CF01801B910B0E948E
:100F300077166C01B8010E94B117F80101900020EA
:100F4000E9F73197E01BF10BEC0DFD1D1082D98202
:100F5000C882FB82EA8280914E0290914F029D836B
:100F60008C83D0934F02C0934E02DF91CF911F919B
:100F70000F91FF90EF90DF90CF900895DC01ED91FD
:100F8000FC910190F081E02D19946115710579F0C3
:100F9000FB0101900020E9F73197AF01461B570B89
:100FA000DC01ED91FC910280F381E02D199480E049
:100FB00090E008956BE272E0E8CFE7CF0F931F93C4
:100FC000CF93DF93CDB7DEB7E2970FB6F894DEBFCD
:100FD0000FBECDBF8091E5029091E602EBDF6FE09E
:100FE00071E0CE0101960E94D3120091E5021091AA
:100FF000E602BE016F5F7F4FC801C7DFC801DADFBD
:1010000068E071E0CE0101960E94D312BE016F5FCD
:101010007F4F8091E5029091E602CFDFE2960FB616
:10102000F894DEBF0FBECDBFDF91CF911F910F911E
:1010300008951F920F920FB60F9211240BB60F92C4
:101040002F933F934F935F936F937F938F939F93D0
:10105000AF93BF93EF93FF9387EE92E0E1DAFF91B6
:10106000EF91BF91AF919F918F917F916F915F9120
:101070004F913F912F910F900BBE0F900FBE0F908D
:101080001F9018951F920F920FB60F9211240BB656
:101090000F922F938F939F93EF93FF93E091F7021B
:1010A000F091F8028081E091FD02F091FE0282FD54
:1010B00012C09081809100038F5F8F732091010394
:1010C000821751F0E0910003F0E0E951FD4F958F58
:1010D0008093000301C08081FF91EF919F918F91D8
:1010E0002F910F900BBE0F900FBE0F901F90189571
:1010F0001F920F920FB60F9211242F933F938F934D
:101100009F93AF93BF9380914A0290914B02A0911D
:101110004C02B0914D023091490223E0230F2D374C
:1011200020F40196A11DB11D05C026E8230F0296EB
:10113000A11DB11D2093490280934A0290934B0256
:10114000A0934C02B0934D028091450290914602CB
:10115000A0914702B09148020196A11DB11D809354
:10116000450290934602A0934702B0934802BF9174
:10117000AF919F918F913F912F910F900FBE0F9044
:101180001F9018951F920F920FB60F9211240BB655
:101190000F922F933F934F935F936F937F938F9310
:1011A0009F93AF93BF93EF93FF9348E251E064E2C4
:1011B00071E080E090E07DDBFF91EF91BF91AF9116
:1011C0009F918F917F916F915F914F913F912F915F
:1011D0000F900BBE0F900FBE0F901F9018951F928F
:1011E0000F920FB60F9211240BB60F922F933F93CD
:1011F0004F935F936F937F938F939F93AF93BF931F
:10120000EF93FF9348EA50E064EA70E083E090E0F7
:1012100050DBFF91EF91BF91AF919F918F917F91A3
:101220006F915F914F913F912F910F900BBE0F9057
:101230000FBE0F901F9018951F920F920FB60F922E
:1012400011240BB60F922F933F934F935F936F939D
:101250007F938F939F93AF93BF93EF93FF9348E94F
:1012600050E064E970E082E090E023DBFF91EF91D1
:10127000BF91AF919F918F917F916F915F914F91AE
:101280003F912F910F900BBE0F900FBE0F901F90AC
:1012900018951F920F920FB60F9211240BB60F9252
:1012A0002F933F934F935F936F937F938F939F936E
:1012B000AF93BF93EF93FF9348E850E064E870E08A
:1012C00081E090E0F6DAFF91EF91BF91AF919F91AD
:1012D0008F917F916F915F914F913F912F910F90DF
:1012E0000BBE0F900FBE0F901F9018951F920F927C
:1012F0000FB60F9211240BB60F922F933F938F933B
:10130000EF93FF9380914002209178003091790013
:10131000E82FF0E0EE0FFF1FEF5FFD4F31832083DA
:101320008F5F843018F48093400202C01092400214
:1013300080914002806480937C0080917A00806478
:1013400080937A00FF91EF918F913F912F910F90B1
:101350000BBE0F900FBE0F901F9018950F931F9309
:10136000CF93DF938C01C0E0D0E0F801EC0FFD1FBC
:101370006491662371F0E091E702F091E802019038
:10138000F081E02D87EE92E01995892B11F02196DE
:10139000ECCFCE01DF91CF911F910F910895CF93A4
:1013A000DF93DCDFEC0187EE92E004DE8C0F9D1F03
:1013B000DF91CF9108958F929F92AF92BF92CF927B
:1013C000DF92EF92FF920F931F93CF93DF93CDB7EE
:1013D000DEB7A1970FB6F894DEBF0FBECDBF6C018C
:1013E000990FEE08FF08F7FE2BC06DE287EE92E042
:1013F000C5DD8C0122273327A9012C193D094E098F
:101400005F0919A2CE0181967C019AE0892E912C68
:10141000A12CB12CCA01B901A50194010E940616A4
:10142000605DF70162937F0121153105410551058A
:1014300089F7BF0187EE92E0A8DD080F191F1FC0D2
:10144000A701960119A28E010F5D1F4F8AE0C82ED9
:10145000D12CE12CF12CCA01B901A70196010E94FF
:101460000616605DF80162938F0121153105410573
:10147000510589F7BF0187EE92E087DD8C0187EE89
:1014800092E098DD800F911FA1960FB6F894DEBF11
:101490000FBECDBFDF91CF911F910F91FF90EF90C5
:1014A000DF90CF90BF90AF909F908F900895CF9294
:1014B000DF92EF92FF92DC01A03282E0B8070CF0DD
:1014C0003EC0B7FD06C0A53BB1052CF0A4EBB0E0D3
:1014D00002C0A0E0B0E08091180428E830E0690183
:1014E000C81AD10887FDD394CC0CDD1CCC0CDD1CB4
:1014F0000D2C000CEE08FF088091190428E532E05D
:10150000281B310987FD3395220F331F220F331F0C
:10151000A901330F660B770B9A01AB012C193D091A
:101520004E095F090E944E1624EB30E040E050E087
:101530000E942816C20ED31EE41EF51ED6019091FD
:101540001704903398F58091180448E850E0481B40
:10155000510987FD5395440F551F440F551FA4177C
:10156000B5078CF08091190428E532E0281B310979
:1015700087FD3395220F331F220F331FAD012A172A
:101580003B070CF4A90142505109440F551F2FB7D6
:10159000F894892F90E0FC01EE0FFF1F8E0F9F1F24
:1015A000FC01EC57FC4F528341832FBFFF90EF901B
:1015B000DF90CF90089590E0FC01E657FB4F249117
:1015C000FC01EC5BFB4F8491882399F090E0880F3D
:1015D000991FFC01E65DFB4FA591B491FC01E05F12
:1015E000FB4F859194918FB7F894EC91E22BEC939B
:1015F0008FBF0895CF93DF93CDB7DEB7C758D1091A
:101600000FB6F894DEBF0FBECDBF789484B582606C
:1016100084BD84B5816084BD85B5826085BD85B596
:10162000816085BD80916E00816080936E00109214
:10163000810080918100826080938100809181008F
:101640008160809381008091800081608093800020
:101650008091B10084608093B1008091B00081607E
:101660008093B0008091910082608093910080917E
:1016700091008160809391008091900081608093BF
:1016800090008091A10082608093A1008091A100D0
:1016900081608093A1008091A00081608093A00070
:1016A00080912101826080932101809121018160DC
:1016B000809321018091200181608093200180919D
:1016C0007A00846080937A0080917A0082608093AF
:1016D0007A0080917A00816080937A0080917A000C
:1016E000806880937A001092C100E091F702F09137
:1016F000F80282E08083E091F302F091F40210821C
:10170000E091F502F091F60280E180831092FF02F1
:10171000E091FB02F091FC0286E08083E091F90207
:10172000F091FA02808180618083E091F902F0916A
:10173000FA02808188608083E091F902F091FA02D8
:10174000808180688083E091F902F091FA028081C3
:101750008F7D808387EE92E02DDC80E893E01FDEB2
:1017600042E050E060E070E0CE01CD960E94D015DE
:101770008DAD9EAD089709F460C084E090E09A8337
:10178000898342E050E062E070E0CE0101960E9461
:10179000E01507E010E01A83098342E050E064E0BE
:1017A00070E0CE0101960E94E0151A83098342E0A1
:1017B00050E066E070E0CE0101960E94E0158EE0F8
:1017C00090E09A83898342E050E068E070E0CE01C7
:1017D00001960E94E01581E0898341E050E06AE0D3
:1017E00070E0CE0101960E94E015198241E050E0C0
:1017F0006BE070E0CE0101960E94E015198241E095
:1018000050E06CE070E0CE0101960E94E0151A8273
:10181000198242E050E06DE070E0CE0101960E9436
:10182000E01588E090E09A83898342E050E060E030
:1018300070E0CE0101960E94E015B2DA0FD987EE72
:1018400092E09093E6028093E50285EC92E090931B
:10185000E4028093E30210924F0210924E0261EA7A
:1018600075E08EE292E049DB62EF75E082E392E0A0
:1018700044DB6EE676E086E392E03FDB6CE777E000
:101880008AE392E03ADB9ADB10927C0080917C0044
:10189000806480937C0010927A0080917A00806846
:1018A00080937A0080917A00886080937A0080919A
:1018B0007A00856080937A0010927B0080917B0093
:1018C00080937B0010927E00789480917A008064EF
:1018D00080937A00B3D88DE06EDE8CE06CDE809170
:1018E0001704803308F050C08BE065DE8091170448
:1018F000E82FF0E09F01220F331FE20FF31FEC5798
:10190000FC4F9081907C9B60908310921804109201
:1019100019046CE00E9463162CE0829FB001112430
:1019200040E050E09A01260F371FF901EE0FFF1F2C
:101930002E0F3F1FF901EC57FC4F908196FD17C009
:101940004F5F5F4F4C30510569F7813009F049C452
:101950001092800082E080938100109285001092A6
:101960008400B19A80916F00826080936F00E09153
:101970001704F0E0CF01880F991FE80FF91FEC570B
:10198000FC4F80818064808342E050E06DE070E035
:10199000CE0101960E94D01589819A8188DD8E0141
:1019A000035C1F4FE1E0F2E048E952E0C158DF4F2D
:1019B00059834883CF57D04080E692E0E9969FAFA5
:1019C0008EAFE99720E932E0E1963FAF2EAFE19785
:1019D00040E552E0ED965FAF4EAFED9788EB92E0B9
:1019E000E3969FAF8EAFE39750E8E52E52E0F52ED9
:1019F000A0EBB2E0E796BFAFAEAFE79720E732E0EB
:101A0000CE57DF4F39832883C258D040EF96BFAFFF
:101A1000AEAFEF976C0180E992E0EB969FAF8EAF8F
:101A2000EB97A8E9B2E0E596BFAFAEAFE597F894C3
:101A3000808191818F3FBFEF9B0739F022242A9448
:101A4000322C3182208221E001C020E078942223D0
:101A500009F4E3C0E996AEADBFADE9974D915D9154
:101A60006D917C914C01092E000CAA08BB08480D11
:101A7000591D6A1D7B1DE596AEADBFADE5972D9155
:101A80003C9111972901330F6608770844195509CD
:101A900066097709709011021A012B01072C04C006
:101AA00055944794379427940A94D2F72D923C92F8
:101AB000E996AEADBFADE9974D935D936D937C9381
:101AC0001397ED96AEADBFADED974D915D916D91D4
:101AD0007C919C012219330937FF03C03195219570
:101AE00031091901330F44085508420D531D641D77
:101AF000751DEB96AEADBFADEB972D913C91119757
:101B00001901330F4408550842195309640975092E
:101B10001A012B0104C055944794379427947A9462
:101B2000D2F7CC57DF4F288239824A825B82C45871
:101B3000D0402D923C92ED96AEADBFADED974D935A
:101B40005D936D937C931397D7014D915D916D914A
:101B50007C91840E951EA61EB71ED6012D913C9138
:101B60001197A901330F660B770B841A950AA60A01
:101B7000B70A20911A0424013501022E04C075947D
:101B80006794579447940A94D2F74D925C92D70188
:101B90008D929D92AD92BC921397CE57DF4FA88144
:101BA000B981C258D0404D915D916D917C9184195D
:101BB000950997FF03C09195819591094C01990F63
:101BC000AA08BB08840E951EA61EB71EEF96AEADE2
:101BD000BFADEF976D917C911197AB01770F660BBD
:101BE000770B14012501241A350A460A570A5201B7
:101BF000410104C0B594A794979487942A95D2F78D
:101C00008D929C92CE57DF4FA881B981C258D040A7
:101C10002D923D924D925C9213973296E5962EADA1
:101C20003FADE5972E5F3F4FE5963FAF2EAFE5976F
:101C3000E9964EAD5FADE9974C5F5F4FE9965FAFB8
:101C40004EAFE997EB968EAD9FADEB970296EB9674
:101C50009FAF8EAFEB97ED96AEADBFADED971496FF
:101C6000ED96BFAFAEAFED97B2E0CB0ED11C24E046
:101C7000E20EF11CEF964EAD5FADEF974E5F5F4FFA
:101C8000EF965FAF4EAFEF97CE57DF4F88819981C8
:101C9000C258D0400496CE57DF4F99838883C258EC
:101CA000D04092E0E930F90709F0C1CE30EBA32E25
:101CB00032E0B32E68EB72E0E8E9F2E040E050E099
:101CC00080E090E021913191DB01CD90DD90BD016C
:101CD000D501ED90FD905D012C193D0937FF03C042
:101CE000319521953109820F931F4E0D5F1DB2E092
:101CF000E03AFB0739F7841B950B209109023091DC
:101D00000A0240910B0250910C02841795070CF4C3
:101D10008AC04091A902411190C281E08093A9023A
:101D20000E941E050E944D046093A0027093A102C0
:101D30008093A2029093A3028091A402882309F4C5
:101D4000CAC00E944D049F938F937F936F9380EC42
:101D500093E09F938F931F930F9356D4B80187EE10
:101D600092E02BD90FB6F894DEBF0FBECDBF90EB3B
:101D7000C92E92E0D92E28EBA22E22E0B22EE12C21
:101D8000F12CC158DF4FA881B981CF57D0408D9138
:101D90009D91C158DF4FB983A883CF57D040E196BA
:101DA000EEADFFADE197608171813296E196FFAFB4
:101DB000EEAFE197D5012D913D915D01D601EC91FA
:101DC0001196FC91B2E0CB0ED11CAC01421B530B1F
:101DD0005F934F93FF93EF933F932F937F936F9373
:101DE0009F938F93FF92EF92ABE9B3E0BF93AF93D2
:101DF0001F930F9309D4B80187EE92E0DED88DEBE4
:101E000093E0ACDAFFEFEF1AFF0A0FB6F894DEBFEB
:101E10000FBECDBF34E0E316F10409F0B2CF87EE78
:101E200092E0C8D858C0281739070CF454C08091E4
:101E3000A902882309F44FC01092A9020E941E052E
:101E40000E944D046093A5027093A6028093A7029E
:101E50009093A8028091A402882309F43CC00E94B8
:101E60004D049F938F937F936F9386ED93E09F93A1
:101E70008F931F930F93C8D3B80187EE92E09DD83C
:101E80008091A5029091A602A091A702B091A8020C
:101E90004091A0025091A1026091A2027091A30210
:101EA000841B950BA60BB70BBF93AF939F938F9398
:101EB0008BEC93E09F938F931F930F93A5D3B8015F
:101EC00087EE92E07AD887EE92E074D80FB6F89455
:101ED000DEBF0FBECDBF8091AE029091AF020196E2
:101EE000883E53E095072CF49093AF028093AE02A6
:101EF00026C01092AF021092AE020E942E050E94E0
:101F00004D04C090AA02D090AB02E090AC02F090D9
:101F1000AD021B012C012C183D084E085F082092D1
:101F20000D0230920E0240920F0250921002609306
:101F3000AA027093AB028093AC029093AD028091A1
:101F4000C1029091C20201969093C2028093C10295
:101F50002091150430911604821793070CF496C053
:101F60001092C2021092C10220910D0230910E0215
:101F700040910F025091100260E472E48FE090E013
:101F800067D630931604209315048091C0028823ED
:101F900009F47CC00E944D049F938F937F936F93AD
:101FA0008EEF93E09F938F931F930F932DD3B801E0
:101FB00087EE92E002D8809110028F9380910F02F9
:101FC0008F9380910E028F9380910D028F9383EFF8
:101FD00093E09F938F931F930F9316D3B80187EECF
:101FE00092E00E94DD070FB6F894DEBF0FBECDBFB2
:101FF000E12CF12CE396AEADBFADE3978C91119639
:102000009C9111971296E396BFAFAEAFE397E79618
:10201000EEADFFADE797208131813296E796FFAFB5
:10202000EEAFE7973F932F939F938F93FF92EF929B
:10203000A1EEB3E0BF93AF931F930F93E5D2B80126
:1020400087EE92E00E94DD0780EF93E087D9FFEFF3
:10205000EF1AFF0A0FB6F894DEBF0FBECDBF34E013
:10206000E316F10439F687EE92E00E94DA070EC01B
:102070008091E5029091E602DC01ED91FC910284F1
:10208000F385E02D1995282F8A3071F48091E502AF
:102090009091E602DC01ED91FC910084F185E02D48
:1020A0001995892B29F79AC08091E5029091E60253
:1020B0002B3024F4283009F465C077C02D3019F096
:1020C0002E3209F072C0E091E302F091E402108236
:1020D0006BE272E00E94DD076EE372E085EC92E055
:1020E00069D29A838983FE0133966F01EE24E394CB
:1020F000F12CBE2CAF2C6EE372E080E090E05AD25F
:10210000D6018D939D936D01BEE1EB16F10439F478
:10211000E090C302F090C402C980DA8009C0EFEFFA
:10212000EE1AFE0A892B29F7F3CFF701E480F58038
:10213000E114F10499F0D7016D917C91C60108D7A3
:10214000892B99F7D7011296ED91FC911397BE0157
:102150006F5F7F4F8B2D9A2D19950FC069E074E04A
:10216000C80121D2E090E502F090E602B801C70173
:102170000E94C507C7010E94DA070E94DE0785ECAE
:1021800092E00EC068E00E94BE078091E302909149
:10219000E402F2E0853C9F0709F008F477CF01974D
:1021A0009093E4028093E30271CF622FCF57DF4F09
:1021B0002883C158D0400E94BE07E091E302F0910D
:1021C000E402CF0101969093E4028093E302CF579B
:1021D000DF4F2881C158D040208358CF0E949803F8
:1021E000E1CB823061F410929000809391001092C4
:1021F00095001092940088BB80937100B8CB833017
:1022000069F41092A00082E08093A1001092A500D2
:102210001092A40089BB80937200A9CB8111A7CB37
:102220001092200182E080932101109225011092EA
:1022300024018ABB809373009ACB281739070CF0CE
:10224000FBCD49CE1092EA021092E90288EE93E0AB
:10225000A0E0B0E08093EB029093EC02A093ED023B
:10226000B093EE028DE192E09093E8028093E70252
:1022700085EC90E09093F4028093F30284EC90E07C
:102280009093F6028093F50280EC90E09093F80230
:102290008093F70281EC90E09093FA028093F90228
:1022A00082EC90E09093FC028093FB0286EC90E03D
:1022B0009093FE028093FD0210920003109201039E
:1022C0001092020310920303809114048033A0F44F
:1022D00091E0980F909314048093170490E0FC0110
:1022E000EE0FFF1F8E0F9F1FFC01EC57FC4F88EB7A
:1022F0009BE09283818303C08FEF8093170420912A
:102300000D0230910E0240910F025091100260E4D4
:1023100072E48FE090E09CD430931604209315046F
:102320008091110290911202079690931B04809362
:102330001A0408952F923F924F925F926F927F926C
:102340008F929F92AF92BF92CF92DF92EF92FF92C5
:102350000F931F93CF93DF935C016B017A0161159B
:10236000710519F0FB0191838083E114F10429F0D8
:10237000C7010297839708F0EEC0E5012196F501A9
:102380001081812F90E0FED0892B11F05E01F5CFF6
:102390001D3229F42196F501118101E007C01B329D
:1023A00021F4E5012296F501118100E0E114F10428
:1023B00059F1F0E1EF16F10461F41033E1F4888192
:1023C0008F7D883569F519812296026070E1E72ECC
:1023D000F12C88E0E816F10439F12CF4F2E0EF1664
:1023E000F104C1F12AC08AE0E816F10479F0E0E1D5
:1023F000EE16F10411F550E1E52EF12C812C912C13
:10240000A12C68E0B62E2BC01033C9F23AE0E32EBF
:10241000F12C4CEC842E982CA82C4CE0B42E1FC030
:1024200010E3E114F104A9F698E0E92EF12C812CD7
:10243000912CA12C20E1B22E12C060E070E080E06F
:1024400090E897010F2C000C440B550BDFD349018A
:102450005A0105C0812C912CA12C80E4B82E60E09B
:1024600020E030E0A90127010F2C000C6608770856
:102470001E01E0EDE10FEA3060F08FEB810F8A3151
:1024800010F4E9EC05C08FE9810F8A3120F5E9EA03
:10249000E10F8E2F90E08E159F05ECF467FD17C0BD
:1024A00082169306A406B50688F0C301B2019FD335
:1024B0009B01AC012E0F311D411D511D21303105F5
:1024C0004105F0E85F0710F461E001C06FEF21966D
:1024D000F1011081CDCF802F8170C114D10471F032
:1024E000662329F02197F601D183C08307C001FF3D
:1024F00019C02297F601D183C08314C067FF12C0B0
:10250000811105C02FEF3FEF4FEF5FE704C020E0E0
:1025100030E040E050E882E290E090931F04809326
:102520001E0416C0882341F05095409530952195A2
:102530003F4F4F4F5F4F0CC057FF0AC082E290E001
:1025400090931F0480931E042FEF3FEF4FEF5FE740
:10255000B901CA0104C060E070E080E090E0DF9162
:10256000CF911F910F91FF90EF90DF90CF90BF9090
:10257000AF909F908F907F906F905F904F903F9023
:102580002F90089591115DC2803219F089508550C5
:10259000D0F70895FB01DC018D91059080190110A1
:1025A000D9F3990B0895FB01DC0105900D920020F1
:1025B000E1F708954CE154E000C0FA01A191B08127
:1025C000009719F41097E1F0CD01DC01CD010D90D9
:1025D000002011F4C00113C0FB012191222319F046
:1025E0002015D9F7F3CFFB012191201519F41E9284
:1025F000119606C02223C1F70D900020A1F7D0014B
:10260000FA01A193B08308950F931F93CF93DF93A3
:10261000CDB7DEB72E970FB6F894DEBF0FBECDBF95
:102620000E891F898EE08C831A8309838FEF9FE7C1
:102630009E838D83AE01465E5F4F688D798DCE019E
:10264000019611D02F813885F801E20FF31F108217
:102650002E960FB6F894DEBF0FBECDBFDF91CF919F
:102660001F910F9108952F923F924F925F926F9218
:102670007F928F929F92AF92BF92CF92DF92EF9212
:10268000FF920F931F93CF93DF93CDB7DEB72C97B5
:102690000FB6F894DEBF0FBECDBF7C016B018A017F
:1026A000FC0117821682838181FFB0C1CE010196A1
:1026B0004C01F7019381F60193FD859193FF819180
:1026C0006F01882309F49EC1853239F493FD859109
:1026D00093FF81916F01853221F4B70190E0CAD157
:1026E000E8CF512C312C20E02032A0F48B3269F05D
:1026F00030F4803259F0833269F420612CC08D327D
:1027000039F0803339F4216026C02260246023C070
:10271000286021C027FD27C030ED380F3A3078F40B
:1027200026FF06C0FAE05F9E300D1124532E13C021
:102730008AE0389E300D1124332E20620CC08E3278
:1027400021F426FD5FC1206406C08C3611F4206898
:1027500002C0883641F4F60193FD859193FF819183
:102760006F018111C1CF982F9F7D9554933028F42C
:102770000C5F1F4FFFE3F9830DC0833631F08337C1
:1027800071F0833509F057C021C0F8018081898339
:102790000E5F1F4F44244394512C540114C0380140
:1027A000F2E06F0E711CF801A080B18026FF03C01B
:1027B000652D70E002C06FEF7FEFC5012C874FD110
:1027C0002C0183012C852F77222E16C03801F2E0D0
:1027D0006F0E711CF801A080B18026FF03C0652D2B
:1027E00070E002C06FEF7FEFC5012C872DD12C0167
:1027F0002C852068222E830123FC19C0832D90E0B4
:1028000048165906A0F4B70180E290E033D13A941B
:10281000F5CFF50127FC859127FE81915F01B70176
:1028200090E028D131103A94F1E04F1A5108411448
:10283000510479F7DEC0843611F0893631F5F8019C
:1028400027FF07C060817181828193810C5F1F4FD8
:1028500008C060817181072E000C880B990B0E5FF8
:102860001F4F2F76722E97FF09C090958095709517
:1028700061957F4F8F4F9F4F2068722E2AE030E086
:10288000A40130D1A82EA81843C0853729F42F7E83
:10289000B22E2AE030E025C0F22FF97FBF2E8F360E
:1028A000C1F018F4883579F0ADC0803719F0883759
:1028B00021F0A8C02F2F2061B22EB4FE0DC08B2DA9
:1028C0008460B82E09C024FF0AC09F2F9660B92EDD
:1028D00006C028E030E005C020E130E002C020E181
:1028E00032E0F801B7FE07C0608171818281938177
:1028F0000C5F1F4F06C06081718180E090E00E5F29
:102900001F4FA401EFD0A82EA818FB2DFF777F2E14
:1029100076FE0BC0372D3E7FA51450F474FE0AC01E
:1029200072FC08C0372D3E7E05C0BA2C372D03C07F
:10293000BA2C01C0B52C34FF0DC0FE01EA0DF11D0B
:102940008081803311F4397E09C032FF06C0B39410
:10295000B39404C0832F867809F0B39433FD12C07A
:1029600030FF06C05A2CB31418F4530C5B18B32C68
:10297000B31460F4B70180E290E03C877BD0B3945D
:102980003C85F6CFB31410F43B1801C0312C34FF52
:1029900011C0B70180E390E03C876CD03C8532FFEA
:1029A00016C031FD03C088E790E002C088E590E0E2
:1029B000B7010CC0832F867851F031FF02C08BE243
:1029C00001C080E237FD8DE2B70190E053D0A5143D
:1029D00030F4B70180E390E04DD05A94F8CFAA9438
:1029E000F401EA0DF11D8081B70190E043D0A11000
:1029F000F6CF332009F45DCEB70180E290E03AD003
:102A00003A94F7CFF7018681978102C08FEF9FEF4D
:102A10002C960FB6F894DEBF0FBECDBFDF91CF91DD
:102A20001F910F91FF90EF90DF90CF90BF90AF90EC
:102A30009F908F907F906F905F904F903F902F90DE
:102A40000895992788270895FC01059061507040EA
:102A50000110D8F7809590958E0F9F1F0895FC0167
:102A60006150704001900110D8F7809590958E0FBD
:102A70009F1F08950F931F93CF93DF93FB01238133
:102A800021FD03C08FEF9FEF28C022FF16C04681B3
:102A90005781248135814217530744F4A081B181C5
:102AA0009D012F5F3F4F318320838C932681378197
:102AB0002F5F3F4F3783268310C0EB01092F182F5C
:102AC0000084F185E02D1995892BE1F68E819F8197
:102AD00001969F838E83812F902FDF91CF911F913D
:102AE0000F910895FA01AA27283051F1203181F180
:102AF000E8946F936E7F6E5F7F4F8F4F9F4FAF4F06
:102B0000B1E03ED0B4E03CD0670F781F891F9A1F18
:102B1000A11D680F791F8A1F911DA11D6A0F711DCC
:102B2000811D911DA11D20D009F468943F912AE0D8
:102B3000269F11243019305D3193DEF6CF010895C0
:102B4000462F4770405D4193B3E00FD0C9F7F6CFF1
:102B5000462F4F70405D4A3318F0495D31FD4052B9
:102B6000419302D0A9F7EACFB4E0A695979587954F
:102B700077956795BA95C9F700976105710508952E
:102B80009B01AC010A2E06945795479537952795DA
:102B9000BA95C9F7620F731F841F951FA01D089572
:102BA000DC01CB01FC01F999FECF06C0F2BDE1BD0D
:102BB000F89A319600B40D9241505040B8F70895FC
:102BC000DC01CB0102C02D9105D041505040D8F717
:102BD0000895262FF999FECF1FBA92BD81BD20BD61
:102BE0000FB6F894FA9AF99A0FBE01960895DB0190
:102BF0008F939F9349D0BF91AF91A29F800D911D5C
:102C0000A39F900DB29F900D11240895A1E21A2E5A
:102C1000AA1BBB1BFD010DC0AA1FBB1FEE1FFF1F80
:102C2000A217B307E407F50720F0A21BB30BE40BD0
:102C3000F50B661F771F881F991F1A9469F7609517
:102C40007095809590959B01AC01BD01CF010895D1
:102C5000052E97FB16F400940FD057FD05D0D6DF54
:102C600007FC02D046F408C0509540953095219558
:102C70003F4F4F4F5F4F08959095809570956195A8
:102C80007F4F8F4F9F4F08950FD0A59F900DB49FFA
:102C9000900DA49F800D911D11240895B7FFF4CFCE
:102CA000F3DF821B930B0895A29FB001B39FC00175
:102CB000A39F700D811D1124911DB29F700D811D68
:102CC0001124911D0895991B79E004C0991F96174E
:102CD00008F0961B881F7A95C9F780950895EE0F26
:102CE000FF1F881F8BBF0790F691E02D1994CF939B
:102CF000DF938230910510F482E090E0E0912204AD
:102D0000F091230420E030E0C0E0D0E0309711F1F2
:102D10004081518148175907C0F04817590761F49D
:102D200082819381209719F09B838A832BC0909393
:102D300023048093220426C02115310519F042177F
:102D4000530718F49A01BE01DF01EF010280F381FD
:102D5000E02DDCCF2115310509F1281B390B24307A
:102D6000310590F412968D919C9113976115710520
:102D700021F0FB019383828304C09093230480930A
:102D80002204FD01329644C0FD01E20FF31F81933E
:102D90009193225031092D933C933AC02091200405
:102DA00030912104232B41F4209115023091160219
:102DB00030932104209320042091130230911402B7
:102DC0002115310541F42DB73EB7409117025091BE
:102DD0001802241B350BE0912004F0912104E21726
:102DE000F307A0F42E1B3F0B2817390778F0AC012E
:102DF0004E5F5F4F2417350748F04E0F5F1F50930B
:102E00002104409320048193919302C0E0E0F0E01C
:102E1000CF01DF91CF9108950F931F93CF93DF934D
:102E2000009709F48CC0FC01329713821282009142
:102E30002204109123040115110581F420813181B0
:102E4000820F931F20912004309121042817390705
:102E500079F5F0932104E093200471C0D80140E09B
:102E600050E0AE17BF0750F412962D913C91139786
:102E7000AD012115310509F1D901F3CF9D01DA0129
:102E80003383228360817181860F971F8217930796
:102E900069F4EC0128813981260F371F2E5F3F4FDF
:102EA000318320838A819B8193838283452B29F4FC
:102EB000F0932304E093220442C01396FC93EE9314
:102EC0001297ED01499159919E01240F351FE21788
:102ED000F30771F480819181840F951F02961196FA
:102EE0009C938E938281938113969C938E931297D9
:102EF000E0E0F0E0D80112968D919C911397009735
:102F000019F0F8018C01F6CF8D919C9198012E5FFC
:102F10003F4F820F931F20912004309121042817E6
:102F2000390769F4309729F410922304109222048F
:102F300002C0138212821093210400932004DF91B7
:102F4000CF911F910F91089581E090E0F89410C007
:102F5000FB01DC018D91019080190110D9F3990BCF
:102F60000895FB01DC0101900D920020E1F7089526
:042F7000F894FFCF03
:102F740001FFFFFFFFFFFFFFFF07000E00C8000077
:102F84000004000000240480000000000031039BC2
:102F940002CA027703FB02D902ED020D0A006C6F2C
:102FA40067006673720073727600726F6D002000A2
:00000001FF
