:1000000068C2000097C2000095C2000093C20000C1
:1000100091C200008FC200008DC200008BC20000A0
:1000200089C2000087C2000085C2000083C20000B0
:1000300081C200007FC200007DC200007BC20000C0
:1000400079C200000C94490975C2000073C2000017
:1000500071C200006FC200006DC200000C947808ED
:1000600069C200000C944208E4C7000063C20000AB
:1000700061C200000C9476095DC200005BC2000002
:100080000C941C0957C2000055C2000053C2000066
:1000900051C200004FC200004DC200004BC2000020
:1000A00049C2000047C200000C94EF0843C20000A0
:1000B00041C200003FC200003DC200000C94C208D3
:1000C00039C2000037C2000035C2000033C2000050
:1000D00031C200002FC200002DC200002BC2000060
:1000E00029C20000FF030204F103F503F9033904F8
:1000F00006040A041004140418041E04220426042E
:1001000039042C0430043404636D64203E20002D37
:100110002D2D003D007372765F696E695F636C72AE
:10012000003D006C6F675F6673725F6576656E7425
:10013000003D006C6F675F6673725F737461747308
:10014000003D006673725F696E76003D00667372F3
:100150005F6869003D006673725F6C6F003D00660A
:1001600073725F736C6F77003D006673725F6661D8
:100170007374003D00666F726D00726F6D202F2FDB
:10018000207265706F72742073657474696E677322
:10019000006C6F6720667372206F6666202F2F20B9
:1001A00064697361626C6520616C6C206673722097
:1001B0007265706F727473206F6620617667006C71
:1001C0006F6720667372207374617473202F2F2001
:1001D000656E61626C6520706572696F6469632029
:1001E0007265706F7274206F6620617667006C6F45
:1001F0006720667372206576656E74202F2F2065E8
:100200006E61626C65206F6E2D64656D616E642039
:100210007265706F7274206F66206176670073720A
:100220007620636C72204E4E202F2F20726F7461E7
:10023000746520636C65616E657220736572766F9C
:1002400020746F204E4E206465677265657300668A
:100250007372206869204E4E202F2F207365742002
:10026000617667206576656E7420757070657220A2
:100270007472696767657220746F204E4E006673F2
:1002800072206C6F204E4E202F2F207365742061DA
:100290007667206576656E74206C6F776572207462
:1002A00072696767657220746F204E4E00667372C4
:1002B00020736C6F77204E4E202F2F207365742093
:1002C00061766720736C6F77207261746520746F3C
:1002D000204E4E006673722066617374204E4E206D
:1002E0002F2F2073657420617667206661737420F8
:1002F0007261746520746F204E4E002D2D2D68653F
:100300006C702D2D2D006F6666006576656E74002D
:1003100073746174730066737200696E7600686945
:10032000006C6F00736C6F77006661737400636CB0
:100330007200696E6900636C720000000A0B0209AA
:100340000C0D0E080703040100000000000000006F
:10035000000000000000000000000000000000009D
:10036000000000000000121110000000000000005A
:10037000000000000000000000000000000000007D
:100380006D616B653A204175672020312032303134
:10039000372031333A33393A323300432569204626
:1003A0003D2534692F252D326920533D2534692F91
:1003B000252D326920443D252D336920007C200005
:1003C0004240252D386C75207C2000503D252D3471
:1003D0006C75207C20004540252D386C75207C20D4
:1003E0000043256920533D2534692F252D326900AE
:1003F0007C20004C3D252D346C75207C2000544021
:10040000252D386C75207C2000636D643A203F00F8
:1004100000002200250028002B002E0031003400AF
:1004200002010000050108010B0100002100240069
:1004300027002A002D0030003300010100000401D4
:1004400007010A0105050505070508080808020255
:1004500002020A0A0808040404040101010101015E
:1004600001010303030303030303040707070C0C41
:100470000C0C0C0C0C0C0202020206060606060608
:1004800006060B0B0B0B0B0B0B0B010210202008AD
:1004900008102040102040800201020108040201DF
:1004A000010204081020408080402010080402014E
:1004B00080040201804020100804020108040201A7
:1004C000010204081020408001020408102040802E
:1004D000221111241FBECFEFD1E2DEBFCDBF00E05D
:1004E0000CBF12E0A0E0B2E0E4E7FFE200E00BBFE7
:1004F00002C007900D92A034B107D9F724E0A0E420
:10050000B2E001C01D92A432B207E1F712E0C9E6E1
:10051000D2E000E006C021970109802FFE010E9471
:100520006F16C836D10780E00807A9F70E94FA0ABB
:100530000C94B81765CDCF92DF92EF92FF920F9394
:100540001F93CF93DF936C017A018B01C0E0D0E061
:10055000CE15DF0589F0D8016D918D01D601ED91A1
:10056000FC910190F081E02DC6011995892B11F4C1
:100570007E0102C02196ECCFC701DF91CF911F9180
:100580000F91FF90EF90DF90CF900895089580E055
:1005900090E00895FC01538D448D252F30E0842F89
:1005A00090E0821B930B541710F0CF96089501979B
:1005B0000895FC01918D828D981761F0828DDF0185
:1005C000A80FB11D5D968C91928D9F5F9F73928F46
:1005D00090E008958FEF9FEF0895FC01918D828D3B
:1005E000981731F0828DE80FF11D858D90E0089508
:1005F0008FEF9FEF0895FC01918D228D892F90E060
:10060000805C9F4F821B91098F739927089587EE15
:1006100092E0F1DF21E0892B09F420E0822F089598
:10062000FC01848DDF01A80FB11DA35ABF4F2C918F
:10063000848D90E001968F739927848FA689B7895E
:100640002C93A089B1898C9180648C93938D848D37
:10065000981306C00288F389E02D80818F7D808306
:100660000895EF92FF920F931F93CF93DF93EC01C6
:1006700081E0888F9B8D8C8D981305C0E889F9895E
:10068000808185FD23C0F62E0B8D10E00F5F1F4F7C
:100690000F731127E02E8C8DE8120BC00FB607FCEC
:1006A000FACFE889F989808185FFF5CFCE01B8DFDF
:1006B000F2CF8B8DFE01E80FF11DE35AFF4FF08260
:1006C0000B8FEA89FB898081806207C0EE89FF89F0
:1006D0006083E889F98980818064808381E090E08B
:1006E000DF91CF911F910F91FF90EF900895CF93DD
:1006F000DF93EC01888D8823C1F0EA89FB89808132
:1007000085FD05C0A889B9898C9186FD0EC00FB6FC
:1007100007FCF5CF808185FFF2CFA889B9898C913C
:1007200085FFEDCFCE017CDFE8CFDF91CF9108953B
:1007300080E090E0892B19F06ADF811125C080E00C
:1007400090E0892B41F080E090E0892B21F00E941D
:10075000000081111CC080E090E0892B41F080E016
:1007600090E0892B21F00E940000811113C080E0ED
:1007700090E0892BA1F080E090E0892B81F00E942D
:10078000000081110AC008950E940000D8CF0E9485
:100790000000E1CF0E940000EACF0C940000089511
:1007A000362F90E0FC01E65CFC4F4491FC01E657DB
:1007B000FB4F2491FC01EC5BFB4F9491992309F4CE
:1007C0006BC0442309F455C050E0FA013197E2317F
:1007D000F10508F04EC08827EE58FF4F8F4F0C945C
:1007E0006F16809180008F7707C0809180008F7D89
:1007F00003C080918000877F809380003AC084B5D9
:100800008F7702C084B58F7D84BD33C08091B000E6
:100810008F7703C08091B0008F7D8093B00029C096
:10082000809190008F7707C0809190008F7D03C0EA
:1008300080919000877F809390001BC08091A000E2
:100840008F7707C08091A0008F7D03C08091A000AA
:10085000877F8093A0000DC0809120018F7707C013
:10086000809120018F7D03C080912001877F80933C
:100870002001E92FF0E0EE0FFF1FE05FFB4FA59195
:10088000B4918FB7F894EC91311103C020952E23C9
:1008900001C02E2B2C938FBF08952FB7F894609131
:1008A0004A0270914B0280914C0290914D022FBFF1
:1008B0000895CF92DF92EF92FF920F931F93CF9301
:1008C000DF936C018B017A01EC01CF5BDD4F8881F6
:1008D00087FF04C0FB011182108224C08CE08C9D34
:1008E00090018D9D300D11248881A901480F511D63
:1008F00087FD5A958091140490E04817590794F4A5
:100900008881A901480F511D87FD5A95CA01FA0136
:10091000EE0FFF1F8E0F9F1FFC01EC57FC4F8081D5
:1009200086FD19C088818F5F88838CE08C9D900143
:100930008D9D300D11248881A901480F511D87FD1F
:100940005A958091140490E048175907B4F48881AF
:100950008C303CF112C08881280F311D87FD3A95FB
:10096000F901EE0FFF1F2E0F3F1FF901EC57FC4F4F
:10097000808160E08F7314DFD5CFF8018081918191
:10098000049680349C4918F480E49CE904C0F80182
:10099000808191810496F701918380838FEF888312
:1009A00044C0F801408151818881B901680F711DEF
:1009B00087FD7A95CB01FB01EE0FFF1F8E0F9F1F66
:1009C000FC01EC57FC4F81819281840F951FF70148
:1009D000918380838881A901480F511D87FD5A9515
:1009E000CA01FA01EE0FFF1F8E0F9F1FFC01EC578B
:1009F000FC4F808186FF19C08881280F311D87FD3B
:100A00003A95F901EE0FFF1F2E0F3F1FF901EC572A
:100A1000FC4F808161E08F73DF91CF911F910F9127
:100A2000FF90EF90DF90CF90BBCEDF91CF911F91E1
:100A30000F91FF90EF90DF90CF900895CF93C091EA
:100A4000A9026C2F8DE0ACDE80910002882311F0AA
:100A500081E0C8276C2F8CE0CF91A2CECF93DF939B
:100A60001F921F92CDB7DEB742E050E062E070E027
:100A7000CE0101960E94D01589819A81909312022D
:100A80008093110242E050E064E070E0CE010196F4
:100A90000E94D015209111023091120289819A8111
:100AA000820F931F90931B0480931A0442E050E03E
:100AB00068E070E08BE092E00E94D01542E050E0E8
:100AC00066E070E089E092E00E94D01541E050E0DD
:100AD0006AE070E080E092E00E94D01541E050E0D2
:100AE0006CE070E084EA92E00E94D01541E050E0B2
:100AF0006BE070E080EC92E00E94D0150F900F90B8
:100B0000DF91CF9108958BEF92E049D484ED92E08C
:100B100046D48DEA92E043D48EE792E040D48FE44D
:100B200092E03DD48EE192E03AD48EEE91E037D45B
:100B30008FEB91E034D481E991E031D48AE791E000
:100B40002EC40F931F93CF93DF931F92CDB7DEB7C1
:100B50008B01039714F4D7DF3DC066E173E0F80121
:100B6000828193810E94CA12892BA9F7F80104811E
:100B7000158160E173E0C8010E94CA12892B39F423
:100B800081E0898341E050E06BE070E01FC06AE0E3
:100B900073E0C8010E94CA12892B19F481E089838D
:100BA00011C066E073E0C8010E94CA12892B91F45B
:100BB000198241E050E06BE070E0CE0101960E94A6
:100BC000E015198241E050E06CE070E0CE01019642
:100BD0000E94E0150F90DF91CF911F910F91089522
:100BE0000E94A417CF92DF92EF92FF920F931F9370
:100BF000CF93DF931F921F92CDB7DEB78B01039780
:100C000014F481DF60C04AE050E060E070E0F80179
:100C1000848195810E949A116B017C01F801028107
:100C2000138169E273E0C8010E94CA12892B59F44A
:100C3000C6010297079738F4DA82C98242E050E091
:100C400062E070E03CC064E273E0C8010E94CA1236
:100C5000892B59F4C6010397079738F4DA82C982C1
:100C600042E050E064E070E02AC061E273E0C80155
:100C70000E94CA12892B39F4DA82C98242E050E01C
:100C800066E070E01CC06EE173E0C8010E94CA1209
:100C9000892B39F4DA82C98242E050E068E070E0E2
:100CA0000EC06AE173E0C8010E94CA12892B09F0E4
:100CB000A8CFDA82C98241E050E06AE070E0CE015C
:100CC00001960E94E0150F900F90DF91CF911F9138
:100CD0000F91FF90EF90DF90CF9008958F929F92A9
:100CE000AF92BF92EF92FF920F931F93CF93DF9338
:100CF0001F921F92CDB7DEB78B01039714F403DF69
:100D000042C04AE050E060E070E0F80184819581E3
:100D10000E949A114B015C01F801E280F38066E3C6
:100D200073E0C7010E94CA12892B39F4F5EB8F16C4
:100D3000910418F4C401BBD326C062E373E0C70179
:100D40000E94CA12892BD9F66EE273E0F801848101
:100D500095810E94CA12892B91F64AE050E060E02A
:100D600070E0F801868197810E949A11653B7105B8
:100D700030F67A83698342E050E06DE070E0CE01A6
:100D800001960E94E0150F900F90DF91CF911F9177
:100D90000F91FF90EF90BF90AF909F908F9008952C
:100DA000CF93DF93CDB7DEB72F970FB6F894DEBFA2
:100DB0000FBECDBF42E050E060E070E0CE010B9688
:100DC0000E94D01585E791E0C9D283E791E0C6D2B1
:100DD0008B859C85F0D242E050E062E070E0CE016D
:100DE00009960E94D0158AE691E0B8D288E691E093
:100DF000B5D289859A85DFD242E050E064E070E0A8
:100E0000CE0107960E94D0158FE591E0A7D28DE51F
:100E100091E0A4D28F819885CED242E050E066E086
:100E200070E0CE0105960E94D01586E591E096D23D
:100E300084E591E093D28D819E81BDD242E050E065
:100E400068E070E0CE0103960E94D0158DE491E039
:100E500085D28BE491E082D28B819C81ACD241E03F
:100E600050E06AE070E0CE010F960E94D01583E456
:100E700091E074D281E491E071D28F8590E09BD2B1
:100E800041E050E06BE070E0CE010E960E94D0157C
:100E900083E391E063D281E391E060D28E8590E0BC
:100EA0008AD241E050E06CE070E0CE010D960E94E5
:100EB000D01583E291E052D281E291E04FD28D854C
:100EC00090E079D242E050E06DE070E0CE01019612
:100ED0000E94D01585E191E041D283E191E03ED2BC
:100EE00089819A8168D22F960FB6F894DEBF0FBE23
:100EF000CDBFDF91CF91089553CFCF92DF92EF9284
:100F0000FF920F931F93CF93DF938C017B0186E0B9
:100F100090E00E947716EC019093C4028093C30284
:100F2000F80101900020E9F7CF01801B910B0E948E
:100F300077166C01B8010E94B117F80101900020EA
:100F4000E9F73197E01BF10BEC0DFD1D1082D98202
:100F5000C882FB82EA8280914E0290914F029D836B
:100F60008C83D0934F02C0934E02DF91CF911F919B
:100F70000F91FF90EF90DF90CF900895DC01ED91FD
:100F8000FC910190F081E02D19946115710579F0C3
:100F9000FB0101900020E9F73197AF01461B570B89
:100FA000DC01ED91FC910280F381E02D199480E049
:100FB00090E008956BE272E0E8CFE7CF0F931F93C4
:100FC000CF93DF93CDB7DEB7E2970FB6F894DEBFCD
:100FD0000FBECDBF8091E5029091E602EBDF6FE09E
:100FE00071E0CE0101960E94D3120091E5021091AA
:100FF000E602BE016F5F7F4FC801C7DFC801DADFBD
:1010000068E071E0CE0101960E94D312BE016F5FCD
:101010007F4F8091E5029091E602CFDFE2960FB616
:10102000F894DEBF0FBECDBFDF91CF911F910F911E
:1010300008951F920F920FB60F9211240BB60F92C4
:101040002F933F934F935F936F937F938F939F93D0
:10105000AF93BF93EF93FF9387EE92E0E1DAFF91B6
:10106000EF91BF91AF919F918F917F916F915F9120
:101070004F913F912F910F900BBE0F900FBE0F908D
:101080001F9018951F920F920FB60F9211240BB656
:101090000F922F938F939F93EF93FF93E091F7021B
:1010A000F091F8028081E091FD02F091FE0282FD54
:1010B00012C09081809100038F5F8F732091010394
:1010C000821751F0E0910003F0E0E951FD4F958F58
:1010D0008093000301C08081FF91EF919F918F91D8
:1010E0002F910F900BBE0F900FBE0F901F90189571
:1010F0001F920F920FB60F9211242F933F938F934D
:101100009F93AF93BF9380914A0290914B02A0911D
:101110004C02B0914D023091490223E0230F2D374C
:1011200020F40196A11DB11D05C026E8230F0296EB
:10113000A11DB11D2093490280934A0290934B0256
:10114000A0934C02B0934D028091450290914602CB
:10115000A0914702B09148020196A11DB11D809354
:10116000450290934602A0934702B0934802BF9174
:10117000AF919F918F913F912F910F900FBE0F9044
:101180001F9018951F920F920FB60F9211240BB655
:101190000F922F933F934F935F936F937F938F9310
:1011A0009F93AF93BF93EF93FF9348E251E064E2C4
:1011B00071E080E090E07DDBFF91EF91BF91AF9116
:1011C0009F918F917F916F915F914F913F912F915F
:1011D0000F900BBE0F900FBE0F901F9018951F928F
:1011E0000F920FB60F9211240BB60F922F933F93CD
:1011F0004F935F936F937F938F939F93AF93BF931F
:10120000EF93FF9348EA50E064EA70E083E090E0F7
:1012100050DBFF91EF91BF91AF919F918F917F91A3
:101220006F915F914F913F912F910F900BBE0F9057
:101230000FBE0F901F9018951F920F920FB60F922E
:1012400011240BB60F922F933F934F935F936F939D
:101250007F938F939F93AF93BF93EF93FF9348E94F
:1012600050E064E970E082E090E023DBFF91EF91D1
:10127000BF91AF919F918F917F916F915F914F91AE
:101280003F912F910F900BBE0F900FBE0F901F90AC
:1012900018951F920F920FB60F9211240BB60F9252
:1012A0002F933F934F935F936F937F938F939F936E
:1012B000AF93BF93EF93FF9348E850E064E870E08A
:1012C00081E090E0F6DAFF91EF91BF91AF919F91AD
:1012D0008F917F916F915F914F913F912F910F90DF
:1012E0000BBE0F900FBE0F901F9018951F920F927C
:1012F0000FB60F9211240BB60F922F933F938F933B
:10130000EF93FF9380914002209178003091790013
:10131000E82FF0E0EE0FFF1FEF5FFD4F31832083DA
:101320008F5F843018F48093400202C01092400214
:1013300080914002806480937C0080917A00806478
:1013400080937A00FF91EF918F913F912F910F90B1
:101350000BBE0F900FBE0F901F9018950F931F9309
:10136000CF93DF938C01C0E0D0E0F801EC0FFD1FBC
:101370006491662371F0E091E702F091E802019038
:10138000F081E02D87EE92E01995892B11F02196DE
:10139000ECCFCE01DF91CF911F910F910895CF93A4
:1013A000DF93DCDFEC0187EE92E004DE8C0F9D1F03
:1013B000DF91CF9108958F929F92AF92BF92CF927B
:1013C000DF92EF92FF920F931F93CF93DF93CDB7EE
:1013D000DEB7A1970FB6F894DEBF0FBECDBF6C018C
:1013E000990FEE08FF08F7FE2BC06DE287EE92E042
:1013F000C5DD8C0122273327A9012C193D094E098F
:101400005F0919A2CE0181967C019AE0892E912C68
:10141000A12CB12CCA01B901A50194010E940616A4
:10142000605DF70162937F0121153105410551058A
:1014300089F7BF0187EE92E0A8DD080F191F1FC0D2
:10144000A701960119A28E010F5D1F4F8AE0C82ED9
:10145000D12CE12CF12CCA01B901A70196010E94FF
:101460000616605DF80162938F0121153105410573
:10147000510589F7BF0187EE92E087DD8C0187EE89
:1014800092E098DD800F911FA1960FB6F894DEBF11
:101490000FBECDBFDF91CF911F910F91FF90EF90C5
:1014A000DF90CF90BF90AF909F908F900895CF9294
:1014B000DF92EF92FF92DC01A03282E0B8070CF0DD
:1014C0003EC0B7FD06C0A53BB1052CF0A4EBB0E0D3
:1014D00002C0A0E0B0E08091180428E830E0690183
:1014E000C81AD10887FDD394CC0CDD1CCC0CDD1CB4
:1014F0000D2C000CEE08FF088091190428E532E05D
:10150000281B310987FD3395220F331F220F331F0C
:10151000A901330F660B770B9A01AB012C193D091A
:101520004E095F090E944E1624EB30E040E050E087
:101530000E942816C20ED31EE41EF51ED6019091FD
:101540001704903398F58091180448E850E0481B40
:10155000510987FD5395440F551F440F551FA4177C
:10156000B5078CF08091190428E532E0281B310979
:1015700087FD3395220F331F220F331FAD012A172A
:101580003B070CF4A90142505109440F551F2FB7D6
:10159000F894892F90E0FC01EE0FFF1F8E0F9F1F24
:1015A000FC01EC57FC4F528341832FBFFF90EF901B
:1015B000DF90CF90089590E0FC01E657FB4F249117
:1015C000FC01EC5BFB4F8491882399F090E0880F3D
:1015D000991FFC01E65DFB4FA591B491FC01E05F12
:1015E000FB4F859194918FB7F894EC91E22BEC939B
:1015F0008FBF0895CF93DF93CDB7DEB7C758D1091A
:101600000FB6F894DEBF0FBECDBF789484B582606C
:1016100084BD84B5816084BD85B5826085BD85B596
:10162000816085BD80916E00816080936E00109214
:10163000810080918100826080938100809181008F
:101640008160809381008091800081608093800020
:101650008091B10084608093B1008091B00081607E
:101660008093B0008091910082608093910080917E
:1016700091008160809391008091900081608093BF
:1016800090008091A10082608093A1008091A100D0
:1016900081608093A1008091A00081608093A00070
:1016A00080912101826080932101809121018160DC
:1016B000809321018091200181608093200180919D
:1016C0007A00846080937A0080917A0082608093AF
:1016D0007A0080917A00816080937A0080917A000C
:1016E000806880937A001092C100E091F702F09137
:1016F000F80282E08083E091F302F091F40210821C
:10170000E091F502F091F60280E180831092FF02F1
:10171000E091FB02F091FC0286E08083E091F90207
:10172000F091FA02808180618083E091F902F0916A
:10173000FA02808188608083E091F902F091FA02D8
:10174000808180688083E091F902F091FA028081C3
:101750008F7D808387EE92E02DDC80E893E01FDEB2
:1017600042E050E060E070E0CE01CD960E94D015DE
:101770008DAD9EAD089709F460C084E090E09A8337
:10178000898342E050E062E070E0CE0101960E9461
:10179000E01507E010E01A83098342E050E064E0BE
:1017A00070E0CE0101960E94E0151A83098342E0A1
:1017B00050E066E070E0CE0101960E94E0158EE0F8
:1017C00090E09A83898342E050E068E070E0CE01C7
:1017D00001960E94E01581E0898341E050E06AE0D3
:1017E00070E0CE0101960E94E015198241E050E0C0
:1017F0006BE070E0CE0101960E94E015198241E095
:1018000050E06CE070E0CE0101960E94E0151A8273
:10181000198242E050E06DE070E0CE0101960E9436
:10182000E01588E090E09A83898342E050E060E030
:1018300070E0CE0101960E94E015B2DA0FD987EE72
:1018400092E09093E6028093E50285EC92E090931B
:10185000E4028093E30210924F0210924E0261EA7A
:1018600075E08EE292E049DB62EF75E082E392E0A0
:1018700044DB6EE676E086E392E03FDB6CE777E000
:101880008AE392E03ADB9ADB10927C0080917C0044
:10189000806480937C0010927A0080917A00806846
:1018A00080937A0080917A00886080937A0080919A
:1018B0007A00856080937A0010927B0080917B0093
:1018C00080937B0010927E00789480917A008064EF
:1018D00080937A00B3D88DE06EDE8CE06CDE809170
:1018E0001704803308F050C08BE065DE8091170448
:1018F000E82FF0E09F01220F331FE20FF31FEC5798
:10190000FC4F9081907C9B60908310921804109201
:1019100019046CE00E9463162CE0829FB001112430
:1019200040E050E09A01260F371FF901EE0FFF1F2C
:101930002E0F3F1FF901EC57FC4F908196FD17C009
:101940004F5F5F4F4C30510569F7813009F049C452
:101950001092800082E080938100109285001092A6
:101960008400B19A80916F00826080936F00E09153
:101970001704F0E0CF01880F991FE80FF91FEC570B
:10198000FC4F80818064808342E050E06DE070E035
:10199000CE0101960E94D01589819A8188DD8E0141
:1019A000035C1F4FE1E0F2E048E952E0C158DF4F2D
:1019B00059834883CF57D04080E692E0E9969FAFA5
:1019C0008EAFE99720E932E0E1963FAF2EAFE19785
:1019D00040E552E0ED965FAF4EAFED9788EB92E0B9
:1019E000E3969FAF8EAFE39750E8E52E52E0F52ED9
:1019F000A0EBB2E0E796BFAFAEAFE79720E732E0EB
:101A0000CE57DF4F39832883C258D040EF96BFAFFF
:101A1000AEAFEF976C0180E992E0EB969FAF8EAF8F
:101A2000EB97A8E9B2E0E596BFAFAEAFE597F894C3
:101A3000808191818F3FBFEF9B0739F022242A9448
:101A4000322C3182208221E001C020E078942223D0
:101A500009F4E3C0E996AEADBFADE9974D915D9154
:101A60006D917C914C01092E000CAA08BB08480D11
:101A7000591D6A1D7B1DE596AEADBFADE5972D9155
:101A80003C9111972901330F6608770844195509CD
:101A900066097709709011021A012B01072C04C006
:101AA00055944794379427940A94D2F72D923C92F8
:101AB000E996AEADBFADE9974D935D936D937C9381
:101AC0001397ED96AEADBFADED974D915D916D91D4
:101AD0007C919C012219330937FF03C03195219570
:101AE00031091901330F44085508420D531D641D77
:101AF000751DEB96AEADBFADEB972D913C91119757
:101B00001901330F4408550842195309640975092E
:101B10001A012B0104C055944794379427947A9462
:101B2000D2F7CC57DF4F288239824A825B82C45871
:101B3000D0402D923C92ED96AEADBFADED974D935A
:101B40005D936D937C931397D7014D915D916D914A
:101B50007C91840E951EA61EB71ED6012D913C9138
:101B60001197A901330F660B770B841A950AA60A01
:101B7000B70A20911A0424013501022E04C075947D
:101B80006794579447940A94D2F74D925C92D70188
:101B90008D929D92AD92BC921397CE57DF4FA88144
:101BA000B981C258D0404D915D916D917C9184195D
:101BB000950997FF03C09195819591094C01990F63
:101BC000AA08BB08840E951EA61EB71EEF96AEADE2
:101BD000BFADEF976D917C911197AB01770F660BBD
:101BE000770B14012501241A350A460A570A5201B7
:101BF000410104C0B594A794979487942A95D2F78D
:101C00008D929C92CE57DF4FA881B981C258D040A7
:101C10002D923D924D925C9213973296E5962EADA1
:101C20003FADE5972E5F3F4FE5963FAF2EAFE5976F
:101C3000E9964EAD5FADE9974C5F5F4FE9965FAFB8
:101C40004EAFE997EB968EAD9FADEB970296EB9674
:101C50009FAF8EAFEB97ED96AEADBFADED971496FF
:101C6000ED96BFAFAEAFED97B2E0CB0ED11C24E046
:101C7000E20EF11CEF964EAD5FADEF974E5F5F4FFA
:101C8000EF965FAF4EAFEF97CE57DF4F88819981C8
:101C9000C258D0400496CE57DF4F99838883C258EC
:101CA000D04092E0E930F90709F0C1CE30EBA32E25
:101CB00032E0B32E68EB72E0E8E9F2E040E050E099
:101CC00080E090E021913191DB01CD90DD90BD016C
:101CD000D501ED90FD905D012C193D0937FF03C042
:101CE000319521953109820F931F4E0D5F1DB2E092
:101CF000E03AFB0739F7841B950B209109023091DC
:101D00000A0240910B0250910C02841795070CF4C3
:101D10008AC04091A902411190C281E08093A9023A
:101D20000E941E050E944D046093A0027093A102C0
:101D30008093A2029093A3028091A402882309F4C5
:101D4000CAC00E944D049F938F937F936F9380EC42
:101D500093E09F938F931F930F9356D4B80187EE10
:101D600092E02BD90FB6F894DEBF0FBECDBF90EB3B
:101D7000C92E92E0D92E28EBA22E22E0B22EE12C21
:101D8000F12CC158DF4FA881B981CF57D0408D9138
:101D90009D91C158DF4FB983A883CF57D040E196BA
:101DA000EEADFFADE197608171813296E196FFAFB4
:101DB000EEAFE197D5012D913D915D01D601EC91FA
:101DC0001196FC91B2E0CB0ED11CAC01421B530B1F
:101DD0005F934F93FF93EF933F932F937F936F9373
:101DE0009F938F93FF92EF92ABE9B3E0BF93AF93D2
:101DF0001F930F9309D4B80187EE92E0DED88DEBE4
:101E000093E0ACDAFFEFEF1AFF0A0FB6F894DEBFEB
:101E10000FBECDBF34E0E316F10409F0B2CF87EE78
:101E200092E0C8D858C0281739070CF454C08091E4
:101E3000A902882309F44FC01092A9020E941E052E
:101E40000E944D046093A5027093A6028093A7029E
:101E50009093A8028091A402882309F43CC00E94B8
:101E60004D049F938F937F936F9386ED93E09F93A1
:101E70008F931F930F93C8D3B80187EE92E09DD83C
:101E80008091A5029091A602A091A702B091A8020C
:101E90004091A0025091A1026091A2027091A30210
:101EA000841B950BA60BB70BBF93AF939F938F9398
:101EB0008BEC93E09F938F931F930F93A5D3B8015F
:101EC00087EE92E07AD887EE92E074D80FB6F89455
:101ED000DEBF0FBECDBF8091AE029091AF020196E2
:101EE000883E53E095072CF49093AF028093AE02A6
:101EF00026C01092AF021092AE020E942E050E94E0
:101F00004D04C090AA02D090AB02E090AC02F090D9
:101F1000AD021B012C012C183D084E085F082092D1
:101F20000D0230920E0240920F0250921002609306
:101F3000AA027093AB028093AC029093AD028091A1
:101F4000C1029091C20201969093C2028093C10295
:101F50002091150430911604821793070CF496C053
:101F60001092C2021092C10220910D0230910E0215
:101F700040910F025091100260E472E48FE090E013
:101F800067D630931604209315048091C0028823ED
:101F900009F47CC00E944D049F938F937F936F93AD
:101FA0008EEF93E09F938F931F930F932DD3B801E0
:101FB00087EE92E002D8809110028F9380910F02F9
:101FC0008F9380910E028F9380910D028F9383EFF8
:101FD00093E09F938F931F930F9316D3B80187EECF
:101FE00092E00E94DD070FB6F894DEBF0FBECDBFB2
:101FF000E12CF12CE396AEADBFADE3978C91119639
:102000009C9111971296E396BFAFAEAFE397E79618
:10201000EEADFFADE797208131813296E796FFAFB5
:10202000EEAFE7973F932F939F938F93FF92EF929B
:10203000A1EEB3E0BF93AF931F930F93E5D2B80126
:1020400087EE92E00E94DD0780EF93E087D9FFEFF3
:10205000EF1AFF0A0FB6F894DEBF0FBECDBF34E013
:10206000E316F10439F687EE92E00E94DA070EC01B
:102070008091E5029091E602DC01ED91FC910284F1
:10208000F385E02D1995282F8A3071F48091E502AF
:102090009091E602DC01ED91FC910084F185E02D48
:1020A0001995892B29F79AC08091E5029091E60253
:1020B0002B3024F4283009F465C077C02D3019F096
:1020C0002E3209F072C0E091E302F091E402108236
:1020D0006BE272E00E94DD076EE372E085EC92E055
:1020E00069D29A838983FE0133966F01EE24E394CB
:1020F000F12CBE2CAF2C6EE372E080E090E05AD25F
:10210000D6018D939D936D01BEE1EB16F10439F478
:10211000E090C302F090C402C980DA8009C0EFEFFA
:10212000EE1AFE0A892B29F7F3CFF701E480F58038
:10213000E114F10499F0D7016D917C91C60108D7A3
:10214000892B99F7D7011296ED91FC911397BE0157
:102150006F5F7F4F8B2D9A2D19950FC069E074E04A
:10216000C80121D2E090E502F090E602B801C70173
:102170000E94C507C7010E94DA070E94DE0785ECAE
:1021800092E00EC068E00E94BE078091E302909149
:10219000E402F2E0853C9F0709F008F477CF01974D
:1021A0009093E4028093E30271CF622FCF57DF4F09
:1021B0002883C158D0400E94BE07E091E302F0910D
:1021C000E402CF0101969093E4028093E302CF579B
:1021D000DF4F2881C158D040208358CF0E949803F8
:1021E000E1CB823061F410929000809391001092C4
:1021F00095001092940088BB80937100B8CB833017
:1022000069F41092A00082E08093A1001092A500D2
:102210001092A40089BB80937200A9CB8111A7CB37
:102220001092200182E080932101109225011092EA
:1022300024018ABB809373009ACB281739070CF0CE
:10224000FBCD49CE1092EA021092E90288EE93E0AB
:10225000A0E0B0E08093EB029093EC02A093ED023B
:10226000B093EE028DE192E09093E8028093E70252
:1022700085EC90E09093F4028093F30284EC90E07C
:102280009093F6028093F50280EC90E09093F80230
:102290008093F70281EC90E09093FA028093F90228
:1022A00082EC90E09093FC028093FB0286EC90E03D
:1022B0009093FE028093FD0210920003109201039E
:1022C0001092020310920303809114048033A0F44F
:1022D00091E0980F909314048093170490E0FC0110
:1022E000EE0FFF1F8E0F9F1FFC01EC57FC4F88EB7A
:1022F0009BE09283818303C08FEF8093170420912A
:102300000D0230910E0240910F025091100260E4D4
:1023100072E48FE090E09CD430931604209315046F
:102320008091110290911202079690931B04809362
:102330001A0408952F923F924F925F926F927F926C
:102340008F929F92AF92BF92CF92DF92EF92FF92C5
:102350000F931F93CF93DF935C016B017A0161159B
:10236000710519F0FB0191838083E114F10429F0D8
:10237000C7010297839708F0EEC0E5012196F501A9
:102380001081812F90E0FED0892B11F05E01F5CFF6
:102390001D3229F42196F501118101E007C01B329D
:1023A00021F4E5012296F501118100E0E114F10428
:1023B00059F1F0E1EF16F10461F41033E1F4888192
:1023C0008F7D883569F519812296026070E1E72ECC
:1023D000F12C88E0E816F10439F12CF4F2E0EF1664
:1023E000F104C1F12AC08AE0E816F10479F0E0E1D5
:1023F000EE16F10411F550E1E52EF12C812C912C13
:10240000A12C68E0B62E2BC01033C9F23AE0E32EBF
:10241000F12C4CEC842E982CA82C4CE0B42E1FC030
:1024200010E3E114F104A9F698E0E92EF12C812CD7
:10243000912CA12C20E1B22E12C060E070E080E06F
:1024400090E897010F2C000C440B550BDFD349018A
:102450005A0105C0812C912CA12C80E4B82E60E09B
:1024600020E030E0A90127010F2C000C6608770856
:102470001E01E0EDE10FEA3060F08FEB810F8A3151
:1024800010F4E9EC05C08FE9810F8A3120F5E9EA03
:10249000E10F8E2F90E08E159F05ECF467FD17C0BD
:1024A00082169306A406B50688F0C301B2019FD335
:1024B0009B01AC012E0F311D411D511D21303105F5
:1024C0004105F0E85F0710F461E001C06FEF21966D
:1024D000F1011081CDCF802F8170C114D10471F032
:1024E000662329F02197F601D183C08307C001FF3D
:1024F00019C02297F601D183C08314C067FF12C0B0
:10250000811105C02FEF3FEF4FEF5FE704C020E0E0
:1025100030E040E050E882E290E090931F04809326
:102520001E0416C0882341F05095409530952195A2
:102530003F4F4F4F5F4F0CC057FF0AC082E290E001
:1025400090931F0480931E042FEF3FEF4FEF5FE740
:10255000B901CA0104C060E070E080E090E0DF9162
:10256000CF911F910F91FF90EF90DF90CF90BF9090
:10257000AF909F908F907F906F905F904F903F9023
:102580002F90089591115DC2803219F089508550C5
:10259000D0F70895FB01DC018D91059080190110A1
:1025A000D9F3990B0895FB01DC0105900D920020F1
:1025B000E1F708954CE154E000C0FA01A191B08127
:1025C000009719F41097E1F0CD01DC01CD010D90D9
:1025D000002011F4C00113C0FB012191222319F046
:1025E0002015D9F7F3CFFB012191201519F41E9284
:1025F000119606C02223C1F70D900020A1F7D0014B
:10260000FA01A193B08308950F931F93CF93DF93A3
:10261000CDB7DEB72E970FB6F894DEBF0FBECDBF95
:102620000E891F898EE08C831A8309838FEF9FE7C1
:102630009E838D83AE01465E5F4F688D798DCE019E
:10264000019611D02F813885F801E20FF31F108217
:102650002E960FB6F894DEBF0FBECDBFDF91CF919F
:102660001F910F9108952F923F924F925F926F9218
:102670007F928F929F92AF92BF92CF92DF92EF9212
:10268000FF920F931F93CF93DF93CDB7DEB72C97B5
:102690000FB6F894DEBF0FBECDBF7C016B018A017F
:1026A000FC0117821682838181FFB0C1CE010196A1
:1026B0004C01F7019381F60193FD859193FF819180
:1026C0006F01882309F49EC1853239F493FD859109
:1026D00093FF81916F01853221F4B70190E0CAD157
:1026E000E8CF512C312C20E02032A0F48B3269F05D
:1026F00030F4803259F0833269F420612CC08D327D
:1027000039F0803339F4216026C02260246023C070
:10271000286021C027FD27C030ED380F3A3078F40B
:1027200026FF06C0FAE05F9E300D1124532E13C021
:102730008AE0389E300D1124332E20620CC08E3278
:1027400021F426FD5FC1206406C08C3611F4206898
:1027500002C0883641F4F60193FD859193FF819183
:102760006F018111C1CF982F9F7D9554933028F42C
:102770000C5F1F4FFFE3F9830DC0833631F08337C1
:1027800071F0833509F057C021C0F8018081898339
:102790000E5F1F4F44244394512C540114C0380140
:1027A000F2E06F0E711CF801A080B18026FF03C01B
:1027B000652D70E002C06FEF7FEFC5012C874FD110
:1027C0002C0183012C852F77222E16C03801F2E0D0
:1027D0006F0E711CF801A080B18026FF03C0652D2B
:1027E00070E002C06FEF7FEFC5012C872DD12C0167
:1027F0002C852068222E830123FC19C0832D90E0B4
:1028000048165906A0F4B70180E290E033D13A941B
:10281000F5CFF50127FC859127FE81915F01B70176
:1028200090E028D131103A94F1E04F1A5108411448
:10283000510479F7DEC0843611F0893631F5F8019C
:1028400027FF07C060817181828193810C5F1F4FD8
:1028500008C060817181072E000C880B990B0E5FF8
:102860001F4F2F76722E97FF09C090958095709517
:1028700061957F4F8F4F9F4F2068722E2AE030E086
:10288000A40130D1A82EA81843C0853729F42F7E83
:10289000B22E2AE030E025C0F22FF97FBF2E8F360E
:1028A000C1F018F4883579F0ADC0803719F0883759
:1028B00021F0A8C02F2F2061B22EB4FE0DC08B2DA9
:1028C0008460B82E09C024FF0AC09F2F9660B92EDD
:1028D00006C028E030E005C020E130E002C020E181
:1028E00032E0F801B7FE07C0608171818281938177
:1028F0000C5F1F4F06C06081718180E090E00E5F29
:102900001F4FA401EFD0A82EA818FB2DFF777F2E14
:1029100076FE0BC0372D3E7FA51450F474FE0AC01E
:1029200072FC08C0372D3E7E05C0BA2C372D03C07F
:10293000BA2C01C0B52C34FF0DC0FE01EA0DF11D0B
:102940008081803311F4397E09C032FF06C0B39410
:10295000B39404C0832F867809F0B39433FD12C07A
:1029600030FF06C05A2CB31418F4530C5B18B32C68
:10297000B31460F4B70180E290E03C877BD0B3945D
:102980003C85F6CFB31410F43B1801C0312C34FF52
:1029900011C0B70180E390E03C876CD03C8532FFEA
:1029A00016C031FD03C088E790E002C088E590E0E2
:1029B000B7010CC0832F867851F031FF02C08BE243
:1029C00001C080E237FD8DE2B70190E053D0A5143D
:1029D00030F4B70180E390E04DD05A94F8CFAA9438
:1029E000F401EA0DF11D8081B70190E043D0A11000
:1029F000F6CF332009F45DCEB70180E290E03AD003
:102A00003A94F7CFF7018681978102C08FEF9FEF4D
:102A10002C960FB6F894DEBF0FBECDBFDF91CF91DD
:102A20001F910F91FF90EF90DF90CF90BF90AF90EC
:102A30009F908F907F906F905F904F903F902F90DE
:102A40000895992788270895FC01059061507040EA
:102A50000110D8F7809590958E0F9F1F0895FC0167
:102A60006150704001900110D8F7809590958E0FBD
:102A70009F1F08950F931F93CF93DF93FB01238133
:102A800021FD03C08FEF9FEF28C022FF16C04681B3
:102A90005781248135814217530744F4A081B181C5
:102AA0009D012F5F3F4F318320838C932681378197
:102AB0002F5F3F4F3783268310C0EB01092F182F5C
:102AC0000084F185E02D1995892BE1F68E819F8197
:102AD00001969F838E83812F902FDF91CF911F913D
:102AE0000F910895FA01AA27283051F1203181F180
:102AF000E8946F936E7F6E5F7F4F8F4F9F4FAF4F06
:102B0000B1E03ED0B4E03CD0670F781F891F9A1F18
:102B1000A11D680F791F8A1F911DA11D6A0F711DCC
:102B2000811D911DA11D20D009F468943F912AE0D8
:102B3000269F11243019305D3193DEF6CF010895C0
:102B4000462F4770405D4193B3E00FD0C9F7F6CFF1
:102B5000462F4F70405D4A3318F0495D31FD4052B9
:102B6000419302D0A9F7EACFB4E0A695979587954F
:102B700077956795BA95C9F700976105710508952E
:102B80009B01AC010A2E06945795479537952795DA
:102B9000BA95C9F7620F731F841F951FA01D089572
:102BA000DC01CB01FC01F999FECF06C0F2BDE1BD0D
:102BB000F89A319600B40D9241505040B8F70895FC
:102BC000DC01CB0102C02D9105D041505040D8F717
:102BD0000895262FF999FECF1FBA92BD81BD20BD61
:102BE0000FB6F894FA9AF99A0FBE01960895DB0190
:102BF0008F939F9349D0BF91AF91A29F800D911D5C
:102C0000A39F900DB29F900D11240895A1E21A2E5A
:102C1000AA1BBB1BFD010DC0AA1FBB1FEE1FFF1F80
:102C2000A217B307E407F50720F0A21BB30BE40BD0
:102C3000F50B661F771F881F991F1A9469F7609517
:102C40007095809590959B01AC01BD01CF010895D1
:102C5000052E97FB16F400940FD057FD05D0D6DF54
:102C600007FC02D046F408C0509540953095219558
:102C70003F4F4F4F5F4F08959095809570956195A8
:102C80007F4F8F4F9F4F08950FD0A59F900DB49FFA
:102C9000900DA49F800D911D11240895B7FFF4CFCE
:102CA000F3DF821B930B0895A29FB001B39FC00175
:102CB000A39F700D811D1124911DB29F700D811D68
:102CC0001124911D0895991B79E004C0991F96174E
:102CD00008F0961B881F7A95C9F780950895EE0F26
:102CE000FF1F881F8BBF0790F691E02D1994CF939B
:102CF000DF938230910510F482E090E0E0912204AD
:102D0000F091230420E030E0C0E0D0E0309711F1F2
:102D10004081518148175907C0F04817590761F49D
:102D200082819381209719F09B838A832BC0909393
:102D300023048093220426C02115310519F042177F
:102D4000530718F49A01BE01DF01EF010280F381FD
:102D5000E02DDCCF2115310509F1281B390B24307A
:102D6000310590F412968D919C9113976115710520
:102D700021F0FB019383828304C09093230480930A
:102D80002204FD01329644C0FD01E20FF31F81933E
:102D90009193225031092D933C933AC02091200405
:102DA00030912104232B41F4209115023091160219
:102DB00030932104209320042091130230911402B7
:102DC0002115310541F42DB73EB7409117025091BE
:102DD0001802241B350BE0912004F0912104E21726
:102DE000F307A0F42E1B3F0B2817390778F0AC012E
:102DF0004E5F5F4F2417350748F04E0F5F1F50930B
:102E00002104409320048193919302C0E0E0F0E01C
:102E1000CF01DF91CF9108950F931F93CF93DF934D
:102E2000009709F48CC0FC01329713821282009142
:102E30002204109123040115110581F420813181B0
:102E4000820F931F20912004309121042817390705
:102E500079F5F0932104E093200471C0D80140E09B
:102E600050E0AE17BF0750F412962D913C91139786
:102E7000AD012115310509F1D901F3CF9D01DA0129
:102E80003383228360817181860F971F8217930796
:102E900069F4EC0128813981260F371F2E5F3F4FDF
:102EA000318320838A819B8193838283452B29F4FC
:102EB000F0932304E093220442C01396FC93EE9314
:102EC0001297ED01499159919E01240F351FE21788
:102ED000F30771F480819181840F951F02961196FA
:102EE0009C938E938281938113969C938E931297D9
:102EF000E0E0F0E0D80112968D919C911397009735
:102F000019F0F8018C01F6CF8D919C9198012E5FFC
:102F10003F4F820F931F20912004309121042817E6
:102F2000390769F4309729F410922304109222048F
:102F300002C0138212821093210400932004DF91B7
:102F4000CF911F910F91089581E090E0F89410C007
:102F5000FB01DC018D91019080190110D9F3990BCF
:102F60000895FB01DC0101900D920020E1F7089526
:042F7000F894FFCF03
:102F740001FFFFFFFFFFFFFFFF07000E00C8000077
:102F84000004000000240480000000000031039BC2
:102F940002CA027703FB02D902ED020D0A006C6F2C
:102FA40067006673720073727600726F6D002000A2
:020000023000CC
:10E000000D9489F10D94B2F10D94B2F10D94B2F129
:10E010000D94B2F10D94B2F10D94B2F10D94B2F1F0
:10E020000D94B2F10D94B2F10D94B2F10D94B2F1E0
:10E030000D94B2F10D94B2F10D94B2F10D94B2F1D0
:10E040000D94B2F10D94B2F10D94B2F10D94B2F1C0
:10E050000D94B2F10D94B2F10D94B2F10D94B2F1B0
:10E060000D94B2F10D94B2F10D94B2F10D94B2F1A0
:10E070000D94B2F10D94B2F10D94B2F10D94B2F190
:10E080000D94B2F10D94B2F10D94B2F10D94B2F180
:10E090000D94B2F10D94B2F10D94B2F10D94B2F170
:10E0A0000D94B2F10D94B2F10D94B2F10D94B2F160
:10E0B0000D94B2F10D94B2F10D94B2F10D94B2F150
:10E0C0000D94B2F10D94B2F10D94B2F10D94B2F140
:10E0D0000D94B2F10D94B2F10D94B2F10D94B2F130
:10E0E0000D94B2F141546D656761323536300041AF
:10E0F000726475696E6F206578706C6F72657220DE
:10E1000073746B3530305632206279204D4C530099
:10E11000426F6F746C6F616465723E004875683F52
:10E1200000436F6D70696C6564206F6E203D200048
:10E130004350552054797065202020203D20005FF9
:10E140005F4156525F415243485F5F3D2000415658
:10E1500052204C696243205665723D20004743437C
:10E160002056657273696F6E203D20004350552024
:10E1700049442020202020203D20004C6F7720663D
:10E18000757365202020203D20004869676820665F
:10E190007573652020203D200045787420667573D6
:10E1A00065202020203D20004C6F636B2066757336
:10E1B000652020203D20004D617220203720323024
:10E1C000313300312E362E3800342E332E350056A2
:10E1D00023202020414444522020206F7020636F70
:10E1E00064652020202020696E73747275637469E1
:10E1F0006F6E2061646472202020496E74657272B3
:10E20000757074006E6F20766563746F7200726A49
:10E210006D702020006A6D70200057686174207056
:10E220006F72743A00506F7274206E6F7420737541
:10E2300070706F72746564004D7573742062652030
:10E2400061206C6574746572002000577269747483
:10E25000696E672045450052656164696E672045B7
:10E26000450045452065727220636E743D00504F35
:10E27000525400303D5A65726F2061646472003FF1
:10E280003D43505520737461747300403D454550C3
:10E29000524F4D207465737400423D426C696E6B41
:10E2A000204C454400453D44756D70204545505215
:10E2B0004F4D00463D44756D7020464C415348001B
:10E2C000483D48656C70004C3D4C69737420492F83
:10E2D0004F20506F72747300513D51756974005234
:10E2E0003D44756D702052414D00563D73686F7707
:10E2F00020696E7465727275707420566563746FF0
:10E30000727300593D506F727420626C696E6B00BD
:10E310002A0011241FBECFEFD1E2DEBFCDBF01E046
:10E320000CBF12E0A0E0B2E0EEE1FDEF03E00BBFB6
:10E3300002C007900D92A030B107D9F712E0A0E01B
:10E34000B2E001C01D92AE30B107E1F70F9460F367
:10E350000D948DFE01E20EBF0FEF0DBF11241FBE05
:10E360000D9460F30D9400F020E030E040ED57E0B4
:10E3700005C0FA013197F1F72F5F3F4F2817390792
:10E38000C0F308959C01260F311DC901A0E0B0E043
:10E390002F5F3F4FABBFFC018791882361F08093D3
:10E3A000C6008091C00086FFFCCF8091C0008064D1
:10E3B0008093C000EACF08958DE08093C6008091DD
:10E3C000C00086FFFCCF8091C00080648093C000B5
:10E3D0008AE08093C6008091C00086FFFCCF8091C8
:10E3E000C00080648093C00008950F94C2F10F9420
:10E3F000DCF10895FC019081992359F09093C600B7
:10E400008091C00086FFFCCF8091C0008064809323
:10E41000C0003196992379F70895282F982F929567
:10E420009F70892F805D8A3308F0895F8093C600D2
:10E430008091C00086FFFCCF8091C00080648093F3
:10E44000C000822F8F70982F905D9A3308F0995FEB
:10E450009093C6008091C00086FFFCCF8091C000E1
:10E4600080648093C00008959C01FB01853691056E
:10E470001CF46330710594F0C90164E670E00F94F8
:10E480002EFE605D7F4F6093C6008091C00086FFC6
:10E49000FCCF8091C00080648093C0002B30310598
:10E4A00014F43297B4F0C90164E670E00F942EFEC4
:10E4B0006AE070E00F942EFE605D7F4F6093C600AF
:10E4C0008091C00086FFFCCF8091C0008064809363
:10E4D000C000C9016AE070E00F942EFEC0968093E0
:10E4E000C6008091C00086FFFCCF8091C000806490
:10E4F0008093C00008951F93182F8EE692EE60E07F
:10E500000F94C2F11093C6008091C00086FFFCCF2B
:10E510008091C00080648093C0000F94DCF11F9153
:10E5200008952F923F924F925F926F927F928F92B7
:10E530009F92AF92BF92CF92DF92EF92FF920F9392
:10E540001F93DF93CF93CDB7DEB762970FB6F894E2
:10E55000DEBF0FBECDBF382E622ECA01DB015C01CB
:10E560006D01772420E2222E2E010894411C511CBB
:10E570008BC081E0A81680E0B80681E0C80680E084
:10E58000D80628F0C601AA27BB270F940DF2BB2797
:10E59000AD2D9C2D8B2D0F940DF28A2D0F940DF225
:10E5A0002092C6008091C00086FFFCCF8091C00001
:10E5B00080648093C0009DE29093C6008091C0006B
:10E5C00086FFFCCF8091C00080648093C0002092C1
:10E5D000C6008091C00086FFFCCF8091C00080649F
:10E5E0008093C00019828601750188249924A1E0D6
:10E5F0003A1651F03A1620F0B2E03B1661F409C029
:10E600000BBFF701779007C0C7010F9477FE782EF4
:10E6100002C0F7017080872D0F940DF22092C60082
:10E620008091C00086FFFCCF8091C0008064809301
:10E63000C000872D8052F401EF70F0708F3520F408
:10E64000E40DF51D708204C0E40DF51D8EE280839B
:10E650000894E11CF11C011D111D0894811C911CE2
:10E6600090E18916910409F0C2CF80E190E0A0E02A
:10E67000B0E0A80EB91ECA1EDB1E198AC2010F9493
:10E68000FAF10F94DCF16A94662009F072CF629679
:10E690000FB6F894DEBF0FBECDBFCF91DF911F91B3
:10E6A0000F91FF90EF90DF90CF90BF90AF909F9031
:10E6B0008F907F906F905F904F903F902F90089534
:10E6C0002F923F924F925F926F927F928F929F9282
:10E6D000AF92BF92CF92DF92EF92FF920F931F9370
:10E6E000DF93CF93CDB7DEB7CD53D1400FB6F894BB
:10E6F000DEBF0FBECDBF01E20EBF0FEF0DBF94B75F
:10E70000F894A89514BE80916000886180936000A1
:10E7100010926000789493FF05C0E0910002F091A0
:10E7200001021995279A2F9A8091C00082608093E8
:10E73000C00080E18093C40088E18093C1000000A4
:10E74000EE24FF24870144E0A42EB12CCC24DD2448
:10E7500024C0C5010197F1F70894E11CF11C011DCB
:10E76000111D21E2E2162EE4F20620E0020720E06D
:10E77000120718F031E0C32ED12CC801B70127ECE5
:10E780003BE140E050E00F9441FE611571058105C9
:10E79000910519F485B1805885B98091C00087FD35
:10E7A00003C0C114D104A9F2A6014F5F5F4FC25E3E
:10E7B000DE4F59834883CE51D140C25EDE4F8881FF
:10E7C0009981CE51D140019711F00D9410FEC05D9A
:10E7D000DE4F19821882C053D14060E0C15DDE4F28
:10E7E0001882CF52D14088249924C35DDE4F19820C
:10E7F0001882CD52D140C05EDE4F188219821A8233
:10E800001B82C052D140CE5CDE4F188219821A8220
:10E810001B82C253D140EE24FF2487010BBFF701B6
:10E8200007911691C45CDE4F19830883CC53D14005
:10E830000D940BFEC25EDE4F28813981CE51D1404E
:10E840002130310509F52091C600C25EDE4F1982E4
:10E850001882CE51D14022C02F5F3F4F4F4F5F4FA4
:10E86000213082E138078AE7480780E0580780F0C6
:10E87000C45CDE4FE881F981CC53D140EF5FFF4F9C
:10E8800019F0EE27FF27099420E030E040E050E047
:10E890008091C00087FFE0CF2091C600C35DDE4FAE
:10E8A00048815981CD52D1404F5F5F4FC35DDE4FEC
:10E8B00059834883CD52D140213209F063C64A3092
:10E8C000510508F05FC60894811C911C53E0851621
:10E8D000910409F059C600E010E018C081E280936D
:10E8E000C6008091C00086FFFCCF8091C00080648C
:10E8F0008093C0002F5F3F4F2931310579F70F9486
:10E90000DCF10F5F1F4F0530110519F020E030E0FA
:10E91000E5CF10920A0210920B0210920C02109294
:10E920000D02109206021092070210920802109235
:10E930000902109202021092030210920402109235
:10E9400005028FEE90EE60E00F94F5F180E191EE1C
:10E9500060E00F94C2F18091C00087FFFCCF9091DE
:10E96000C600903608F09F759032B8F09093C600BC
:10E970008091C00086FFFCCF8091C00080648093AE
:10E98000C000A0E2A093C6008091C00086FFFCCF2B
:10E990008091C00080648093C000983409F4D7C18E
:10E9A0009934B8F4923409F459C1933458F490333B
:10E9B00019F1903308F4E3C59F33A1F1903409F0C5
:10E9C000DEC5BDC0953409F470C1963409F0D7C5D1
:10E9D00098C1923509F42BC2933538F49C3409F46C
:10E9E000F5C1913509F0CBC518C2963509F445C279
:10E9F000993509F0C4C567C483E792EE62E00F94CD
:10EA0000F5F110920602109207021092080210927D
:10EA1000090210920A0210920B0210920C0210923C
:10EA20000D0213C18FE792EE62E00F94F5F18FEEC5
:10EA300090EE60E00F94F5F181E291EE60E00F94CA
:10EA4000C2F187EB91EE60E00F94F5F180E391EE77
:10EA500060E00F94C2F184EE90EE60E00F94F5F167
:10EA60008FE391EE60E00F94C2F186E090E061E008
:10EA700070E00F9434F20F94DCF18DE591EE60E0DC
:10EA80000F94C2F189EC91EE60E00F94F5F18EE401
:10EA900091EE60E00F94C2F183EC91EE60E00F9490
:10EAA000F5F18CE691EE60E00F94C2F18EE10F94E7
:10EAB0000DF288E90F940DF281E00F940DF20F949E
:10EAC000DCF18BE791EE60E00F94C2F119E0E0E039
:10EAD000F0E010935700E4918E2F0F940DF20F94F5
:10EAE000DCF18AE891EE60E00F94C2F1E3E0F0E03F
:10EAF00010935700E4918E2F0F940DF20F94DCF1D8
:10EB000089E991EE60E00F94C2F1E2E0F0E0109349
:10EB10005700E4918E2F0F940DF20F94DCF188EAE8
:10EB200091EE60E00F94C2F1E1E0F0E01093570045
:10EB30001491812F0F940DF20F94DCF107CF8BE825
:10EB400092EE62E00F94F5F18BE492EE60E00F94A8
:10EB5000F5F10F94DCF100E010E019C0C8016F2D51
:10EB60000F947FFEFF2031F489E492EE60E00F9471
:10EB7000C2F10BC0F092C6008091C00086FFFCCFAE
:10EB80008091C00080648093C0000F5F1F4FC80158
:10EB900081519F41A0E0B0E0ABBFFC01F790BAE229
:10EBA000FB1621F0E2E000301E07C1F60F94DCF105
:10EBB0000F94DCF187E592EE60E00F94F5F10F948D
:10EBC000DCF1CC24DD2400E010E01EC0C8010F946D
:10EBD00077FEF82E882331F489E492EE60E00F94FA
:10EBE000C2F10BC08093C6008091C00086FFFCCFAD
:10EBF0008091C00080648093C000FE1419F00894D6
:10EC0000C11CD11C0F5F1F4FC80181519F41A0E063
:10EC1000B0E0ABBFFC01E790FAE2EF1621F022E092
:10EC20000030120799F60F94DCF10F94DCF182E6C4
:10EC300092EE60E00F94C2F1C60161E070E00F94C3
:10EC400034F20F94DCF10F94DCF110920202109276
:10EC50000302109204021092050278CE89E992EE26
:10EC600062E00F94F5F1279A2F9A16C02F9880E052
:10EC700090E0E0EDF7E03197F1F7019684369105E9
:10EC8000C1F72F9A80E090E0E0EDF7E03197F1F7DF
:10EC9000019684369105C1F78091C00087FFE6CFC9
:10ECA0008091C00087FFFCCF64C485EA92EE62E0E9
:10ECB0000F94F5F140910202509103026091040219
:10ECC0007091050281E020E10F9491F2809102029F
:10ECD00090910302A0910402B091050280509F4FD1
:10ECE000AF4FBF4F8093020290930302A0930402A0
:10ECF000B093050280509041A040B04008F426CE69
:10ED0000A4CF83EB92EE62E00F94F5F140910602FE
:10ED100050910702609108027091090280E020E1A1
:10ED20000F9491F28091060290910702A09108023F
:10ED3000B091090280509F4FAF4FBF4F80930602A2
:10ED400090930702A0930802B0930902FFCD80ECD4
:10ED500092EE62E00F94F5F183E792EE60E00F949B
:10ED6000F5F18FE792EE60E00F94F5F18BE892EE0B
:10ED700060E00F94F5F189E992EE60E00F94F5F10F
:10ED800085EA92EE60E00F94F5F183EB92EE60E09D
:10ED90000F94F5F180EC92EE60E00F94F5F187ECC2
:10EDA00092EE60E00F94F5F188ED92EE60E00F9442
:10EDB000F5F18FED92EE60E00F94F5F18AEE92EEB0
:10EDC00060E00F94F5F183E093EEBDCD87EC92EE19
:10EDD00062E00F94F5F181E40F947BF282E40F94EA
:10EDE0007BF283E40F947BF284E40F947BF285E45E
:10EDF0000F947BF286E40F947BF287E40F947BF20E
:10EE000088E40F947BF28AE40F947BF28BE40F94F6
:10EE10007BF28CE40F947BF299CD88ED92EE62E068
:10EE20000F94F5F1772473948824992409C48FED05
:10EE300092EE62E00F94F5F140910A0250910B02BC
:10EE400060910C0270910D0282E020E10F9491F22A
:10EE500080910A0290910B02A0910C02B0910D02D8
:10EE600080509F4FAF4FBF4F80930A0290930B0289
:10EE7000A0930C02B0930D0269CD8AEE92EE62E08F
:10EE80000F94F5F184EE90EE60E00F94F5F18FECC5
:10EE900091EE60E00F94F5F1662477244301CC5D98
:10EEA000DE4F19821882C452D140D401C301B695F5
:10EEB000A79597958795CA5DDE4F88839983AA8326
:10EEC000BB83C652D140CC5DDE4FA881B981C4520C
:10EED000D1401196CC5DDE4FB983A883C452D14096
:10EEE000CD0162E070E00F9434F2B0E2B093C6005E
:10EEF0008091C00086FFFCCF8091C0008064809329
:10EF0000C000EDE2E093C6008091C00086FFFCCF18
:10EF10008091C00080648093C000F0E2F093C6004E
:10EF20008091C00086FFFCCF8091C00080648093F8
:10EF3000C000CA5DDE4FE880F9800A811B81C6529D
:10EF4000D140BB27A12F902F8F2D0F940DF2CA5DBA
:10EF5000DE4F8881C652D1400F940DF2B0E2FB2EF5
:10EF6000F092C6008091C00086FFFCCF8091C00067
:10EF700080648093C0000DE30093C6008091C000C0
:10EF800086FFFCCF8091C00080648093C00010E2B7
:10EF90001093C6008091C00086FFFCCF8091C00016
:10EFA00080648093C0008BBEF3012791C65DDE4F65
:10EFB0002883CA52D140A22EBB24CC24DD2408943D
:10EFC000611C711C811C911C8BBEF3018791282E42
:10EFD0003324442455240894611C711C811C911C09
:10EFE0008BBEF3013791C55DDE4F3883CB52D140E4
:10EFF0000894611C711C811C911C8BBEF30147910C
:10F00000C45DDE4F4883CC52D140ADEFEA2EAFEF66
:10F01000FA2EAFEF0A2FAFEF1A2F6E0C7F1C801E57
:10F02000911E142D032DF22CEE24EA0CFB1C0C1D5A
:10F030001D1D0F940DF220E22093C6008091C000A8
:10F0400086FFFCCF8091C00080648093C000C65DC5
:10F05000DE4F8881CA52D1400F940DF230E23093D6
:10F06000C6008091C00086FFFCCF8091C000806404
:10F070008093C000C45DDE4F8881CC52D1400F9494
:10F080000DF240E24093C6008091C00086FFFCCFA5
:10F090008091C00080648093C000C55DDE4F888190
:10F0A000CB52D1400F940DF250E25093C6008091A4
:10F0B000C00086FFFCCF8091C00080648093C000B8
:10F0C0008FEFE8168FEFF80680E0080780E018075A
:10F0D00031F484E092EE60E00F94C2F1DFC0D80119
:10F0E000C7018070907CA070B0708050904CA040A0
:10F0F000B040D1F52FEF3FE340E050E0E222F322B1
:10F1000004231523CA5DDE4FA880B980CA80DB8046
:10F11000C652D140AE0CBF1CC01ED11EAA0CBB1CD7
:10F12000CC1CDD1C8EE092EE60E00F94C2F1BB2798
:10F13000A12F902F8F2D0F940DF28E2D0F940DF285
:10F1400030E23093C6008091C00086FFFCCF8091F2
:10F15000C00080648093C0004EE34093C60080915D
:10F16000C00086FFFCCF87C08EE09EEFA0E0B0E03D
:10F17000E822F9220A231B239CE0E91694E9F90608
:10F1800090E0090790E0190709F088C0C45DDE4FE0
:10F19000A881CC52D140EA2EFF2400E010E0102FCD
:10F1A0000F2DFE2CEE24C55DDE4FB881CB52D14031
:10F1B000EB0EF11C011D111DD601C501817090706F
:10F1C000A070B070DC0199278827E80EF91E0A1F8D
:10F1D0001B1F20EF30E040E050E0A222B322C42207
:10F1E000D52241E1AA0CBB1CCC1CDD1C4A95D1F7F1
:10F1F000EA0CFB1C0C1D1D1D81E090E0A0E0B0E0BE
:10F20000282239224A225B2235E1220C331C441C7D
:10F21000551C3A95D1F7E20CF31C041D151D57013E
:10F220006801AA0CBB1CCC1CDD1C85E192EE60E0E1
:10F230000F94C2F1C801AA27BB270F940DF2BB2778
:10F24000A12F902F8F2D0F940DF28E2D0F940DF274
:10F2500090E29093C6008091C00086FFFCCF809121
:10F26000C00080648093C000AEE3A093C60080918C
:10F27000C00086FFFCCF8091C00080648093C000F6
:10F28000C601AA27BB270F940DF2BB27AD2D9C2DDD
:10F290008B2D0F940DF28A2D0F940DF20F94DCF14B
:10F2A000CC5DDE4FE881F981C452D140F99709F471
:10F2B0004DCBF4E0EF2EF12C012D112D6E0C7F1CA7
:10F2C000801E911EF2CD83E093EE62E00F94F5F183
:10F2D0008AE192EE60E00F94C2F18091C00087FF56
:10F2E000FCCF1091C6001F751093C6008091C0001E
:10F2F00086FFFCCF8091C00080648093C0000F9493
:10F30000DCF1812F81548A3108F036C1163409F4BA
:10F3100095C0173490F4133409F44EC0143430F40B
:10F320001134F1F0123409F01DC130C0143409F465
:10F3300059C0153409F016C16BC01A3409F4C4C0A1
:10F340001B3438F4173409F48FC0183409F00AC19B
:10F35000A1C01B3409F4D2C01C3409F003C1E8C0B9
:10F360008FEF81B90DC082B1809582B980E090E0C5
:10F37000E0EDF7E03197F1F70196883C9105C1F790
:10F380008091C00087FFEFCF12B8EFC08FEF84B934
:10F390000DC085B1809585B980E090E0E0EDF7E0A3
:10F3A0003197F1F70196883C9105C1F78091C00033
:10F3B00087FFEFCF15B8D9C08FEF87B90DC088B1DF
:10F3C000809588B980E090E0E0EDF7E03197F1F7C3
:10F3D0000196883C9105C1F78091C00087FFEFCF6F
:10F3E00018B8C3C08FEF8AB90DC08BB180958BB9A7
:10F3F00080E090E0E0EDF7E03197F1F70196883C8E
:10F400009105C1F78091C00087FFEFCF1BB8ADC059
:10F410008FEF8DB90DC08EB180958EB980E090E0F0
:10F42000E0EDF7E03197F1F70196883C9105C1F7DF
:10F430008091C00087FFEFCF1EB897C08FEF80BBD1
:10F440000DC081B3809581BB80E090E0E0EDF7E0F6
:10F450003197F1F70196883C9105C1F78091C00082
:10F4600087FFEFCF11BA81C08FEF83BB0DC084B38C
:10F47000809584BB80E090E0E0EDF7E03197F1F714
:10F480000196883C9105C1F78091C00087FFEFCFBE
:10F4900014BA6BC08FEF809301010FC080910201FD
:10F4A00080958093020180E090E0E0EDF7E03197F5
:10F4B000F1F70196883C9105C1F78091C00087FF64
:10F4C000EDCF1092020151C08FEF809304010FC065
:10F4D0008091050180958093050180E090E0E0ED4A
:10F4E000F7E03197F1F70196883C9105C1F78091DB
:10F4F000C00087FFEDCF1092050137C08FEF8093DA
:10F5000007010FC08091080180958093080180E079
:10F5100090E0E0EDF7E03197F1F70196883C910536
:10F52000C1F78091C00087FFEDCF109208011DC088
:10F530008FEF80930A010FC080910B01809580931B
:10F540000B0180E090E0E0EDF7E03197F1F70196F4
:10F55000883C9105C1F78091C00087FFEDCF1092E4
:10F560000B0103C085E292EEEEC98091C00087FFD7
:10F57000FCCF8091C600EAC988E392EEE4C98CE131
:10F5800091EEE1C988249924933011F1943028F444
:10F59000913089F09230B8F408C0953061F195301F
:10F5A000F0F0963009F048C043C02B3109F042C951
:10F5B00091E06BE13FC96227C15DDE4F2883CF52E6
:10F5C000D14092E037C9B22FA0E0622793E032C960
:10F5D000822F90E0A82BB92B622794E02BC92E3004
:10F5E00009F039C3622795E0C05DDE4F19821882A9
:10F5F000C053D1401FC9E1E0F0E0EC0FFD1FC05D3A
:10F60000DE4F08811981C053D140E00FF11F2083E4
:10F610000F5F1F4FC05DDE4F19830883C053D14079
:10F6200062270A171B0709F005C9D80196E002C92D
:10F63000261709F010C303C0973009F0FBC87724E0
:10F640009981933109F412C19431C8F4963009F4C8
:10F65000D8C0973050F4923009F406C1933009F4C1
:10F660006DC0913009F059C253C0913109F477C08F
:10F67000923108F0BBC0903109F04FC2F5C098310B
:10F6800009F487C0993150F4953109F4EFC09531F0
:10F6900008F4C6C1963109F040C2C2C19A3109F4DA
:10F6A0006CC09A3108F491C09B3109F45BC09D3164
:10F6B00009F033C29D81903359F48F81882311F46E
:10F6C0009EE11CC0813011F091E018C098E916C08D
:10F6D000892F807591F0903539F4E0E0F0E089E011
:10F6E0008093570094910AC0983539F4E3E0F0E034
:10F6F00089E080935700949101C090E01A821B82A8
:10F700008D818C831D829E831F8227E030E009C299
:10F710001A8288E08B8381E48C8386E58D8382E581
:10F720008E8389E48F8383E5888780E589878FE5E9
:10F730008A8782E38B872BE030E0F3C18A818139AD
:10F7400041F0823941F0803911F48FE005C080E04A
:10F7500003C082E001C08AE01A828B8344C0772410
:10F76000739482C08D81882311F48EE12CC0813086
:10F7700011F081E028C088E926C01A82E1E0F0E0BB
:10F7800089E08093570084918B831C8224E030E0D1
:10F79000C8C18B81803589F48C81883039F4E2E0EE
:10F7A000F0E089E08093570084910DC0E0E0F0E044
:10F7B00089E080935700849106C0E3E0F0E089E09F
:10F7C0008093570084911A82DFCF8D81836C99E0FA
:10F7D000E1E0F0E0082E90935700E89507B600FCB2
:10F7E000FDCF1A821B8223E030E09BC180EC8A832C
:10F7F000CE5CDE4F188219821A821B82C253D1401E
:10F800008EC18A8190E0A0E0B0E0582F44273327D2
:10F8100022278B8190E0A0E0B0E0DC0199278827C7
:10F82000282B392B4A2B5B2B8D8190E0A0E0B0E098
:10F83000282B392B4A2B5B2B8C8190E0A0E0B0E089
:10F84000BA2FA92F982F8827282B392B4A2B5B2BCF
:10F85000220F331F441F551FC05EDE4F288339839C
:10F860004A835B83C052D1401A8259C13A81C95C34
:10F87000DE4F3883C753D140CA5CDE4F1882C6536F
:10F88000D1408B81C82EDD24CA5CDE4F488159816E
:10F89000C653D140C42AD52A933109F082C0CE5C28
:10F8A000DE4F88819981AA81BB81C253D1408050AB
:10F8B000904CA340B04030F583E0CE5CDE4FE88052
:10F8C000F9800A811B81C253D140F70100935B008C
:10F8D00080935700E89507B600FCFDCFCE5CDE4F65
:10F8E000088119812A813B81C253D14000501F4FAA
:10F8F0002F4F3F4FCE5CDE4F088319832A833B8313
:10F90000C253D140C05EDE4F488159816A817B81FC
:10F91000C052D140DE011B9631E08C9111962C91A2
:10F9200011971296C75CDE4F2883C953D140C85C3B
:10F93000DE4F1882C853D14090E0C85CDE4FE881AA
:10F94000F981C853D1408E2B9F2B0C01FA01609393
:10F950005B0030935700E89511244E5F5F4F6F4F67
:10F960007F4F0EEFE02E0FEFF02ECE0CDF1CC114F8
:10F97000D10499F685E0C05EDE4F088119812A81A5
:10F980003B81C052D140F80120935B008093570027
:10F99000E89507B600FCFDCF81E180935700E8951C
:10F9A00035C0C05EDE4F88819981AA81BB81C0527B
:10F9B000D140B695A795979587957C018601ABE0D8
:10F9C000AA2EB12CAC0EBD1E0BC0D5016D915D01F0
:10F9D000C7010F947FFE0894E11CF11C01501040F8
:10F9E0000115110591F7A60160E070E0440F551F65
:10F9F000661F771FC05EDE4FE880F9800A811B8199
:10FA0000C052D1404E0D5F1D601F711F1A82C05E33
:10FA1000DE4F488359836A837B83C052D1407FC0C5
:10FA2000FA80C55CDE4FF882CB53D140C65CDE4F16
:10FA30001882CA53D1408B81C82EDD24C65CDE4FAC
:10FA400008811981CA53D140C02AD12A1A828981DA
:10FA5000BE016D5F7F4F843121F59601C05EDE4FA0
:10FA6000E880F9800A811B81C052D1400BBFF701A9
:10FA700087919691DB018C9311969C936E5F7F4FDB
:10FA8000D801C7010296A11DB11DC05EDE4F88835B
:10FA90009983AA83BB83C052D14022503040F1F6F3
:10FAA00036C0C05EDE4F288139814A815B81C052F9
:10FAB000D1400894C108D108760100E010E0089414
:10FAC000C11CD11C0894E11CF11C011D111DE20E8A
:10FAD000F31E041F151F21BDBB27A52F942F832FB5
:10FAE00082BD2F5F3F4F4F4F5F4FF89A80B5DB01CC
:10FAF0008D93BD012E153F054007510761F7C05E8C
:10FB0000DE4F288339834A835B83C052D1409601FC
:10FB10002D5F3F4FFB01108204C080EC8A8322E0FE
:10FB200030E08BE18093C6008091C00086FFFCCF5F
:10FB30008091C00080648093C000C15DDE4FF88179
:10FB4000CF52D140F093C6008091C00086FFFCCF19
:10FB50008091C00080648093C000432F3093C60022
:10FB60008091C00086FFFCCF8091C00080648093AC
:10FB7000C000922F2093C6008091C00086FFFCCF6A
:10FB80008091C00080648093C0008EE08093C600A6
:10FB90008091C00086FFFCCF8091C000806480937C
:10FBA000C00065E1C15DDE4FE880CF52D1406E25D7
:10FBB00069276427FE01319610C090819093C6009A
:10FBC0008091C00086FFFCCF31968091C000806498
:10FBD0008093C0006927215030402115310569F715
:10FBE0006093C6008091C00086FFFCCF8091C0006A
:10FBF00080648093C00085B1805885B9772081F4F6
:10FC0000C15DDE4F0881CF52D1400F5FC15DDE4F35
:10FC10000883CF52D14090E0A0E0B0E00D941AF4F8
:10FC200027982F9880E090E020ED37E0F901319798
:10FC3000F1F7019684369105C9F700008091C00064
:10FC40008D7F8093C00081E180935700E895EE2777
:10FC5000FF270994FFCF90E00D941AF497FB092E2B
:10FC600007260AD077FD04D02ED006D000201AF443
:10FC7000709561957F4F0895F6F7909581959F4F08
:10FC80000895A1E21A2EAA1BBB1BFD010DC0AA1FDD
:10FC9000BB1FEE1FFF1FA217B307E407F50720F0F5
:10FCA000A21BB30BE40BF50B661F771F881F991F70
:10FCB0001A9469F760957095809590959B01AC01B9
:10FCC000BD01CF010895AA1BBB1B51E107C0AA1FAC
:10FCD000BB1FA617B70710F0A61BB70B881F991FED
:10FCE0005A95A9F780959095BC01CD010895F99991
:10FCF000FECF92BD81BDF89A992780B50895262F31
:10FD0000F999FECF1FBA92BD81BD20BD0FB6F89400
:0EFD1000FA9AF99A0FBE01960895F894FFCF63
:040000033000E000E9
:00000001FF
