:100000000C948F010C94B7010C94B7010C94B701B8
:100010000C94B7010C94B7010C94B7010C94B70180
:100020000C94B7010C94B7010C94B7010C94C90659
:100030000C94B7010C94B7010C94B7010C94B70160
:100040000C947F060C94B7010C944D060C94270673
:100050000C94B7010C948A070C94B7010C94B70167
:100060000C94B7010C94B701636D64203E20002D01
:100070002D2D007C20003D007372765F696E695FF4
:10008000636C72003D006C6F675F6D6F6465003D6F
:10009000006673725F696E76003D006673725F681A
:1000A00069003D006673725F6C6F003D006673729D
:1000B0005F736C6F77003D006673725F6661737487
:1000C000003D00666F726D00726F6D2023207265B7
:1000D000706F72742073657474696E6773006C6FEF
:1000E00067206D6F6465204E4E2023206368616E2B
:1000F0006765206C6F67676572206D6F646520743B
:100100006F204E4E0073727620636C72204E4E202C
:100110002320726F7461746520636C65616E657213
:1001200020736572766F20746F204E4E2064656771
:10013000726565730066737220696E7620422023B3
:10014000206368616E6765206F75747075742069CF
:100150006E76657274206D6F646520746F20302038
:100160006F72203100667372206869204E4E202322
:100170002073657420617667206576656E742075DE
:1001800070706572207472696767657220746F2081
:100190004E4E00667372206C6F204E4E20232073EB
:1001A000657420617667206576656E74206C6F7764
:1001B0006572207472696767657220746F204E4E95
:1001C0000066737220736C6F77204E4E202320736D
:1001D00065742061766720736C6F77207261746537
:1001E00020746F204E4E0066737220666173742017
:1001F0004E4E2023207365742061766720666173FC
:1002000074207261746520746F204E4E002D2D2D68
:1002100068656C702D2D2D006D6F646500696E76BC
:10022000006869006C6F00736C6F770066617374AF
:1002300000636C7200696E6900636C7200000000FC
:100240000800020100000304070000000000000095
:10025000006D616B653A2041756720203220323095
:1002600031372031383A35303A313500443D252D8B
:100270002B33692000463D2534692F252D32692016
:10028000004240252D386C75207C2000503D252DE6
:10029000346C752000473D25326920004540252DEE
:1002A000386C75207C2000533D2534692F252D3274
:1002B00069200043256920004C3D252D346C7520B4
:1002C0007C20005440252D386C75207C2000636D07
:1002D00064202320747970653A2068656C70000092
:1002E000000000250028002B00000000002400274B
:1002F000002A0004040404040404040202020202AA
:1003000002030303030303010204081020408001D9
:10031000020408102001020408102000830F112499
:100320001FBECFEFD4E0DEBFCDBF11E0A0E0B1E053
:10033000ECE3FCE202C005900D92A634B107D9F7B8
:1003400022E0A6E4B1E001C01D92AD3BB207E1F7A7
:1003500011E0CFE8D1E004C02197FE010E94D4143F
:10036000CE38D107C9F70E9402090C941C160C94D0
:100370000000CF92DF92EF92FF920F931F93CF93E3
:10038000DF936C017A018B01C0E0D0E0CE15DF0570
:1003900089F0D8016D918D01D601ED91FC9101900C
:1003A000F081E02DC6010995892B11F47E0102C070
:1003B0002196ECCFC701DF91CF911F910F91FF9054
:1003C000EF90DF90CF900895089580E090E0089539
:1003D000FC01538D448D252F30E0842F90E0821B4B
:1003E000930B541710F0CF96089501970895FC01D0
:1003F000918D828D981761F0828DDF01A80FB11D5C
:100400005D968C91928D9F5F9F73928F90E008957F
:100410008FEF9FEF0895FC01918D828D981731F039
:10042000828DE80FF11D858D90E008958FEF9FEF8D
:100430000895FC01918D228D892F90E0805C9F4F63
:10044000821B91098F73992708958CEE91E00E9489
:10045000190221E0892B09F420E0822F0895FC0184
:10046000848DDF01A80FB11DA35ABF4F2C91848D3D
:1004700090E001968F739927848FA689B7892C9372
:10048000A089B1898C9180648C93938D848D98130D
:1004900006C00288F389E02D80818F7D80830895D6
:1004A000EF92FF920F931F93CF93DF93EC0181E0C4
:1004B000888F9B8D8C8D981305C0E889F989808180
:1004C00085FD24C0F62E0B8D10E00F5F1F4F0F73BC
:1004D0001127E02E8C8DE8120CC00FB607FCFACF66
:1004E000E889F989808185FFF5CFCE010E942F022E
:1004F000F1CF8B8DFE01E80FF11DE35AFF4FF08223
:100500000B8FEA89FB898081806207C0EE89FF89B1
:100510006083E889F98980818064808381E090E04C
:10052000DF91CF911F910F91FF90EF900895CF939E
:10053000DF93EC01888D8823C9F0EA89FB898081EB
:1005400085FD05C0A889B9898C9186FD0FC00FB6BD
:1005500007FCF5CF808185FFF2CFA889B9898C91FE
:1005600085FFEDCFCE010E942F02E7CFDF91CF9123
:10057000089580E090E0892B29F00E9425028111E6
:100580000C940000089590E0FC01E35CFD4F349171
:10059000FC01E95FFC4F2491FC01ED50FD4FE4911B
:1005A000EE2309F43BC0332339F1333091F038F4B2
:1005B0003130A9F0323001F584B58F7D12C037306B
:1005C00091F03830A1F03430B9F4809180008F7D03
:1005D00003C0809180008F77809380000DC084B528
:1005E0008F7784BD09C08091B0008F7703C0809160
:1005F000B0008F7D8093B000F0E0EE0FFF1FE1525E
:10060000FD4FA591B4918FB7F894EC91611103C09F
:1006100020952E2301C02E2B2C938FBF08952FB72A
:10062000F89460914D0170914E0180914F0190912D
:1006300050012FBF0895CF93C091C5016C2F8DE05D
:100640000E94C30280910001882311F081E0C82735
:100650006C2F8CE0CF910C94C302CF93DF9300D02A
:10066000CDB7DEB742E050E062E070E0CE01019627
:100670000E94F61389819A8190931201809311014F
:1006800042E050E064E070E0CE0101960E94F61373
:10069000209111013091120189819A81820F931F5B
:1006A0009093B4028093B30242E050E068E070E0BF
:1006B0008BE091E00E94F61342E050E066E070E0CB
:1006C00089E091E00E94F61341E050E06AE070E0BA
:1006D00080E091E00E94F61342E050E06BE070E0B1
:1006E00083EC91E00E94F6130F900F90DF91CF9171
:1006F00008950E94071683E790E00C94BE070C94BF
:10070000BE07CF93DF93CDB7DEB72F970FB6F89420
:10071000DEBF0FBECDBF42E050E060E070E0CE0132
:100720000D960E94F61383EC90E00E947F0381EC0B
:1007300090E00E947F038D859E850E94DF0742E046
:1007400050E062E070E0CE010B960E94F61388EB59
:1007500090E00E947F0386EB90E00E947F038B85F0
:100760009C850E94DF0742E050E064E070E0CE012B
:1007700009960E94F6138DEA90E00E947F038BEAAF
:1007800090E00E947F0389859A850E94DF0742E0FE
:1007900050E066E070E0CE0107960E94F61384EA0E
:1007A00090E00E947F0382EA90E00E947F038F81A5
:1007B00098850E94DF0742E050E068E070E0CE01DB
:1007C00005960E94F6138BE990E00E947F0389E969
:1007D00090E00E947F038D819E810E94DF0741E0AF
:1007E00050E06AE070E0CE010F960E94F61381E9B6
:1007F00090E00E947F038FE890E00E947F038F8546
:1008000090E00E94DF0742E050E06BE070E0CE0134
:1008100003960E94F61386E890E00E947F0384E826
:1008200090E00E947F038B819C810E94DF0742E061
:1008300050E06DE070E0CE0101960E94F61388E76B
:1008400090E00E947F0386E790E00E947F03898109
:100850009A810E94DF072F960FB6F894DEBF0FBE75
:10086000CDBFDF91CF9108950C948103CF92DF9299
:10087000EF92FF920F931F93CF93DF938C017B0135
:1008800086E090E00E94DA14EC019093C901809315
:10089000C801F80101900020E9F7CF01801B910BFE
:1008A0000E94DA146C01B8010E941516F80101903B
:1008B0000020E9F73197E01BF10BEC0DFD1D1082D4
:1008C000D982C882FB82EA828091510190915201C3
:1008D0009D838C83D0935201C0935101DF91CF91BE
:1008E0001F910F91FF90EF90DF90CF900895DC0162
:1008F000ED91FC910190F081E02D09946115710555
:1009000079F0FB0101900020E9F73197AF01461B18
:10091000570BDC01ED91FC910280F381E02D0994ED
:1009200080E090E008956BE271E00C947E040F93F8
:100930001F93CF93DF93CDB7DEB7E2970FB6F8944E
:10094000DEBF0FBECDBF8091EA019091EB010E9406
:1009500093046FE670E0CE0101960E941F11009192
:10096000EA011091EB01BE016F5F7F4FC8010E9449
:100970007E04C8010E94930468E670E0CE010196EF
:100980000E941F11BE016F5F7F4F8091EA0190911D
:10099000EB010E947E04E2960FB6F894DEBF0FBE14
:1009A000CDBFDF91CF911F910F9108950E94BE0797
:1009B0006BE271E08CEE91E00C947E048DE092E0AD
:1009C0000E94D60487EE91E00E94D60481EC91E06B
:1009D0000E94D60483E991E00E94D60485E691E066
:1009E0000E94D60485E391E00E94D60485E091E060
:1009F0000E94D6048EED90E00E94D60488EC90E030
:100A00000C94D6040C94DE048F929F92AF92BF9206
:100A1000EF92FF920F931F93CF93DF9300D0CDB748
:100A2000DEB78B0103971CF40E94DE0443C04AE04A
:100A300050E060E070E0F801848195810E94FC0F35
:100A40004B015C01F801E280F38069E372E0C701C9
:100A50000E941611892B41F4F5EB8F16910420F4B6
:100A6000C4010E945F0826C065E372E0C7010E94CE
:100A70001611892BC9F661E372E0F8018481958132
:100A80000E941611892B81F64AE050E060E070E088
:100A9000F801868197810E94FC0F653B710520F665
:100AA0007A83698342E050E06DE070E0CE01019608
:100AB0000E9406140F900F90DF91CF911F910F911C
:100AC000FF90EF90BF90AF909F908F900895CF923E
:100AD000DF92EF92FF920F931F93CF93DF9300D09B
:100AE000CDB7DEB78B0103971CF40E94DE0465C00E
:100AF0004AE050E060E070E0F801848195810E9456
:100B0000FC0F6B017C01F801028113816CE272E041
:100B1000C8010E941611892B59F4C6010297079744
:100B200038F4DA82C98242E050E062E070E041C00D
:100B300067E272E0C8010E941611892B59F4C601C0
:100B40000397079738F4DA82C98242E050E064E004
:100B500070E02FC064E272E0C8010E941611892B78
:100B600039F4DA82C98242E050E066E070E021C0E8
:100B700061E272E0C8010E941611892B39F4DA8211
:100B8000C98242E050E068E070E013C06DE172E0BD
:100B9000C8010E941611892B09F0A7CFF2E0CF16E9
:100BA000D10408F0A2CFDA82C98241E050E06AE0C5
:100BB00070E0CE0101960E9406140F900F90DF9115
:100BC000CF911F910F91FF90EF90DF90CF900895FC
:100BD000CF92DF92EF92FF920F931F93CF93DF9309
:100BE00000D0CDB7DEB78B0103971CF40E94DE0462
:100BF0001EC04AE050E060E070E0F8018481958119
:100C00000E94FC0F6B017C0168E172E0F8018281B7
:100C100093810E941611892B49F7DA82C98242E03A
:100C200050E06BE070E0CE0101960E9406140F9038
:100C30000F90DF91CF911F910F91FF90EF90DF9078
:100C4000CF900895BC018CEE91E00C947E041F922D
:100C50000F920FB60F9211242F933F934F935F93F0
:100C60006F937F938F939F93AF93BF93EF93FF9374
:100C70008CEE91E00E942F02FF91EF91BF91AF9116
:100C80009F918F917F916F915F914F913F912F91A4
:100C90000F900FBE0F901F9018951F920F920FB6D6
:100CA0000F9211242F938F939F93EF93FF93E091D3
:100CB000FC01F091FD018081E0910202F0910302BC
:100CC00082FD12C09081809105028F5F8F73209109
:100CD0000602821751F0E0910502F0E0E451FE4F68
:100CE000958F8093050201C08081FF91EF919F91C4
:100CF0008F912F910F900FBE0F901F9018951F92FC
:100D00000F920FB60F9211242F933F938F939F93BF
:100D1000AF93BF9380914D0190914E01A0914F01EF
:100D2000B091500130914C0123E0230F2D3720F476
:100D30000196A11DB11D05C026E8230F0296A11D35
:100D4000B11D20934C0180934D0190934E01A093CF
:100D50004F01B09350018091480190914901A091B9
:100D60004A01B0914B010196A11DB11D809348012C
:100D700090934901A0934A01B0934B01BF91AF9169
:100D80009F918F913F912F910F900FBE0F901F90C9
:100D900018951F920F920FB60F9211242F933F9325
:100DA0004F935F936F937F938F939F93AF93BF9373
:100DB000EF93FF938091470187FF05C01092850054
:100DC000109284001BC020914701022E000C330BAF
:100DD0008091AD0290E02817390784F48091470193
:100DE000082E000C990BFC01EE0FFF1F8E0F9F1FAA
:100DF000FC01E757FD4F808186FD15C080914701BA
:100E00008F5F8093470120914701022E000C330B26
:100E10008091AD0290E028173907C4F48091470112
:100E20008C3064F113C080914701082E000C990B9F
:100E3000FC01EE0FFF1F8E0F9F1FFC01E757FD4FB8
:100E4000808160E08F730E94C302D8CF80918400BC
:100E500090918500049680349C4918F480E49CE9C4
:100E600005C080918400909185000496909389003C
:100E7000809388008FEF809347013BC020918400CE
:100E80003091850080914701082E000C990BFC01E0
:100E9000EE0FFF1F8E0F9F1FFC01E757FD4F818153
:100EA0009281820F931F9093890080938800809194
:100EB0004701082E000C990BFC01EE0FFF1F8E0F4F
:100EC0009F1FFC01E757FD4F808186FF12C0809174
:100ED0004701082E000C990BFC01EE0FFF1F8E0F2F
:100EE0009F1FFC01E757FD4F808161E08F730E94D7
:100EF000C302FF91EF91BF91AF919F918F917F912D
:100F00006F915F914F913F912F910F900FBE0F9076
:100F10001F9018951F920F920FB60F9211242F93C6
:100F20003F938F93EF93FF93809146012091780038
:100F300030917900E82FF0E0EE0FFF1FEF5FFE4FDA
:100F4000318320838F5F843018F48093460102C080
:100F50001092460180914601806480937C008091CC
:100F60007A00806480937A00FF91EF918F913F9196
:100F70002F910F900FBE0F901F9018950F931F93F6
:100F8000CF93DF938C01C0E0D0E0F801EC0FFD1FA0
:100F90006491662371F0E091EC01F091ED01019014
:100FA000F081E02D8CEE91E00995892B11F02196CE
:100FB000ECCFCE01DF91CF911F910F9108958F92C9
:100FC0009F92AF92BF92CF92DF92EF92FF920F93D8
:100FD0001F93CF93DF93CDB7DEB7A1970FB6F894E9
:100FE000DEBF0FBECDBF6C01990FEE08FF08F7FE04
:100FF0002DC06DE28CEE91E00E9477048C012227D7
:101000003327A9012C193D094E095F0919A2CE0108
:1010100081967C019AE0892E912CA12CB12CCA01D9
:10102000B901A50194010E942E14605DF70162933D
:101030007F01211531054105510589F7BF018CEE6E
:1010400091E00E947E04080F191F20C0A70196019D
:1010500019A28E010F5D1F4F8AE0C82ED12CE12C02
:10106000F12CCA01B901A70196010E942E14605DFE
:10107000F80162938F01211531054105510589F76A
:10108000BF018CEE91E00E947E048C018CEE91E019
:101090000E949304800F911FA1960FB6F894DEBFB3
:1010A0000FBECDBFDF91CF911F910F91FF90EF90B9
:1010B000DF90CF90BF90AF909F908F900895CF9288
:1010C000DF92EF92FF92DC01A03282E0B8070CF0D1
:1010D0003EC0B7FD06C0A53BB1052CF0A4EBB0E0C7
:1010E00002C0A0E0B0E08091B10228E830E06901E0
:1010F000C81AD10887FDD394CC0CDD1CCC0CDD1CA8
:101100000D2C000CEE08FF088091B20228E532E0B9
:10111000281B310987FD3395220F331F220F331F00
:10112000A901330F660B770B9A01AB012C193D090E
:101130004E095F090E947A1424EB30E040E050E051
:101140000E945014C20ED31EE41EF51ED6019091CB
:10115000B0029C3098F58091B10248E850E0481BFD
:10116000510987FD5395440F551F440F551FA41770
:10117000B5078CF08091B20228E532E0281B3109D6
:1011800087FD3395220F331F220F331FAD012A171E
:101190003B070CF4A90142505109440F551F2FB7CA
:1011A000F894892F90E0FC01EE0FFF1F8E0F9F1F18
:1011B000FC01E757FD4F528341832FBFFF90EF9013
:1011C000DF90CF90089590E0FC01E95FFC4F2491FF
:1011D000FC01ED50FD4F8491882399F090E0880F39
:1011E000991FFC01E751FD4FA591B491FC01E1521B
:1011F000FD4F859194918FB7F894EC91E22BEC938D
:101200008FBF0895CF93DF93CDB7DEB7C458D10910
:101210000FB6F894DEBF0FBECDBF789484B5826060
:1012200084BD84B5816084BD85B5826085BD85B58A
:10123000816085BD80916E00816080936E00109208
:101240008100809181008260809381008091810083
:101250008160809381008091800081608093800014
:101260008091B10084608093B1008091B000816072
:101270008093B00080917A00846080937A0080919E
:101280007A00826080937A0080917A0081608093F6
:101290007A0080917A00806880937A001092C10071
:1012A000E091FC01F091FD0182E08083E091F80182
:1012B000F091F9011082E091FA01F091FB0180E1D7
:1012C000808310920402E0910002F091010286E016
:1012D0008083E091FE01F091FF0180818061808335
:1012E000E091FE01F091FF01808188608083E091B0
:1012F000FE01F091FF01808180688083E091FE0112
:10130000F091FF0180818F7D80838CEE91E00E94BF
:10131000930481E592E00E94D60442E050E060E050
:1013200070E0CE01CD960E94F6138DAD9EAD0A976A
:1013300009F458C084E090E09A83898342E050E049
:1013400062E070E0CE0101960E94061407E010E012
:101350001A83098342E050E064E070E0CE01019618
:101360000E9406141A83098342E050E066E070E0B0
:10137000CE0101960E9406148EE090E09A83898344
:1013800042E050E068E070E0CE0101960E94061451
:1013900081E0898341E050E06AE070E0CE0101968F
:1013A0000E9406141A82198242E050E06BE070E05D
:1013B000CE0101960E9406141A82198242E050E082
:1013C0006DE070E0CE0101960E9406148AE090E084
:1013D0009A83898342E050E060E070E0CE0101969C
:1013E0000E9406140E9481030E942D038CEE91E05E
:1013F0009093EB018093EA018AEC91E09093E901EC
:101400008093E801109252011092510168EE75E04C
:101410008EE291E00E94360467E675E082E391E097
:101420000E94360464E075E086E391E00E94360491
:1014300064E374E08AE391E00E94360462E075E0C0
:101440008EE391E00E9436040E94970410927C0083
:1014500080917C00806480937C0010927A0080915F
:101460007A00806880937A0080917A008860809307
:101470007A0080917A00856080937A0010927B00D8
:1014800080917B0080937B0010927E007894809105
:101490007A00806480937A000E941B038DE00E9492
:1014A000E3088CE00E94E3088091B0028C3008F0E1
:1014B00050C08BE00E94E3088091B002E82FF0E07A
:1014C0009F01220F331FE20FF31FE757FD4F90815B
:1014D000907C9B6090831092B1021092B2026CE0FB
:1014E0000E94C8142CE0829FB001112440E050E01B
:1014F0009A01260F371FF901EE0FFF1F2E0F3F1F16
:10150000F901E757FD4F908196FD16C04F5F5F4F81
:101510004C30510569F781110FC01092800082E0B4
:10152000809381001092850010928400B19A80917E
:101530006F00826080936F00E091B002F0E0CF0115
:10154000880F991FE80FF91FE757FD4F80818064CE
:10155000808342E050E06DE070E0CE0101960E9491
:10156000F61389819A810E945F08E1E0F1E043E986
:1015700051E0E1965FAF4EAFE19783E691E0EB96E5
:101580009FAF8EAFEB972BE931E0E3963FAF2EAFE5
:10159000E39743E551E0EF965FAF4EAFEF9783EBF4
:1015A00091E0E5969FAF8EAFE59743E8E42E41E0EA
:1015B000F42EABEBB1E0E996BFAFAEAFE99723E70E
:1015C00031E0C158DF4F39832883CF57D0408D0198
:1015D0006C014BE951E0ED965FAF4EAFED9783E9BB
:1015E00091E0E7969FAF8EAFE797F8948081918165
:1015F0008F3FAFEF9A0739F022242A94322C3182A0
:10160000208221E001C020E07894222309F4E0C088
:10161000EB96AEADBFADEB974D915D916D917C9129
:101620004C01092E000CAA08BB08480D591D6A1D63
:101630007B1DE796AEADBFADE7972D913C9111971D
:101640002901330F66087708441955096609770997
:10165000709011011A012B01072C04C05594479476
:10166000379427940A94D2F72D923C92EB96AEAD24
:10167000BFADEB974D935D936D937C931397EF966E
:10168000AEADBFADEF974D915D916D917C919C0199
:101690002219330937FF03C031952195310919010A
:1016A000330F44085508420D531D641D751DED96FA
:1016B000AEADBFADED972D913C9111971901330F50
:1016C0004408550842195309640975091A012B0188
:1016D00004C055944794379427947A94D2F7CF57FF
:1016E000DF4F288239824A825B82C158D0402D92D6
:1016F0003C92EF96AEADBFADEF974D935D936D937A
:101700007C931397D7014D915D916D917C91840EDF
:10171000951EA61EB71ED6012D913C911197A901C9
:10172000330F660B770B841A950AA60AB70A209125
:10173000B30224013501022E04C0759467945794B6
:1017400047940A94D2F74D925C92D7018D929D9264
:10175000AD92BC921397C158DF4FA881B981CF5782
:10176000D0404D915D916D917C918419950997FFC1
:1017700003C09195819591094C01990FAA08BB0866
:10178000840E951EA61EB71ED8016D917C911197EF
:10179000AB01770F660B770B14012501241A350A6C
:1017A000460A570A5201410104C0B594A794979480
:1017B00087942A95D2F78D929C92C158DF4FA881C9
:1017C000B981CF57D0402D923D924D925C921397A4
:1017D0003296E7962EAD3FADE7972E5F3F4FE796E7
:1017E0003FAF2EAFE797EB964EAD5FADEB974C5FFB
:1017F0005F4FEB965FAF4EAFEB97ED968EAD9FAD23
:10180000ED970296ED969FAF8EAFED97EF96AEAD4A
:10181000BFADEF971496EF96BFAFAEAFEF97B2E0C4
:10182000CB0ED11C24E0E20EF11C0E5F1F4FC158FD
:10183000DF4F48815981CF57D0404C5F5F4FC1582F
:10184000DF4F59834883CF57D04051E0E930F50747
:1018500009F0CBCE6BEB71E023EBC22E21E0D22E50
:10186000E3E9F1E040E050E080E090E02191319147
:10187000D601ED90FD906D01DB010D911D91BD0133
:101880002E193F0937FF03C0319521953109820F89
:10189000931F400F511FB1E0EB39FB0739F7841B51
:1018A000950B9093AC018093AB012091090130918D
:1018B0000A0140910B0150910C01841795070CF41B
:1018C00005C14091C501411119C381E08093C50153
:1018D0000E941B030E940F036093A3017093A40155
:1018E0008093A5019093A6018091C3019091C401BA
:1018F0008F719927892B09F471C10E940F039F935F
:101900008F937F936F9381E892E09F938F938E01E3
:10191000035C1F4F1F930F930E945211C8010E9436
:1019200022068091C3010FB6F894DEBF0FBECDBF73
:1019300080FF19C08091AC018F938091AB018F9390
:1019400085E992E09F938F931F930F930E9452110A
:10195000C8010E9422060E947B030F900F900F90F7
:101960000F900F900F908091C3019091C4018E70E1
:101970009927892B09F42EC18BEBA82E81E0B82E74
:1019800093EBC92E91E0D92EE12CF12CFF92EF922E
:10199000A3EBB2E0BF93AF931F930F930E9452113A
:1019A000C8010E9422068091C3010F900F900F90F2
:1019B0000F900F900F9081FF22C0E396AEADBFADA8
:1019C000E39711968C9111978F938C918F93E19659
:1019D000EEADFFADE19781818F9380818F93A5E775
:1019E000B2E0BF93AF931F930F930E945211C801AF
:1019F0000E9422060FB6F894DEBF0FBECDBF8091C5
:101A0000C30182FF1CC0D50111968C9111978F9351
:101A10008C918F93F60181818F9380818F93A7EAB8
:101A2000B2E0BF93AF931F930F930E945211C8016E
:101A30000E9422060FB6F894DEBF0FBECDBF809184
:101A4000C30183FF1EC0E196AEADBFADE1978D919E
:101A50009C91F60120813181821B930B9F938F9380
:101A6000ACE6B2E0BF93AF931F930F930E94521165
:101A7000C8010E9422060F900F900F900F900F90B8
:101A80000F900E947B03FFEFEF1AFF0AE1962EAD45
:101A90003FADE1972E5F3F4FE1963FAF2EAFE1970D
:101AA00032E0C30ED11C42E0A40EB11CE3962EAD71
:101AB0003FADE3972E5F3F4FE3963FAF2EAFE397E7
:101AC00034E0E316F10409F061CF84C02817390728
:101AD0000CF484C08091C501882309F47FC0109262
:101AE000C5010E941B030E940F036093A70170931E
:101AF000A8018093A9019093AA018091C3019091BC
:101B0000C4018F719927892B09F468C00E940F03C3
:101B10009F938F937F936F938CE992E09F938F9322
:101B20008E01035C1F4F1F930F930E945211C80137
:101B30000E9422068091C3010FB6F894DEBF0FBE4B
:101B4000CDBF80FF19C08091AC018F938091AB0114
:101B50008F9385E992E09F938F931F930F930E9439
:101B60005211C8010E9422060E947B030F900F9021
:101B70000F900F900F900F908091C30184FF2AC0A7
:101B80008091A7019091A801A091A901B091AA010B
:101B90004091A3015091A4016091A5017091A6010B
:101BA000841B950BA60BB70BBF93AF939F938F939B
:101BB0008CE892E09F938F931F930F930E94521192
:101BC000C8010E9422060E947B030FB6F894DEBF74
:101BD0000FBECDBF8CEE91E00E9493048091B101C5
:101BE0009091B2010196883EA3E09A072CF490935D
:101BF000B2018093B10126C01092B2011092B101DE
:101C00000E942D030E940F030091AD011091AE01BF
:101C10002091AF013091B0011B012C01201A310A33
:101C2000420A530A20920D0130920E0140920F0198
:101C3000509210016093AD017093AE018093AF019B
:101C40009093B0018091C6019091C7010196909345
:101C5000C7018093C6012091AE023091AF02821776
:101C600093070CF4A6C01092C7011092C6012091F0
:101C70000D0130910E0140910F015091100160EC67
:101C800076EC8DE290E00E9450143093AF022093E6
:101C9000AE028091C50181118CC08091C30185FF86
:101CA00088C00E940F039F938F937F936F9383EC61
:101CB00092E09F938F938E01035C1F4F1F930F93AE
:101CC0000E945211C8010E942206809110018F9338
:101CD00080910F018F9380910E018F9380910D0160
:101CE0008F9388EB92E09F938F931F930F930E94A3
:101CF0005211C8010E9422060FB6F894DEBF0FBE33
:101D0000CDBFE12CF12CFF92EF92A3EBB2E0BF9399
:101D1000AF931F930F930E945211C8010E94220695
:101D2000E996AEADBFADE9972C9111963C91119714
:101D30001296E996BFAFAEAFE997E596EEADFFAD6F
:101D4000E597808191813296E596FFAFEEAFE597FA
:101D50003F932F939F938F93A7EAB2E0BF93AF93E4
:101D60001F930F930E945211C8010E9422060E94E5
:101D70007B03FFEFEF1AFF0A0FB6F894DEBF0FBE2A
:101D8000CDBF34E0E316F10409F0BDCF8CEE91E055
:101D90000E9493040EC08091EA019091EB01DC0156
:101DA000ED91FC910284F385E02D0995182F8A307E
:101DB00071F48091EA019091EB01DC01ED91FC91CD
:101DC0000084F185E02D0995892B29F794C0809135
:101DD000EA019091EB011B3024F4183009F469C03A
:101DE0007BC01D3019F01E3209F076C0E091E80189
:101DF000F091E90110826BE271E00E947E0463E4DD
:101E000071E08AEC91E00E9426119A838983FE0199
:101E100033967F0101E010E0D02EC12E63E471E023
:101E200080E090E00E942611D7018D939D937D0163
:101E30000E31110539F40091C8011091C901E980F2
:101E4000FA8008C00F5F1F4F892B31F7F4CFF801DC
:101E50000481158101151105A1F0F80160817181DE
:101E6000C7010E940C16892B91F7D8011296ED91AB
:101E7000FC911397BE016F5F7F4F8D2D9C2D0995AF
:101E800013C06EEC72E0CE01CD960E941F1100913E
:101E9000EA011091EB01BE01635C7F4FC8010E9413
:101EA0007E04C8010E9493040E9497048AEC91E08A
:101EB0000EC068E00E9477048091E8019091E901EA
:101EC000F1E08A3C9F0709F008F473CF01979093E3
:101ED000E9018093E8016DCF612F0E947704E091C2
:101EE000E801F091E901CF0101969093E901809317
:101EF000E80110835ECF0E94B90237CB281739075B
:101F00000CF0EDCD6BCE1092EF011092EE0188EE49
:101F100093E0A0E0B0E08093F0019093F101A093F2
:101F2000F201B093F3018DE191E09093ED01809384
:101F3000EC0185EC90E09093F9018093F80184EC3A
:101F400090E09093FB018093FA0180EC90E09093F5
:101F5000FD018093FC0181EC90E09093FF01809360
:101F6000FE0182EC90E0909301028093000286ECE7
:101F700090E0909303028093020210920502109267
:101F8000060210920702109208028091AD028C3076
:101F9000A0F491E0980F9093AD028093B00290E08E
:101FA000FC01EE0FFF1F8E0F9F1FFC01E757FD4F37
:101FB00088EB9BE09283818303C08FEF8093B00214
:101FC00020910D0130910E0140910F0150911001AF
:101FD00060EC76EC8DE290E00E9450143093AF02FA
:101FE0002093AE0280911101909112010796909377
:101FF000B4028093B3020895A0E0B0E0E2E0F0E123
:102000000C9482145C016B017A016115710519F061
:10201000FB0191838083E114F10429F0C701029749
:10202000839708F0F1C0E5012196F5011081812F19
:1020300090E00E940D11892B11F05E01F4CF1D324A
:1020400029F42196F501118101E007C01B3221F42A
:10205000E5012296F501118100E0E114F10459F146
:10206000F0E1EF16F10461F41033E1F488818F7D23
:10207000883569F519812296026070E1E72EF12C0E
:1020800088E0E816F10439F12CF4F2E0EF16F104DF
:10209000C9F12AC08AE0E816F10479F0E0E1EE1611
:1020A000F10411F550E1E52EF12C812C912CA12C9D
:1020B00068E0B62E2CC01033C9F23AE0E32EF12CC2
:1020C0004CEC842E982CA82C4CE0B42E20C010E3AD
:1020D000E114F104A9F698E0E92EF12C812C912C61
:1020E000A12C20E1B22E13C060E070E080E090E807
:1020F00097010F2C000C440B550B0E942E14490124
:102100005A0105C0812C912CA12C80E4B82E60E0EE
:1021100020E030E0A90127010F2C000C66087708A9
:102120001E01E0EDE10FEA3060F08FEB810F8A31A4
:1021300010F4E9EC05C08FE9810F8A3128F5E9EA4E
:10214000E10F8E2F90E08E159F05F4F467FD18C007
:1021500082169306A406B50690F0C301B2010E9450
:102160001E149B01AC012E0F311D411D511D21304C
:1021700031054105F0E85F0710F461E001C06FEF41
:102180002196F1011081CCCF802F8170C114D10430
:1021900071F0662329F02197F601D183C08307C02F
:1021A00001FF19C02297F601D183C08314C067FFD5
:1021B00012C0811105C02FEF3FEF4FEF5FE704C062
:1021C00020E030E040E050E882E290E09093B802F6
:1021D0008093B70216C0882341F050954095309502
:1021E00021953F4F4F4F5F4F0CC057FF0AC082E20F
:1021F00090E09093B8028093B7022FEF3FEF4FEF3C
:102200005FE7B901CA0104C060E070E080E090E0DF
:10221000CDB7DEB7E2E10C949E1491110C944713F4
:10222000803219F089508550C8F70895FB01DC0110
:102230008D91059080190110D9F3990B0895FB0138
:10224000DC0105900D920020E1F7089545EB52E086
:102250000E942B110895FA01A191B081009719F401
:102260001097E1F0CD01DC01CD010D90002011F4BB
:10227000C00113C0FB012191222319F02015D9F7C9
:10228000F3CFFB012191201519F41E92119606C07F
:102290002223C1F70D900020A1F7D001FA01A193EC
:1022A000B0830895AEE0B0E0E8E5F1E10C9490145D
:1022B0000D891E898EE08C831A8309838FEF9FE737
:1022C0009E838D83AE01475E5F4F6F89788DCE010F
:1022D00001960E9475112F813885F801E20FF31FD6
:1022E00010822E96E4E00C94AC14ACE0B0E0EBE786
:1022F000F1E10C9482147C016B018A01FC011782CC
:102300001682838181FFBDC1CE0101964C01F70188
:102310009381F60193FD859193FF81916F0188234D
:1023200009F4ABC1853239F493FD859193FF819116
:102330006F01853229F4B70190E00E946013E7CF66
:10234000512C312C20E02032A0F48B3269F030F493
:10235000803259F0833269F420612CC08D3239F01B
:10236000803339F4216026C02260246023C02860B5
:1023700021C027FD27C030ED380F3A3078F426FF12
:1023800006C0FAE05F9E300D1124532E13C08AE080
:10239000389E300D1124332E20620CC08E3221F471
:1023A00026FD6BC1206406C08C3611F4206802C083
:1023B000883641F4F60193FD859193FF81916F0179
:1023C0008111C1CF982F9F7D9554933028F40C5FD5
:1023D0001F4FFFE3F9830DC0833631F0833771F06F
:1023E000833509F05BC022C0F801808189830E5FCC
:1023F0001F4F44244394512C540115C03801F2E07E
:102400006F0E711CF801A080B18026FF03C0652DFE
:1024100070E002C06FEF7FEFC5012C870E9455135B
:102420002C0183012C852F77222E17C03801F2E072
:102430006F0E711CF801A080B18026FF03C0652DCE
:1024400070E002C06FEF7FEFC5012C870E944A1336
:102450002C012C852068222E830123FC1BC0832D98
:1024600090E048165906B0F4B70180E290E00E946F
:1024700060133A94F4CFF50127FC859127FE8191F2
:102480005F01B70190E00E94601331103A94F1E0CF
:102490004F1A51084114510471F7E5C0843611F008
:1024A000893639F5F80127FF07C060817181828183
:1024B00093810C5F1F4F08C060817181072E000C53
:1024C000880B990B0E5F1F4F2F76722E97FF09C056
:1024D00090958095709561957F4F8F4F9F4F2068A5
:1024E000722E2AE030E0A4010E949813A82EA818AA
:1024F00044C0853729F42F7EB22E2AE030E025C073
:10250000F22FF97FBF2E8F36C1F018F4883579F09D
:10251000B4C0803719F0883721F0AFC02F2F206169
:10252000B22EB4FE0DC08B2D8460B82E09C024FFDE
:102530000AC09F2F9660B92E06C028E030E005C083
:1025400020E130E002C020E132E0F801B7FE07C030
:1025500060817181828193810C5F1F4F06C0608111
:10256000718180E090E00E5F1F4FA4010E949813DC
:10257000A82EA818FB2DFF777F2E76FE0BC0372DD7
:102580003E7FA51450F474FE0AC072FC08C0372DBB
:102590003E7E05C0BA2C372D03C0BA2C01C0B52C25
:1025A00034FF0DC0FE01EA0DF11D8081803311F46E
:1025B000397E09C032FF06C0B394B39404C0832FA0
:1025C000867809F0B39433FD13C030FF06C05A2C4F
:1025D000B31418F4530C5B18B32CB31468F4B7019C
:1025E00080E290E03C870E946013B3943C85F5CF75
:1025F000B31410F43B1801C0312C34FF12C0B701E2
:1026000080E390E03C870E9460133C8532FF17C056
:1026100031FD03C088E790E002C088E590E0B70193
:102620000CC0832F867859F031FF02C08BE201C0C5
:1026300080E237FD8DE2B70190E00E946013A5149F
:1026400038F4B70180E390E00E9460135A94F7CF0A
:10265000AA94F401EA0DF11D8081B70190E00E9477
:102660006013A110F5CF332009F451CEB70180E2F9
:1026700090E00E9460133A94F6CFF701868197812B
:1026800002C08FEF9FEF2C96E2E10C949E149927E5
:1026900088270895FC010590615070400110D8F71B
:1026A000809590958E0F9F1F0895FC01615070409A
:1026B00001900110D8F7809590958E0F9F1F089577
:1026C0000F931F93CF93DF93FB01238121FD03C061
:1026D0008FEF9FEF28C022FF16C0468157812481CB
:1026E00035814217530744F4A081B1819D012F5FCA
:1026F0003F4F318320838C93268137812F5F3F4F5B
:102700003783268310C0EB01092F182F0084F18531
:10271000E02D0995892BE1F68E819F8101969F839B
:102720008E83812F902FDF91CF911F910F9108956C
:10273000FA01AA27283051F1203181F1E8946F93F2
:102740006E7F6E5F7F4F8F4F9F4FAF4FB1E03ED098
:10275000B4E03CD0670F781F891F9A1FA11D680F36
:10276000791F8A1F911DA11D6A0F711D811D911D69
:10277000A11D20D009F468943F912AE0269F1124DE
:102780003019305D3193DEF6CF010895462F477042
:10279000405D4193B3E00FD0C9F7F6CF462F4F709D
:1027A000405D4A3318F0495D31FD4052419302D0FB
:1027B000A9F7EACFB4E0A6959795879577956795A1
:1027C000BA95C9F700976105710508959B01AC01A1
:1027D0000A2E06945795479537952795BA95C9F7C8
:1027E000620F731F841F951FA01D0895DC01CB018C
:1027F000FC01F999FECF06C0F2BDE1BDF89A319611
:1028000000B40D9241505040B8F70895DC01CB015F
:1028100003C02D910E94111441505040D0F70895EB
:10282000262FF999FECF1FBA92BD81BD20BD0FB6EC
:10283000F894FA9AF99A0FBE01960895DB018F93E6
:102840009F930E946F14BF91AF91A29F800D911D25
:10285000A39F900DB29F900D11240895A1E21A2E0E
:10286000AA1BBB1BFD010DC0AA1FBB1FEE1FFF1F34
:10287000A217B307E407F50720F0A21BB30BE40B84
:10288000F50B661F771F881F991F1A9469F76095CB
:102890007095809590959B01AC01BD01CF01089585
:1028A000052E97FB1EF400940E94671457FD07D075
:1028B0000E942E1407FC03D04EF40C94671450951C
:1028C0004095309521953F4F4F4F5F4F089590951C
:1028D0008095709561957F4F8F4F9F4F08950E940F
:1028E000B914A59F900DB49F900DA49F800D911DCC
:1028F00011240895B7FF0C946F140E946F14821B6B
:10290000930B08952F923F924F925F926F927F9216
:102910008F929F92AF92BF92CF92DF92EF92FF92EF
:102920000F931F93CF93DF93CDB7DEB7CA1BDB0B9B
:102930000FB6F894DEBF0FBECDBF09942A88398840
:1029400048885F846E847D848C849B84AA84B98447
:10295000C884DF80EE80FD800C811B81AA81B98153
:10296000CE0FD11D0FB6F894DEBF0FBECDBFED0167
:102970000895A29FB001B39FC001A39F700D811D58
:102980001124911DB29F700D811D1124911D089578
:10299000991B79E004C0991F961708F0961B881FB1
:1029A0007A95C9F780950895EE0FFF1F0590F49171
:1029B000E02D0994CF93DF938230910510F482E0EB
:1029C00090E0E091BB02F091BC0220E030E0C0E07A
:1029D000D0E0309711F14081518148175907C0F07C
:1029E0004817590761F482819381209719F09B83DE
:1029F0008A832BC09093BC028093BB0226C0211512
:102A0000310519F04217530718F49A01BE01DF018E
:102A1000EF010280F381E02DDCCF2115310509F1B2
:102A2000281B390B2430310590F412968D919C911E
:102A300013976115710521F0FB019383828304C014
:102A40009093BC028093BB02FD01329644C0FD010D
:102A5000E20FF31F81939193225031092D933C9300
:102A60003AC02091B9023091BA02232B41F420914F
:102A70001501309116013093BA022093B9022091CA
:102A80001301309114012115310541F42DB73EB7E2
:102A90004091170150911801241B350BE091B902A8
:102AA000F091BA02E217F307A0F42E1B3F0B281790
:102AB000390778F0AC014E5F5F4F2417350748F0B7
:102AC0004E0F5F1F5093BA024093B90281939193C6
:102AD00002C0E0E0F0E0CF01DF91CF9108950F93C5
:102AE0001F93CF93DF93009709F48CC0FC013297BA
:102AF000138212820091BB021091BC0201151105D4
:102B000081F420813181820F931F2091B90230918D
:102B1000BA022817390779F5F093BA02E093B9029F
:102B200071C0D80140E050E0AE17BF0750F41296D4
:102B30002D913C911397AD012115310509F1D90172
:102B4000F3CF9D01DA013383228360817181860F87
:102B5000971F8217930769F4EC0128813981260FAA
:102B6000371F2E5F3F4F318320838A819B81938360
:102B70008283452B29F4F093BC02E093BB0242C050
:102B80001396FC93EE931297ED01499159919E0192
:102B9000240F351FE217F30771F480819181840FB0
:102BA000951F029611969C938E9382819381139622
:102BB0009C938E931297E0E0F0E0D80112968D91ED
:102BC0009C911397009719F0F8018C01F6CF8D9125
:102BD0009C9198012E5F3F4F820F931F2091B90265
:102BE0003091BA022817390769F4309729F4109206
:102BF000BC021092BB0202C0138212821093BA026E
:102C00000093B902DF91CF911F910F91089581E058
:102C100090E0F8940C941C16FB01DC018D9101905E
:102C200080190110D9F3990B0895FB01DC01019083
:0C2C30000D920020E1F70895F894FFCF0A
:102C3C0001FFFFFFFFFFFFFFFF07000E00DC00009E
:102C4C000004000000BD028000000000005002B92A
:102C5C0001E80197021902F7010B020D0A006C6FD3
:102C6C0067006673720073727600726F6D00686530
:062C7C006C700020000056
:00000001FF
